:020000040800F2
:10000000C8780020950200084D6C00080D540008C7
:10001000416600085109000889A600080000000098
:100020000000000000000000000000001184000833
:10003000A912000800000000316D00083584000896
:10004000AF020008AF020008AF020008AF020008CC
:10005000AF020008AF020008AD120008B512000898
:10006000AF020008BD120008C5120008AF02000868
:10007000A90F0008AF020008AF020008AF02000895
:10008000AF020008AF020008AF020008AF0200088C
:1000900055090008AF020008AF020008CD120008A1
:1000A000AF020008AF020008AF020008AF0200086C
:1000B000AF020008AF02000825850008AF02000863
:1000C000AF020008AF020008AF020008AF0200084C
:1000D000AF02000859890008AF02000865890008CE
:1000E000AF020008AF020008AF0200083185000827
:1000F000AF020008AF020008AF020008AF0200081C
:10010000AF020008AF020008AF020008AF0200080B
:10011000AF020008AF020008AF020008AF020008FB
:10012000AF020008B50F0008C10F000879120008DF
:10013000AF020008AF020008AF020008AF020008DB
:10014000AF02000861090008AF020008516C000806
:1001500085120008911200089D120008718900089C
:10016000AF020008AF020008AF020008AF020008AB
:10017000AF020008AF020008AF0200080000000054
:10018000AF020008AF02000800F002F800F072F8B9
:1001900014A696E8000CB244B344DA4501D100F04D
:1001A00069F8BAE80F000FA696E83000A5EB040541
:1001B00004EB0607AAEB0704A7F101074FEA1515A0
:1001C0004FEA3414A4F10104AC4201D300F052F818
:1001D00013F0010F18BFFB1A43F0010300F001F800
:1001E000DBE7184790E30000B0E300000A444FF05B
:1001F000000C10F8013B13F0070408BF10F8014B86
:100200001D1108BF10F8015B641E05D010F8016BCA
:10021000641E01F8016BF9D113F0080F1EBF10F82E
:10022000014BAD1C0C1B09D16D1E58BF01F801CB51
:10023000FAD505E014F8016B01F8016B6D1EF9D5D4
:100240009142D6D37047000070470000002300247D
:1002500000250026103A28BF78C1FBD8520728BFD6
:1002600030C148BF0B6070471FB50DF078FF1FBD50
:1002700010B510BD00F0A4F91146FFF7F5FF0AF024
:1002800085FE00F0C2F903B4FFF7F2FF03BC00F0F3
:10029000C5F900000948804709480047FEE7FEE726
:1002A000FEE7FEE7FEE7FEE7FEE7FEE7FEE7FEE726
:1002B00004480549054A064B7047000011850008AF
:1002C00089010008C8720020C8780020C874002086
:1002D000C874002053EA020C00F069802DE9F04B4D
:1002E0004FF00006002B1FBFB3FA83F503FA05F4A5
:1002F00024FA05F65E4012BF1643B2FA82F502FAFE
:1003000005F4C5F120051EBF22FA05FC44EA0C04E1
:10031000203556EA044C4FEA144418BF641C4FF0D1
:1003200000084FF00009904271EB030C39D300290B
:1003300019BFB1FA81F701FA07F6B0FA80F700FAAF
:1003400007F6C7F120071EBF20FA07FC46EA0C0695
:100350002037B6FBF4FCA7EB0507103F07F01F0B97
:10036000CBF120062CFA06F60CFA0BFB44BFB34681
:100370000026202FA4BF5E464FF0000B5BEA060C60
:1003800008BF4FF0010B19EB0B0948EB0608ABFB5C
:10039000027C06FB02CC0BFB03CCC01B71EB0C01F7
:1003A000C1E70B46024641464846BDE8F08B13B50F
:1003B000084318BF4FF0FF300146AFF30080BDE89F
:1003C0001C40704710B5431C02E010F8011B71B1CE
:1003D0008107FAD14FF0013202C88C1A8C4314EA1B
:1003E000C211F9D0C01A0A0603D0C01E10BDC01A2F
:1003F00010BD0A0401D0801E10BD0902FCD0401EB1
:1004000010BD032A40F2308010F0030C00F015807C
:1004100011F8013BBCF1020F624498BF11F801CB07
:1004200000F8013B38BF11F8013BA2F1040298BF6C
:1004300000F801CB38BF00F8013B11F0030300F0D6
:100440008480083AC0F0088051F8043B083A51F81B
:1004500004CBA0E80810F5E7121D5CBF51F8043B7F
:1004600040F8043BAFF30080D20724BF11F8013BF2
:1004700011F801CB48BF11F8012B24BF00F8013B54
:1004800000F801CB48BF00F8012B704702F0FF03D2
:1004900043EA032242EA024200F024B84FF000028D
:1004A0000429C0F0128010F0030C00F01B80CCF186
:1004B000040CBCF1020F18BF00F8012BA8BF20F8F4
:1004C000022BA1EB0C0100F00DB85FEAC17C24BF48
:1004D00000F8012B00F8012B48BF00F8012B7047F2
:1004E0004FF0000200B5134694469646203922BFCD
:1004F000A0E80C50A0E80C50B1F12001BFF4F7AF18
:10050000090728BFA0E80C5048BF0CC05DF804EBF9
:10051000890028BF40F8042B08BF704748BF20F867
:10052000022B11F0804F18BF00F8012B7047704765
:100530007047704710B500F03BF8006810BD10B56B
:10054000044600F035F8046010BD10B5203AC0F044
:100550000B80B1E81850A0E81850B1E81850A0E896
:100560001850203ABFF4F5AF5FEA027C24BFB1E82F
:100570001850A0E8185044BF18C918C0BDE8104072
:100580005FEA827C24BF51F8043B40F8043B08BF7B
:100590007047D20728BF31F8023B48BF11F8012B42
:1005A00028BF20F8023B48BF00F8012B704700002D
:1005B0000048704758040020004870475804002045
:1005C0007546FFF7F9FFAE4605006946534620F031
:1005D0000700854618B020B5FFF76AFEBDE8204049
:1005E0004FF000064FF000074FF000084FF0000BEF
:1005F000AC46ACE8C009ACE8C009ACE8C009ACE85E
:10060000C00921F007018D46704710B50446AFF3CD
:1006100000802046BDE81040FFF735BE0149182094
:10062000ABBEFEE726000200704700000020C4F2C7
:1006300002001021012202F01BB900000020C4F2C8
:1006400002001021002202F013B9000070470000E0
:1006500040F20040C4F202000121012202F008B978
:1006600040F20040C4F202000121002202F000B971
:10067000B0F9003040F2000CC2F2000C00EE103A6B
:100680009CED001AB8EEC00A21EE000A81ED000AC6
:10069000B0F902309CED001A00EE103AB8EEC00A34
:1006A00021EE000A81ED010AB0F9043000EE103AA3
:1006B000B8EEC00A21EE000A81ED020AC379817901
:1006C000007A1B0243EA0040084400EE100A9FED46
:1006D000041AB8EE400A20EE010A82ED000A7047C3
:1006E00000401C42704700000AF074BC01200AF070
:1006F00071BC0000B0F9002000EE102A40F20402A4
:10070000C2F2000292ED001AB8EEC00A21EE000A11
:1007100081ED000AB0F9023092ED001A00EE103AB5
:10072000B8EEC00A21EE000A81ED010AB0F904001A
:1007300000EE100AB8EEC00A21EE000A81ED020AAE
:100740007047000010B5FFF781FFFFF7CBFF0AF0FD
:1007500003F908B1802402E00AF05CF804460AF0CC
:10076000E9FA00281CBF44F0400010BD0AF062FA0C
:10077000204310BD2DE9F04383B081460020904610
:100780000E46CDE90000FFF759FF922000F0AAF8CD
:10079000922000F0A7F86846451E06242F4600BFA9
:1007A000552000F09FF8013C210607F8010FF7D112
:1007B000FFF73CFFBDF90000BDF9021000EE100A82
:1007C00040F20000C2F2000090ED001AB8EEC00A3C
:1007D000BDF9042021EE000A86ED000A00EE101A91
:1007E00090ED001A02EE102AB8EEC00AB8EEC22A46
:1007F00021EE000A21EE021A86ED010A86ED021AA8
:10080000FFF72EFF802000F06DF808242E4600BF71
:10081000552000F067F8013C210606F8010FF7D1DA
:10082000FFF716FF9DF800000F2825D1BDF9020043
:10083000BDF9041000EE100A40F20400C2F20000FC
:1008400090ED001AB8EEC00ABDF9062021EE000AAC
:1008500089ED000A00EE101A90ED001A02EE102A3F
:10086000B8EEC00AB8EEC22A21EE000A21EE021A42
:1008700089ED010A89ED021AFFF7E0FEA22000F0DF
:1008800031F8A22000F02EF8022400BF552000F01D
:1008900029F8013C210605F8010FF7D1FFF7C6FE44
:1008A0009DF800009DF80110C00040EA51114FF67C
:1008B00000020023CFF6FF72B3EB902F18BF114355
:1008C00000EE101AB8EEC00AB4EE001A20EE010ACB
:1008D000B3EE071A30EE010A88ED000A03B0BDE856
:1008E000F083000080B582B08DF8070042F6142036
:1008F0004FF47A7CC2F200000DF107010DF10602FF
:100900000123CDF800C003F0ABFB9DF8060002B058
:1009100080BD000002784078D20042EA50104FF6C5
:10092000000C0023CFF6FF7CB3EB922F18BF40EAF8
:100930000C0000EE100AB8EEC00AB4EE001A20EE69
:10094000010AB3EE071A30EE010A81ED000A704782
:10095000FEE7000042F2EC10C2F2000001F046B8DF
:1009600042F21420C2F2000001F040B800207047AB
:100970000020704710B541F61074C2F2000441F235
:100980008011C2F200012046002208F0BBF940F6B7
:100990008011C2F20001204608F0A6F9002010BD27
:1009A00010B541F61074C2F200040146204608F06A
:1009B0009BF9204608F072F9002010BD0020704716
:1009C0002DE9F04F99B048B30168E9B1B0F80720BC
:1009D000D2B1B0F80530BBB103795F1E022F13D23C
:1009E000012B6DD141F6FC63C2F200031B78082B8A
:1009F0002DD14EF2E010C0F60000CDE900104EF20D
:100A0000B921C0F6000112E04EF2E010C0F600007D
:100A10004EF233310090C0F6000108E04EF2E010D3
:100A2000C0F600004EF2FD110090C0F600014EF23B
:100A3000E5124EF2D713C0F60002C0F60003002004
:100A4000002406F005FC204619B0BDE8F08F002B0D
:100A50001D4618BF012533D041F6BC6CC2F2000C14
:100A6000DCF80060768D964210D05E1EF6B200254E
:100A7000AE4225D00CEB85046468678D6C1C9742F0
:100A80002546F5D100259C4238BF01254EF2E013E2
:100A9000C0F600038DE80E004EF2F0314EF2E51282
:100AA0004EF2D713C0F60001C0F60002C0F60003F4
:100AB00006460020002406F0CBFB3046002DC2D1B4
:100AC0000179022956D141F6FD61C2F200010D788B
:100AD000002D4FD0082D09D100684EF2E011C0F66C
:100AE0000001CDE900010FF22841A0E741F6DC62E8
:100AF000C2F200021368B0F807105B8D8B420BD175
:100B000000684EF2E012C0F600028DE807004EF2D7
:100B10003141C0F600018AE72B46012D98BF012321
:100B2000013BDBB20026B34224D002EB86077F688C
:100B30007C8D771C8C423E46F5D102684EF2E01364
:100B4000C0F60003CDE9002102934EF231414EF28E
:100B5000E5124EF2D713C0F60001C0F60002C0F64F
:100B6000000306460020002406F072FB3046AF4228
:100B7000FFF469AF049041F6FE60C2F20000007815
:100B8000002840F0358142F2EC104FF001094FF09F
:100B9000000AC2F200000FA9CDF85C90CDE915A9BA
:100BA000CDE90FAACDE911AACDE913AA00F0FAFD0B
:100BB0004EF2E01BC0F6000BE0B14EF2E5154EF22E
:100BC000D71642F2EC170FF28838C0F60005C0F6CF
:100BD0000006C2F200070FAC002041462A46334609
:100BE000CDF800B006F034FB3846214600F0DAFDBF
:100BF0000028F1D10E200A900E9042F21420C2F289
:100C0000000005A9CDF83490CDE90BA9CDF82490CA
:100C1000CDE905AACDE907AA00F0C4FDF0B14EF276
:100C2000C7384EF2E5154EF2D71642F21427C0F639
:100C30000008C0F60005C0F60006C2F2000705ACC9
:100C4000002041462A463346CDF800B006F000FBAE
:100C50003846214600F0A6FD0028F1D14EF2BA41F7
:100C60004EF2ED124EF2DA13C0F60001C0F60002A9
:100C7000C0F600030020CDF800B006F0E9FA42F219
:100C8000EC10C2F2000001F045FAE0B14EF2F92496
:100C90004EF2E5154EF2D71642F2EC17C0F60004FC
:100CA000C0F60005C0F60006C2F20007002021468B
:100CB0002A463346CDF800B006F0CAFA384601F0AD
:100CC00029FA0028F2D142F21420C2F2000001F009
:100CD00021FAE0B14EF216344EF2E5154EF2D71677
:100CE00042F21427C0F60004C0F60005C0F6000664
:100CF000C2F20007002021462A463346CDF800B054
:100D000006F0A6FA384601F005FA0028F2D142F2C0
:100D1000EC10C2F20000022100F0E6FCF0B14EF24D
:100D200069344EF2E5154EF2D71642F2EC17C0F6D2
:100D30000004C0F60005C0F60006C2F2000700BFBE
:100D4000002021462A463346CDF800B006F080FA4E
:100D50003846022100F0C8FC0028F1D142F21420EC
:100D6000C2F20000102100F0BFFCE8B14EF298344E
:100D70004EF2E5154EF2D71642F21427C0F60004E3
:100D8000C0F60005C0F60006C2F2000700202146AA
:100D90002A463346CDF800B006F05AFA38461021FC
:100DA00000F0A2FC0028F1D14EF2ED144EF2DA155B
:100DB0004EF27241C0F60004C0F60005C0F6000114
:100DC000002022462B46CDF800B006F041FA41F64D
:100DD000FE610120C2F2000108704EF29A41C0F695
:100DE0000001002022462B46CDF800B006F030FA74
:100DF0003F200AF0E5FC00287DD042F2142542F2A3
:100E0000EC163F210446C2F20005C2F20006FFF7CD
:100E100045FB049A0027106813792060022B08BF55
:100E20002F46012B08BF3746B2F805000021676046
:100E30000827A060E16021616161A7612177B2F8B4
:100E40000710D2F80970D2F80D20012B208461859B
:100E5000C4F83770C4F83B2024D141F6FC62C2F2DA
:100E60000002137841F6BC67C2F2000747F823403E
:100E70000133276813704EF2E01602914EF22D21D5
:100E80004EF2ED124EF2DA13C0F60006CDE9007014
:100E9000C0F60001C0F60002C0F600030020039671
:100EA00006F0D6F96068A8427FF4CDAD41F6FD604A
:100EB000C2F20000017841F6DC62C2F2000242F8A0
:100EC000214022680131238C4EF2E016678D0170BB
:100ED000C0F600068DE88C004EF273214EF2ED1242
:100EE0004EF2DA13C0F60001C0F60002C0F60003AD
:100EF00000200396A5E504984EF2E0110068C0F6C4
:100F00000001CDE900014EF2E641C0F600018EE598
:100F10002020257325732573203A2043616E3220EB
:100F20005265676973746572204661696C65642CEB
:100F3000204D617820526567697374657220436F34
:100F4000756E7420526561636865640D0A257300CF
:100F500020202573257343414E31204649464F30AA
:100F60002046696C74657220436F6E666967204520
:100F700072726F720D0A257300000000B0B504464E
:100F8000606800F01FFD18B90135E8B26528F7D395
:100F9000606804F1080104F12202012300F0B8FBAB
:100FA000B0FA80F04009B0BD42F2BC30C2F200009D
:100FB00001F03EB942F21C40C2F2000001F038B923
:100FC000B0B542F61420C2F20000C16C46F2A04057
:100FD000C4F202000968A0F1480246F29F0591425E
:100FE000C4F2020502D950F89C3C11E046F25803C5
:100FF000C4F2020303F16004A14202D9D3F8A8337A
:1010000006E0994202D953F8543C01E053F8583CA9
:10101000A9424FF0200414DD46F23F45C4F2020518
:10102000A94223DC46F2A005C4F20205A9422CD055
:1010300046F21045C4F20205A94237D046F22845CF
:101040002EE046F23F05C4F20205A94220DD46F239
:101050004005C4F20205A94217D046F27005C4F259
:101060000205A94222D046F2880519E046F2404521
:10107000C4F20205A94208D046F27045C4F2020546
:10108000A94213D046F288450AE04FF400140DE05F
:1010900046F21005C4F20205A94207D046F228051F
:1010A000C4F20205A94261D14FF400642340002B31
:1010B00000F0E080914210D946F27042C4F2020280
:1010C000914246D046F28842C4F20202914244D193
:1010D0004FF4006240F8942C7EE046F25802C4F2CD
:1010E000020202F16003994218D946F21042C4F29A
:1010F000020291425DD046F22842C4F202029142BD
:1011000052D046F24042C4F2020291420CBF4FF468
:1011100000114FF0006140F8981C5DE091422CD91D
:1011200046F27000C4F2020081424ED046F28800BE
:10113000C4F20200814240D046F2A000C4F2020094
:1011400081420CBF4FF400104FF0006042F84C0C8D
:1011500042E0202240F8942C3EE04FF000628142B1
:1011600008BF4FF4001240F8942C35E04FF00064B3
:10117000814208BF4FF4001498E746F21000C4F211
:101180000200814225D046F22800C4F202008142CA
:1011900018D046F24000C4F2020081420CBF4FF466
:1011A00000104FF0006015E04FF4006140F8981C0B
:1011B00012E0202140F8981C0EE04FF4006042F845
:1011C0004C0C09E04FF4006004E0202042F84C0C85
:1011D00002E0202042F8500C41F60D75C2F20005E5
:1011E000287800248007C4F202040DD52878012154
:1011F00000F0FD0028702878012240F004002870DB
:1012000004F5806001F034FB41F66D60C2F200002D
:10121000017889070CD50178012201F0FD010170E8
:10122000017841F0040101702046102101F020FBFB
:1012300041F66C60C2F20000017889070CD5017894
:10124000012201F0FD010170017841F004010170FB
:101250002046102101F00CFB09F0DCFD2878400746
:1012600058BFB0BD43F61040C4F20100016841F020
:1012700001010160B0BD000042F29C20C2F20000FA
:1012800000F0D6BF42F2FC20C2F2000000F0D0BF56
:1012900042F27C40C2F2000000F0CABF42F25C3071
:1012A000C2F2000000F0C4BF70470000012001F04E
:1012B00009BA0000022001F005BA0000082001F080
:1012C00001BA0000102001F0FDB90000202001F05B
:1012D000F9B9000072B600BFFEE7000010B505F0D6
:1012E0008FFE42F6C061C2F20001086040F2281091
:1012F000C2F20000FFF764FB41F6B861C2F20001E0
:10130000086040F2CC20C2F2000005F053FA42F629
:10131000C461C2F20001086040F24030C2F2000035
:1013200005F048FA42F6C861C2F20001086040F2D6
:10133000C830C2F2000005F085F947F2C024C2F2BD
:1013400000040021206005F0CFFA206805F076FC4B
:1013500040F25C10C2F2000005F074F941F600742E
:10136000C2F200040021206005F0BEFA206805F0FA
:1013700065FC40F23C20C2F2000005F063F942F641
:10138000B864C2F200040021206005F0ADFA2068C4
:10139000BDE8104005F052BC8CB0FFF79FFF40F253
:1013A0002050C2F20000006847F2BC299FEDB80B44
:1013B000C2F200099FEDB81BC9F800009FEDB82BE1
:1013C00051EC100B9FEDB83BCDE9081051EC110B1F
:1013D0009FEDB74BCDE9061051EC120B9FEDB65BBC
:1013E000CDE9041051EC130B41F6B8679FEDB4AA98
:1013F0009FEDB4BA9FEDB48A9FEDB4CACDE9021057
:1014000051EC140BC2F20007CDE90A1051EC150B98
:10141000CDE900107CE000BFD8F804004FF4405143
:1014200031EA0000ACA008BF043090ED000AACA087
:1014300042F6C46408BF0430C2F2000490ED009A82
:10144000206842F6BC65C2F2000585ED001A05F081
:1014500037F942F6C866C2F200063068B0EE490AB3
:1014600005F02EF9206805F0F3F9306805F0F0F981
:1014700041F6007442F64C51C2F20004C2F200017F
:10148000206891ED000A05F04BFA2068B0EE480A9A
:1014900090ED1C1AF0EE480A05F056FB206805F0A6
:1014A000CDFB47F2C026C2F20006346840F220515C
:1014B000C2F20001E06A99ED000AD1ED000A05F0E0
:1014C00069FC204605F02CFA3068B0EE480A90ED31
:1014D0001C1AF0EE480A05F037FB306805F0AEFB49
:1014E00042F6B864C2F20004206895ED000A05F0E7
:1014F00017FA2068B0EE480A90ED1C1AF0EE480A80
:1015000005F022FB206805F099FB012009F062FD3F
:1015100009F07EFC3868FFF731FD42F6C060C2F288
:101520000000D0F800A0DAF80900D04658F805BF4E
:1015300000F44050B0F5805F40F08D804BF38F1089
:1015400040110CF0F5FA044642F64C50C2F200008D
:1015500000680D460CF068FDDDE9083206460F46CE
:10156000204629460CF074FB32463B460CF094F8BA
:101570000CF060F809EE100A0CF056FDDDE90632B9
:101580000CF08BFD002818BFB0EE4A9A19EE100A35
:101590000CF04AFDDDE904320CF094FD002842F61F
:1015A0004C50C2F2000018BFB0EE4B9A80ED009A8A
:1015B0004BF30A000CF0BCFA0446D9F800000D46C3
:1015C000CB460CF031FDDDE9023206460F462046DF
:1015D00029460CF03DFB02460B46304639460CF0DE
:1015E0005BF80CF027F804460CF01EFDDDE90A322A
:1015F00005460E460CF05FFD70B93146019E009F16
:10160000284632463B460CF047F80CF013F80446E7
:1016100000EE100A04E000BFDDE9007600EE104A9B
:101620002046D9468BED000A0CF0FEFC32463B46C4
:1016300004460D460CF038FD41F6B867C2F20007CB
:1016400048B9DDE90A32204629460CF025F80BF0AE
:10165000F1FFC9F80000D8F80400B0EE481AC04302
:1016600010F4405F7FF4D8AEBAF8150040F2145180
:101670008842B0EE4C1A3FF6CFAEB0F52F7F14A0E3
:1016800038BF043090ED001AC6E600BF00BF00BFAF
:101690008DEDB5A0F7C6B03E333333333333E33F7C
:1016A0009A9999999999C9BFF168E388B5F8D4BE18
:1016B000182D4454FB211940182D4454FB2119C006
:1016C0009A99193FCDCC4CBE00000000CDCC4C3EC9
:1016D00000000000CDCC4CBE0000000000803BC5E7
:1016E0000000000000803B4590F82020013A012ACC
:1016F00004D8006800F11402002004E000F1240284
:1017000001204FF4802113681943116070470000D5
:1017100010B590F820E0D0F800C0AEF1010EBEF197
:10172000010FDCF808E011D81EF0E05F14D0CEF312
:1017300001640120A04018608B689BB1D1F804E0DF
:10174000C86840EACE0040EA030E0FE000F124032F
:1017500001204FF4802121E000F1240301204FF407
:1017600000111BE00868CB6843EA405E0CF5C070CE
:1017700000EB0413240140F804E00C69184640F81B
:10178000044F097D012903D1016841F48071016092
:1017900050680121D8601068986000201A681143D1
:1017A000196010BD90F82020013A012A30D8B0B558
:1017B00046F20060C4F20000026842F001020260DA
:1017C000026822F47C520260D1F814E0CC694A6AC3
:1017D0000368012C43EA022202600EF01F024FF060
:1017E000010303FA02F2C3696FEA020C23EA02035F
:1017F000C36113D02CBBC36803EA0C03C360CB687E
:101800008C8844EA034300EBCE0423640B4611E0CA
:10181000416A41F48021416201207047C36813434B
:10182000C3600B688C8844EA034300EBCE04236456
:1018300001F10C038C681B8843EA044300EBCE04DF
:10184000636443688D6943EA0204D1F810E0096AD1
:10185000002D08BF03EA0C0444604369BEF1000F89
:1018600043EA020408BF03EA0C040129446102D1DF
:10187000C1691143C161016821F0010101600020CB
:10188000B0BD00007047000090F82020013A012A06
:1018900084BF0020704700681022002908BF0C2276
:1018A000805800F003007047B0B590F82040013C2C
:1018B000012C78D8046800290CBFE4682469A407C7
:1018C00077D004684FEA011C04F5D87555F80C4030
:1018D00014F00404946055F80CE005EB011C19BFEA
:1018E0004FEADE0555604FEA5E551560DCF80050A2
:1018F000E64605F00205D5605EF8044F24075ABF9E
:10190000DEF8004004F00F0408241461DEF8004003
:101910000029C4F307249461DEF800504FEA15450E
:101920005561DCF808201A70026802EB0112D2F847
:10193000B8214FEA12225A70026802EB0112D2F863
:10194000B8214FEA12429A70026802EB0112D2F8F3
:10195000B8214FEA1262DA70026802EB0112D2F883
:10196000BC211A71026802EB0112D2F8BC214FEAC5
:1019700012225A71026802EB0112D2F8BC214FEA1E
:1019800012429A71026802EB0112D2F8BC214FEAAE
:101990001262DA7100680CBF00F10C0100F1100155
:1019A000002020220AE000F1240101204FF48022CF
:1019B00004E000F1240101204FF400120B681A43E7
:1019C0000A60B0BD90F820100139012984BF0020C1
:1019D00070470068816882688068C1F38061C2F3E3
:1019E000C0621144C0F30070084470472DE9F04F05
:1019F00081B0044600684669D0F804908768D0F842
:101A00000CB0D0F810A0D0F81880F10703D1002551
:101A100030071CD423E0F90710D00121BA078160F8
:101A200009D4780700F1AA80380700F1B080204679
:101A300000F09EFB02E0204600F09CFB0025F8052C
:101A400000F18480F80300F1AA80300707D51BF06D
:101A5000100004D0206845F400751021C1607007A3
:101A600008D51BF0080005D020680821C160204679
:101A700000F0E6F9B00706D52068C068800702D0FC
:101A8000204600F0DFF9700607D51AF0100004D0E8
:101A9000206845F4806510210161B00608D51AF070
:101AA000080005D0206808210161204600F07CFA7A
:101AB000F00606D520680069800702D0204600F0B5
:101AC00075FAB00308D519F0100005D02068102170
:101AD0004160204600F01CFBF00308D519F0080017
:101AE00005D0206808214160204600F04DFB3004FD
:101AF00040F18F805FEA497040F1888006F4807081
:101B000008EA102028435FEA8871014648BF41F087
:101B10000201B20558BF01465FEA48700D4648BF52
:101B200045F00405700558BF0D4630056ED518F018
:101B300070006BD010380009052862D8DFE800F08B
:101B4000035C5659535F45F008055AE020684FF48E
:101B50008071BA0581600AD4780512D4380519D489
:101B6000204600F009FBF8037FF56FAF17E0204631
:101B700000F004FBF8037FF568AF10E04FF4006558
:101B80005DE705F50055F8037FF55FAF07E04FF41B
:101B9000805554E705F58045F8037FF556AF20687A
:101BA0004FF48031BA0381600AD478030FD438032C
:101BB00013D4204600F0E4FA30073FF548AF4EE773
:101BC000204600F0DFFA30073FF541AF47E705F563
:101BD000004530073FF53BAF41E705F5803530075D
:101BE0003FF535AF3BE745F080050AE045F02005BD
:101BF00007E045F0400504E045F0100501E045F43C
:101C000080752068816921F070018161206804215C
:101C100041604DB1606A40EA05012046616201B051
:101C2000BDE8F04FFFF72EBE01B0BDE8F08F000019
:101C3000002804BF01207047B0B5044690F820008A
:101C400010B9204600F06EF82068016841F00101EB
:101C5000016000F013FE054620684168C90705D100
:101C600000F00CFE401B0B28F6D310E0016821F0B9
:101C70000201016000F002FE054600BF20684168D5
:101C800089070DD500F0FAFD401B0B28F6D3606ADA
:101C9000052140F400306062012084F82010B0BDBE
:101CA000217E0268012922F0800208BF8032026092
:101CB000617E0268012922F0400208BF40320260C2
:101CC000A17E0268012922F0200208BF20320260B2
:101CD000E17E0268012922F0100218BF1032026072
:101CE000217F0268012922F0080208BF0832026041
:101CF000617F0268012922F0040208BF04320260F9
:101D0000D4E901C2D4E9033561691A432A43114376
:101D1000ACF101021143C16100200121606284F82D
:101D20002010B0BD10B586B0006846F60002C4F2BF
:101D3000000200219042CDE90411CDE90211019188
:101D400033D046F20041C4F20001884276D140F21D
:101D50000451C2F200010A6843F64000C4F20200D6
:101D6000531C0B6052B900210091016841F00071D1
:101D70000160016801F0007100910099002100915B
:101D800050F8101C142441F0080140F8101C50F8C1
:101D9000100C032100F008000090009840F2004071
:101DA000C4F2020000F5006034E043F64000C4F2E3
:101DB00002000091016841F080610160016801F05A
:101DC00080610091009940F20451C2F200010A685A
:101DD000531C0B6052B900210091016841F0007161
:101DE0000160016801F000710091009900210091EB
:101DF00050F8101C412441F0020140F8101C50F82A
:101E0000100C602100F002000090009840F20040A9
:101E1000C4F20200019102210291002103910321E9
:101E200004910921059101A900F058FC20460521E3
:101E3000002200F0F3FE204600F0DEFE06B010BDEA
:101E400070470000F0B583B000210646FFF71CFD87
:101E5000C7B2072F11D34EF2E0154EF2F5124EF233
:101E6000DD13C0F6000546A1C0F60002C0F600036F
:101E70000020CDE9007505F0EBF940F2B845C2F25B
:101E8000000505F11C04304600212A462346FFF7D1
:101E90000BFD42F2EC10C2F20000864207D042F283
:101EA0001420C2F20000864217D003B0F0BD41F604
:101EB000FC60C2F2000000780028F0D0296841F6EA
:101EC000BC67C2F2000700BF3B685A8D91421AD02E
:101ED000013807F10407F7D1E1E741F6FD60C2F2EE
:101EE000000000780028E0D0296841F6DC66C2F2E4
:101EF000000600BF33685A8D914221D0013806F1A7
:101F00000406F7D1D1E7D3F837000028C7D02869F5
:101F10002146C2B283F8340003F12C00FEF771FAB7
:101F200038684FF6FF73B0F8351001318AB2D21A13
:101F300018BF0A46D0F83710A0F835208847AEE71A
:101F4000D3F837000028B0D028692146C2B283F800
:101F5000340003F12C00FEF754FA30684FF6FF739B
:101F6000B0F8351001318AB2D21A18BF0A46D0F83B
:101F70003710A0F8352003B0BDE8F040084700BF97
:101F80002020257325735258204649464F30204D56
:101F900065737361676520436F756E742069732084
:101FA00025640D0A2573000070470000F0B583B06A
:101FB00001210646FFF768FCC7B2072F11D34EF286
:101FC000E0154EF2F5124EF2DD13C0F6000546A103
:101FD000C0F60002C0F600030020CDE9007505F050
:101FE00037F940F2DC45C2F2000505F11C04304629
:101FF00001212A462346FFF757FC42F2EC10C2F2B9
:102000000000864207D042F21420C2F2000086424D
:1020100017D003B0F0BD41F6FC60C2F200000078BA
:102020000028F0D0296841F6BC67C2F2000700BF63
:102030003B685A8D91421AD0013807F10407F7D155
:10204000E1E741F6FD60C2F2000000780028E0D030
:10205000296841F6DC66C2F2000600BF33685A8D7B
:10206000914221D0013806F10406F7D1D1E7D3F827
:1020700037000028C7D028692146C2B283F834004F
:1020800003F12C00FEF7BDF938684FF6FF73B0F886
:10209000351001318AB2D21A18BF0A46D0F837106B
:1020A000A0F835208847AEE7D3F837000028B0D035
:1020B00028692146C2B283F8340003F12C00FEF7F0
:1020C000A0F930684FF6FF73B0F8351001318AB2CD
:1020D000D21A18BF0A46D0F83710A0F8352003B03E
:1020E000BDE8F040084700BF2020257325735258F3
:1020F000204649464F31204D657373616765204323
:102100006F756E742069732025640D0A25730000B5
:1021100070470000B0B5044690F8200001281DD19A
:10212000022084F820002068016821F0010101608C
:1021300000F0A4FB054600BF20684068C00713D02C
:1021400000F09CFB401B0B28F6D3606A40F4003083
:102150006062052084F820000120B0BD606A40F470
:10216000002060620120B0BD00206062B0BD0000B0
:102170007047000070470000704700007047000083
:1021800070470000704700007047000070B5866D12
:10219000044600F073FB94F83510022925D105465A
:1021A0002068216C026822F016020260426922F067
:1021B0008002426109B9A16C19B1016821F00801DE
:1021C0000160016821F00101016000BF2068006822
:1021D000C0070ED000F052FB401B0628F6D320208B
:1021E0006065032084F835000CE0802060650120E4
:1021F00008E0E06D3F2101FA00F0B060012084F8B2
:1022000035000020002184F8341070BD90F835109E
:10221000022909D1052180F835100068016821F0F4
:102220000101016000207047802141650120704755
:10223000F0B581B00021009140F22401C2F200010A
:102240000B68D0E9166148F2B51537680822C1F667
:102250004E358A403A42A3FB05350CD003681C6812
:10226000640708D51C6824F004041C60B260426D49
:1022700042F00102426501228A403A4208D00368D6
:102280005B691B0604D5B260426D42F002024265F2
:1022900004228A403A4208D003681B689B0704D591
:1022A000B260426D42F00402426510228A403A4216
:1022B00016D001680B681B0712D5B2600B680A685C
:1022C0005B0306D4D20506D40A6822F008020A602D
:1022D00001E011033FD4016C11B104468847204648
:1022E000C26D202101FA02F33B4241D001680F6820
:1022F000FF063DD5B36090F835700B68052F1AD1F5
:1023000023F016030B604B6923F080034B61036CD1
:102310000BB9836C1BB10B6823F008030B603F21E2
:102320009140B160012180F83510016D002280F8E4
:102330003420D9BB3EE00A685B0310D4D20512D426
:102340000A6822F010020A60012180F8351000218D
:1023500080F8341007E0816C0029BED1C0E711037A
:1023600001D4416C00E0C16B11B10446884720469E
:10237000416DF9B1416DC90716D0052180F83510BE
:102380000168AA0A0B6823F001030B60009B01336C
:102390009342009302D80B68DB07F7D1012180F844
:1023A0003510002180F83410C16C19B101B0BDE8BE
:1023B000F040084701B0F0BD2DE9F041044600F0BF
:1023C0005DFAC4B10546022084F83500002021687A
:1023D00084F83400086820F0010008602068016873
:1023E000C9070BD000F04AFA401B0528F6D9032193
:1023F000202203207AE00120BDE8F081016848F244
:102400003F02CFF21002D4E9013501EA020ED4E90D
:10241000032143EA0E032B43D4E9056C1A43D4E9A4
:1024200007781143314341EA0702616A42EA080230
:10243000042942EA0C0303D1D4E90B273A4313439E
:1024400003604269042922F0070241EA02012DD10A
:10245000D4E90A5341EA050143B3BCF5005F08D053
:10246000BCF1000F12D1022D16D0012D07D09DB165
:1024700019E0032D17D8DFE805F00B0F0B02A3F1CD
:10248000C072B2FA82F252094AB90FE0032D02D2A9
:10249000012222B90AE006D1C3F3006232B1012160
:1024A0004022012022E00022002AF8D100F0F802A8
:1024B0004AF6AB23103ACAF6AA23A2FB03374EF220
:1024C000BD1341613909C0F60003595C40F2FF3386
:1024D00098435F2A4FF03F0288BF0430C4E91601D9
:1024E00002FA01F18160002201210020626584F876
:1024F0003510BDE8F081000090F834C0BCF1010F48
:1025000004BF0220704770B54FF0010C80F834C052
:10251000D0F858E090F835C0BCF1010F37D14FF03A
:10252000020C80F835C04FF0000CC0F854C0D0F851
:1025300000C08468056CC06DDCF80060402C26F497
:102540008026CCF80060CCF804300B4604BF13465C
:102550000A463F2101FA00F0CCF80830CCF80C20F4
:10256000CEF80800DCF8000040F01600CCF80000BF
:102570002DB1DCF8000040F00800CCF80000DCF8D9
:10258000000040F00100CCF80000002070BD0021E8
:1025900080F83410022070BDB0B5044600F06EF92A
:1025A000054640F2B830C2F200000078611C18BF46
:1025B000044400BF00F062F9401BA042FAD3B0BD52
:1025C00010B501381F2800F24D80DFE800F01045FB
:1025D0004B4B4B4B4B304B4B4B4B4B4B4B4C4B4B65
:1025E0004B4B4B4B4B4B4B4B4B4B4B4B4B670AF0BB
:1025F00093FB012836D040F25850C2F2000040F25E
:1026000000540068C2F20004214609F0CBFC2068A7
:10261000002808BF10BD4EF60450CEF200004FF067
:1026200080510160BFF34F8FBFF36F8F10BD42F633
:102630001450C2F20000017841F0010101700178EC
:1026400011F0010101700DD0017801F0FE0101705F
:10265000017841F0020104E041F60470C2F200008A
:102660000121017010BD41F66D60C2F200000178D9
:1026700041F00101017041F66C60C2F20000017886
:1026800041F00101017042F6AF40C2F20000007853
:102690000028E7D0BDE8104008F0BCBB41F60D7043
:1026A000C2F20000017841F00101017042F6AF4032
:1026B000C2F2000000780028D4D0BDE8104008F035
:1026C000A9BB000043F61441C4F201010A680242AA
:1026D00014BF08607047FFF773BF00002DE9F04F8B
:1026E00083B000F1200200F13E4741F60045009220
:1026F00007F1FF77C4F2020508224FEAB726A84285
:1027000008BF0722072E38BF4FEAB72200274FF035
:10271000000A4FF0000801920AE000BF08F101082A
:102720000AF1020AB8F1100F07F1040700F09D80CA
:102730000D68012202FA08FC15EA0C09EED04D687A
:10274000032205F0030BABF10106012E02FA0AFE8B
:1027500010D88668CC6826EA0E0604FA0AF43443D8
:1027600084604468C5F3001524EA0C0605FA08F5F0
:102770002E434660BBF1030F1BD0C6688D6826EA66
:102780000E0605FA0AF52E43BBF1020FC66010D102
:102790006FF00302009D02EA580655F806C007F0E4
:1027A0001C040F220B69A2402CEA0202A3401A4328
:1027B000AA5102684B6822EA0E0203F0030606FAE9
:1027C0000AF6324313F4403F0260A7D0002243F6DA
:1027D00044030292C4F202031A6843F6004442F42E
:1027E00080421A601A68C4F2010402F48042029224
:1027F000029A28F003024FF6084C2244CFF6FF7CE1
:1028000052F80C3007F00C060F25B540AB43019D84
:1028100005FA06F6334342F80C30A2684B6842EAE8
:10282000090643F60C4CDD0258BF22EA0906A660F1
:10283000C4F2010CDCF800209D0242EA090658BFF0
:1028400022EA0906CCF8006062689D0342EA0906A4
:1028500058BF22EA090666602268DB0342EA0906DD
:1028600058BF22EA0906266058E703B0BDE8F08F9A
:10287000002A08BF090481617047000046F6F02075
:10288000C2F2000000687047002804BF01207047B2
:10289000F0B581B0044690F83D0028B9002084F8D6
:1028A0003C00204600F0A8F8242084F83D00206871
:1028B000016821F001010160016841F400410160FB
:1028C000016821F40041016001F0D4F8636848F226
:1028D000A16CC0F2010C40F60011C0F23D0163454D
:1028E0003CBF48F28041C0F21E01884202D2012062
:1028F00001B0F0BD4DF68361C4F21B31A0FB0112A3
:102900002168970CD1F804E04FF496762EF03F053D
:1029100045EA92454D60774348F638160D6AC0F295
:102920004106A7FB067625F03F07634538BF960CA6
:10293000721C3A430A62CA6948F2A0664CF6FF77F5
:10294000C0F20106B34222EA070C0AD801385A0045
:10295000B0FBF2F001306FF31F30042898BF042061
:1029600020E0A2681927002A08BF032701385F4327
:10297000B0FBF7F701373F0509D052B119225A438E
:10298000B0FBF2F00422013062F31F3008E00120B6
:1029900008E003EB4302B0FBF2F001306FF31F30AD
:1029A00040F4004040EA0C00C8610868D4E90723FD
:1029B00020F0C000104318430860886848F2FF32D6
:1029C00004F10C0790438CCF18431043A66988602C
:1029D000C86820F0FF0038433043C860086840F002
:1029E0000100086000202021206484F83D1020634D
:1029F00084F83E0001B0F0BD2DE9F04786B045F601
:102A000000460068C4F200060025B0420595CDE9F5
:102A100003550295019502D006B0BDE8F08743F654
:102A200030070095C4F20207386801AC40F004009A
:102A3000386038684FF0120800F0040000900098E9
:102A4000009538684FF0030940F00100386038689D
:102A50004FF0040A00F00100009000984FF400705D
:102A6000019006F5D6302146CDE90285CDF81090CB
:102A7000CDF814A0FFF732FE4FF48070CDE90108C5
:102A800003A880E8200606F5D2302146FFF726FE8F
:102A90000095386940F400003861386900F400009E
:102AA0000090009806B0BDE8F087000040F2B83012
:102AB00046F6F021C2F20000C2F2000100780A6876
:102AC000104408607047000080B543F60040C4F22F
:102AD0000200016841F400710160016841F4806105
:102AE0000160016841F480710160032000F0C2F8C8
:102AF0000F2000F005F800F05DF8002080BD000018
:102B000070B586B0002543F640010195C4F202017C
:102B10000A68044642F040020A60096801A801F010
:102B2000400101910199694600F07EFF049E002E4C
:102B300018BF012600F09EFF4DF68361B040C4F23D
:102B40001B31A0FB01014FF0FF3000EB914142F639
:102B5000FC2041F60002C2F20000C4F2000240F282
:102B6000E733C0E90021C0E902530561856101F046
:102B70002BFC08B106B070BD42F6FC20C2F200008A
:102B800001F0B8FC0028F5D105462B2000F034F800
:102B90000F2C0CD82B202146002200F03FF840F2E9
:102BA000BC30C2F200000460284606B070BD0120AF
:102BB00006B070BD82B0002043F640010190C4F21F
:102BC00002014A6842F480424A604A6802F4804244
:102BD0000192019A00900868002240F0805008603D
:102BE00008680F2100F08050009000986FF00100FD
:102BF00002B000F013B80000002848BF704700F092
:102C00001F01012202FA01F11C2202EAD0004EF259
:102C10000012CEF2000281507047000010B54EF64F
:102C20000C5CCEF2000CDCF80030C3F3022E8EF008
:102C30000704042C28BF0424BEF103034FF0FF3E19
:102C40000EFA04F438BF0023A14399400EFA03F3AF
:102C50009A43114300F1604200F00F03090102F5AD
:102C60006442043B6344002848BF03F10C02117026
:102C700010BD00004EF60C51CEF200010A684FF66E
:102C8000FF031A4060F30A2242F0806040F0FD70BA
:102C9000086070477047000002680020516270476A
:102CA000B0B5D0F800E0DEF82400D1B1DEF828306D
:102CB000B1F1010C00EB13430BD05FFA8CF10EF570
:102CC0008070002450F8045F01348C4203EB1543FC
:102CD000F8D343EA02400EEB8C01C1F80401002056
:102CE000B0BD40EA0240CEF828000020B0BD000090
:102CF000D0F8E00406F0AEBA01EBC102D0F8E0343F
:102D000000EB8200026A184606F010BA01EBC1021D
:102D1000D0F8E03400EB8200D0F86022184606F0CC
:102D20005FBA0000D0F8E00406F096BA10B501F0E2
:102D30000F0E0A464FFA81FC0EEBCE0100EB810329
:102D400003F51571BCF1000F48BF03F1140190F8B1
:102D50009434D209012B4A7081F800E004BF0220AC
:102D600010BD0268012380F894340446104606F032
:102D7000A1FF002084F8940410BD0000037901F045
:102D80000F029A4284BF0120704710B502EBC203C4
:102D900000EB83034FFA81FC8E4603F51571BCF1FD
:102DA000000F48BF03F114014FEADE134B7090F897
:102DB00094344FF0000C012B81F802C00A7004BF5C
:102DC000022010BD0268012380F8943404461046A6
:102DD00007F0FCF8002084F8940410BD01F00F0106
:102DE00001EBC10100EB8100D0F8680270470000E0
:102DF000B0B501F00F0E8C464CB20EEBCE0100EBDD
:102E0000810505F51571002C48BF05F114015FEA35
:102E1000DC156FF3DF224D7081F800E08A600B71E2
:102E200018BFA1F81AE0022B04BF00224A7190F8E3
:102E30009424012A04BF0220B0BD0268012380F857
:102E400094340446104606F061FE002084F8940491
:102E5000B0BD000010B501F00F0E0EEBCE0100EB7F
:102E600081044FF0000CC4F868C284F855C290F891
:102E700006C004F51571C4F86022C4F86432BCF1D0
:102E8000010F84F854E208BFCA610068624607F087
:102E9000E3F8002010BD0000B0B5027901F00F0486
:102EA00094424FF001022CD801EBC10300EB8303E5
:102EB0004FFA81FC03F5157304EBC405C90900EB57
:102EC0008505BCF1000F48BF05F11403597090F857
:102ED00094149A7001291C7004BF0220B0BD0168CF
:102EE000054680F894240846194607F097F82CB94F
:102EF0002868A97905F29C4207F03AF8002285F883
:102F000094241046B0BD000001F00F0C0CEBCC0176
:102F100000EB810101F814CF4FF0000C0B618379B5
:102F2000C1F814C04FF0010CCA60012B81F801C038
:102F300008BFCA6180B500681A4607F08DF8002006
:102F400080BD00002DE9F04F87B005688246284615
:102F500007F0FAF910B107B0BDE8F08FDAF8000019
:102F600007F020FA0028F6D0D5F80808C0F30D21A4
:102F7000DAF80000CAF8D41407F014FA800705D56F
:102F8000DAF80000416901F002014161DAF800005D
:102F900005F50061049107F005FAC006059536D5E0
:102FA000DAF80000816921F0100181612C6A04F0D7
:102FB0000F0000EBC0000AEB8001C4F34340062879
:102FC00001F5157511D002281AD147F6F07014EAF0
:102FD000000615D0E96834090598224607F0E6F99D
:102FE000E86800EB1610E86007E005980AF29C41DB
:102FF000082207F0DBF9C4F30A1468692044686109
:10300000DAF80000816941F010018161059DDAF86C
:10301000000007F0C7F9000340F1EC80DAF8000087
:1030200007F09EF9002800F0E58006460AF29C4071
:103030004FF4306800244FF0000B06901AE000BFF8
:1030400005EB080002218160B80642BF05EB0800CD
:1030500020218160B80442BF05EB08004FF4005105
:1030600081600BF1010B760808F1200804F12404BB
:1030700000F0C080F007F4D0DAF800005FFA8BF9B6
:10308000494607F087F90746C0075FD005EB0800FF
:1030900001218160DAF8000008EB0001036C8A6806
:1030A0009AF80650012D25D1150732D4950600F166
:1030B000998043F20B05C4F65475AB42059D02D3CB
:1030C00012F400422FD10AEB0402D2F874320969DB
:1030D0006FF3DF41A3EB0101C2F8681294BBD2F891
:1030E0006432002B00F08480D2F860020844C2F8F9
:1030F000600227E043F20B05C4F65475FF35AB427E
:1031000017D1059D10040ED4900644BF202088607E
:1031100018E043F20B00C4F65470059D834215D3AA
:1031200012F4004012D04FF40040886038070FD4EA
:1031300038E0059D34B9DAF8641219B90021069A0D
:1031400006F016FF50464946FFF7E0FD380729D53F
:1031500005EB080008218160DAF8000043F20B0259
:10316000056C40448168C4F65472954205D311F44D
:1031700000411CBF4FF400418160504600F062FBEB
:1031800043F20B00C4F654708542059D0AD39AF8A9
:103190000600012806D1DAF80000069A012106F09F
:1031A000E7FE00BFF80642BF05EB08001021816072
:1031B000B8077FF549AF6869000604D504994868E7
:1031C00040F4806048600AEB040090F8571201292F
:1031D0007FF436AF002180F857125046494600F080
:1031E0004DFA2DE720208860059D3807B0D4D9E737
:1031F0000121A4E7DAF80000CDF818A007F0D2F812
:10320000400340F1D1800698006807F0A1F800283B
:1032100000F0CA80064605984FF0010B00F51067D4
:103220000698002500F1140900F29C400190CDE9B8
:10323000029704E0760805F1010500F0B580F0077B
:10324000F8D006985FFA85FA0068514607F090F8C2
:103250000446C00726D0049A05F00F00516B0BFA04
:1032600000F021EA0000506307EB4510C0F808B0F9
:1032700006988079012811D105EBC50009EB800083
:10328000D0E902121144C16045B9006930B906980D
:10329000019A0068012106F06BFE00BF06985146B6
:1032A000FFF72AFD200742BF07EB45100821816088
:1032B000E00642BF07EB451010218160600642BF67
:1032C00007EB451040218160A00715D505982946D8
:1032D00007F008F805EBC50009EB800010F8031FA4
:1032E000012905D1002101700698514600F0C2F96C
:1032F00007EB45100221816020069BD505EBC50038
:1033000009EB8008D8E90410814293D3069A081A81
:103310001468D8F80820904238BF024604EB4510E4
:10332000D0F81819033289B2B1EB920F28D300F507
:10333000106900BFD8E90420824221D9101A069AE8
:10334000D8E902B19779584538BF83461FFA8BF305
:1033500020465246009707F017F9D8F80C00D8F825
:1033600014105844C8F80C0001EB0B00C8F8140006
:10337000D9F818000BF1030180B2B0EB910FD9D24C
:10338000D8E90401DDE9029788424FF0010B3FF6CE
:1033900051AF05F00F00D4F834180BFA00F021EA11
:1033A0000000C4F8340845E7069C206806F0FAFFE0
:1033B000059DB0F1FF3F18DC0499486820F001003A
:1033C000486094F8CC04012807D1002084F8CC048C
:1033D00020460021FFF75EFC02E0204600F016FACE
:1033E0002068416901F000414161206806F0DAFF80
:1033F00000050BD504988068C00702D0204600F075
:1034000049FA2068416901F400614161206806F0D1
:10341000C9FFC0044DD50499486820F001004860F8
:103420002068102106F05EFF2079D0B105F510610B
:103430004FF67F328A600B68013823F400130B606B
:10344000C1F80822D1F8003223F40013C1F8003289
:10345000D1F8003243F00063C1F8003201F12001DD
:10346000E8D1049F8421F869442240F00110F861FA
:10347000E07B00284FF00B0008BF142108BF42F288
:103480002B007B5808BF102218437850B85840F0E2
:103490000B00B850386804F29C4220F4FE6038609B
:1034A0002068A17906F064FD2068416901F480512B
:1034B0004161206806F076FF800416D5206806F08A
:1034C00065FB206806F032FF2568E07100F0CCFA59
:1034D000E2790146284606F0CFFF204600F082F947
:1034E0002068416901F400514161206806F05AFFEB
:1034F000000707D5204600F08DF92068416901F0EA
:1035000008014161206806F04DFF000627D50599A6
:10351000886920F080008861207902281FD304F593
:10352000157804F11405012640F27B2706E000BF60
:1035300020790136864207F1240710D2E05D012888
:10354000F6D106F00F0000EBC0023006206805EB54
:10355000820158BF08EB820106F076FEE8E720689A
:1035600006F020FFC0022CD52079022824D305982C
:1035700004F1140900F5126504F13B064FF001084F
:10358000012706E0207901372035874206F124061D
:1035900012D2286871780129F4D1B0F1FF3FF1DC33
:1035A00007F00F0000EBC001206809EB810186F8ED
:1035B000008006F049FEE5E72068416901F48011CA
:1035C0004161206806F0EEFE800232D52179059D2A
:1035D000022929D305F53260013904F51F72012350
:1035E00005E000BF2030013902F124021CD0076839
:1035F0001678012EF6D1B7F1FF3FF3DCD4F8D4648E
:1036000007F4803706F00106B742EBD102F8013C1F
:10361000AF6947F08007AF616F693F06E2D4049954
:10362000486840F4007048602068416901F4001166
:103630004161206806F0B6FE400007D52046FFF73E
:1036400057FB2068416901F080414161206806F024
:10365000A9FE40077FF57FAC20684568680702D562
:103660002046FFF75FFB206841682943416007B0AF
:10367000BDE8F08FD0F8E00405F052BED0F8E004C9
:1036800005F064BE002804BF01207047B0B582B0C9
:103690000446056890F8950428B9002084F894043D
:1036A000204600F05BF80320B5F1A04F84F89504A4
:1036B00004BF0020A071206806F052FC94E80F00BF
:1036C000257C009506F072FAB8BB2068002106F050
:1036D0008FFE90BB207948B300EBC0008000002132
:1036E0004FF0010C00230022E51824332A75EA85E7
:1036F000984202F1010285F815C02976C5E9071143
:103700006962F1D100210022002300BFA5182432F4
:1037100085F85432904203F1010385F8551285F87B
:103720005812C5E99711C5F86412EFD194E80F005B
:10373000257C009506F01EFB28B1022084F8950434
:10374000012002B0B0BD00206074012084F895040F
:10375000206806F0FFFA002002B0B0BDB0B586B018
:1037600000680024B0F1A04F0594CDE90344029411
:10377000019401D006B0B0BD43F630050094C4F208
:103780000205286801A940F001002860286800F0BF
:103790000100009000984FF4C05001900220CDE944
:1037A0000204032004900A2005900020C4F20200C5
:1037B000FEF794FF6868052140F08000686000947F
:1037C0006869002240F480406861686900F48040C4
:1037D000009000984320FFF721FA4320FFF70CFAEE
:1037E00006B0B0BD10B5C179044621B1022901D09F
:1037F000FDF770FD0121D4F8E00405F02DFED4F8AA
:10380000E004BDE8104005F0DDBD0000D0F8E004A4
:1038100005F008BED0F8E00405F00EBE90F8942440
:10382000012A04BF0220704710B5012280F89424B9
:10383000417402680446104606F00CFE002084F82D
:10384000940410BDD0F8E02400F29C41104605F02D
:1038500019BE000010B5044690F89404012804BF76
:10386000022010BD2068012184F89414C168490623
:1038700006D5617B012903D1816B41F480318163DD
:1038800006F028FD206806F055FA002084F894041C
:1038900010BD000010B50446D0F8E00405F046FE67
:1038A0002068D0F8001E41F00101C0F8001EE07A47
:1038B000002808BF10BD4EF61050CEF2000001687F
:1038C00041F00601016010BD002804BF01207047CF
:1038D0002DE9F04143F60808C4F202080446D8F87E
:1038E000F8030D4600F00700884207D288F8F85325
:1038F000D8F8F80300F00700A84276D120688107C5
:1039000017D5410705D5D8F8001041F4E051C8F8A3
:103910000010010705D5D8F8001041F46041C8F83F
:103920000010D8F80010A26821F0F0011143C8F887
:103930000010C0073FD1D8F8F80300F00700A842F4
:1039400007D988F8F853D8F8F80300F00700A84220
:103950004BD12068410707D5D8F80010E26821F460
:10396000E0511143C8F80010000708D5D8F800004E
:10397000216920F4604040EAC100C8F8000000F06E
:10398000A1F8D8F800104EF28212C1F30311C0F66C
:103990000002515C40F2240220FA01F140F2BC30F6
:1039A000C2F200000068C2F200021160FFF7A8F83E
:1039B0000020BDE8F0816068811E022907D258F816
:1039C000081C89015CBF0120BDE8F08110E00128DE
:1039D00007D158F8081C89035CBF0120BDE8F081BD
:1039E00006E058F8081C890702D40120BDE8F081E0
:1039F000D8F8001021F003010843C8F80000FEF7D2
:103A00003DFF064641F28837D8F80000616800F0B3
:103A10000C00B0EB810F8ED0FEF730FF801BB84258
:103A2000F2D90320BDE8F0810F22026043F60802BC
:103A3000C4F20202136803F003034360136803F047
:103A4000F0038360136803F4E053C360D2F800C04E
:103A50004FF4E05303EADC030361D2F8F80300F00B
:103A6000070008607047000040F22400C2F2000026
:103A70000068704740F2240043F60801C2F20000DB
:103A8000C4F20201006809684EF29212C1F3822169
:103A9000C0F60002515CC8407047000040F22400AC
:103AA00043F60801C2F20000C4F20201006809688E
:103AB0004EF29212C1F34231C0F60002515CC8408E
:103AC0007047000010B543F60404C4F202046068B5
:103AD00000F00C0008280AD0042819BF42F2004068
:103AE000C0F2F40041F60030C0F2B70010BD20680B
:103AF00021682368490241F60031C0F2B70100F0A5
:103B00003F02C3F388105CBF42F20041C0F2F401EF
:103B1000A1FB00010023FCF7DDFB21680222C1F3B9
:103B2000014102EB4101B0FBF1F010BD002804BFE0
:103B3000012070472DE9F04182B00446007843F639
:103B40000006C007C4F2020649D0B06800F00C00BD
:103B5000042809D13068800341D5606800283ED12F
:103B6000012002B0BDE8F081B06800F00C00082828
:103B700002D170684002EDD465683068B5F5A02FB9
:103B800005D0B5F5803F09D140F480300CE040F419
:103B900080203060306840F4803005E020F48030D0
:103BA0003060306820F480203060FEF767FE002D22
:103BB000054611D03068800311D4FEF75FFE401B2C
:103BC0006428F7D928E100BFFEF758FE401B64289F
:103BD0004FF0030000F2E08030688003F4D42078D6
:103BE00080071BD5B06810F00C0F09D0B06800F04A
:103BF0000C00082840F085807068400200F1818048
:103C00003068800703D5E068012840F09A8030686A
:103C1000216920F0F80040EAC100306020780007F8
:103C200034D42078400746D4A5695DB3B06800F06D
:103C30000C00082840F09C80012D00F08280706804
:103C4000E16900F480028A427BD1216A00F03F02E0
:103C50008A4276D147F6C071626A0140B1EB821F99
:103C60006FD1A16A4FF6FF73C903994300F4403244
:103C7000A1F580318A4264D1E16A00F07060B0EB56
:103C8000016F5ED1002002B0BDE8F08160690028BC
:103C90005BD00020C4F247200121C0F8801EFEF74F
:103CA000EDFD0546706F8007BBD4FEF7E7FD401BB6
:103CB0000228F7D9B0E0306C5FEAC0080AD40020CF
:103CC0000190306C40F080503064306C00F08050D7
:103CD0000190019847F20007C4F200073868C00558
:103CE00026D4386840F480703860FEF7C7FD05467A
:103CF0003868C0051CD4FEF7C1FD401B0228F7D967
:103D00008AE0E068002840F20000C4F2472053D067
:103D100001210160FEF7B2FD054600BF3068800753
:103D20003FF575AFFEF7AAFD401B0228F6D973E0F8
:103D3000A568306F052D51D0012D56D140F00100FE
:103D400059E0012002B0BDE8F0810020C4F2472014
:103D50000021C0F8801EFEF791FD0546706F8007B8
:103D60007FF55FAFFEF78AFD401B0228F6D953E0CE
:103D70000027C4F2472700203866FEF77FFD022D9A
:103D800005460DD1306880015DD5FEF777FD401BFB
:103D900002284FF00300F5D902B0BDE8F08100BF62
:103DA000306880017FF56EAFFEF768FD401B02288A
:103DB0004FF00300F4D9EFE700210160FEF75EFD4C
:103DC000054600BF306880077FF528AFFEF756FD37
:103DD000401B02284FF00300F4D9DDE740F0040057
:103DE0003067306F40F0010005E020F001003067DF
:103DF000306F20F004003067FEF740FD002D0546CF
:103E000041F2883713D000BF306F800712D4FEF71D
:103E100035FD401BB842F7D9032002B0BDE8F08160
:103E2000FEF72CFD401BB8424FF00300B4D8306FB2
:103E30008007F5D4B8F1000F3FF5F6AE306C20F0F6
:103E400080503064F0E604F11C052FCD084340EAB1
:103E50008210D9034FF6FF729143A1F5803140EAF9
:103E600005600843706001203866FEF707FD0446D0
:103E7000306880013FF506AFFEF700FD001B022809
:103E80004FF00300F4D987E770B528B1416A29B132
:103E900000210161142106E0012070BD4168B1F5E7
:103EA000827F02D01C21002242500026866290F8B8
:103EB000511029B980F85060054600F03DF82846B9
:103EC000022180F8511090E82E0002F482720C68F2
:103ED00003F4044324F040040C601A4405F4006326
:103EE00005691A4405F0020345691A4405F0010307
:103EF0008569C4691A4405F400731A4404F0380350
:103F0000046A1A4404F08003846A1A4304F40053D8
:103F10001A430A60436A042202EA154203F01003BE
:103F20001A444A60CA6922F40062CA6101214665E6
:103F300080F85110304670BD2DE9F04F87B004462F
:103F400043F200070068C4F201070026B842069653
:103F5000CDE904660396029602D007B0BDE8F08F63
:103F600043F630000196C4F20200416902AD41F40B
:103F700080514161416946F2404801F4805101910C
:103F80000199019601684FF0020941F002010160B8
:103F900001684FF0030A01F00201019101990196B5
:103FA00001684FF0050B41F00101016000682946EE
:103FB00000F00100019001981820029007F554408C
:103FC000C4F20208CDE90396CDF814A0CDF818B0DC
:103FD000FEF784FB8020CDE9020904A880E8400CAC
:103FE00007F550402946FEF779FB42F23C25C2F224
:103FF00000054FF0C0674FF480692846C5E9008787
:10400000C5E90266C5E90496C5E90666C5E908661C
:10401000FEF7D2F9002818BFFDF75CF9E564AC6340
:1040200042F29C2508F11800C2F200054021C5E9C2
:10403000000705F10800002280E806022846C5E9CD
:104040000522C5E907226A62FEF7B6F9002818BF03
:10405000FDF740F9A564AC6307B0BDE8F08F000040
:104060002DE9F04383B01E4615460F460446FEF781
:1040700005FC94F851108146012908D1002F4FF01A
:10408000010018BF002D0ED103B0BDE8F0836068B9
:10409000B0F5827F0DD104294FF00200F4D1A16860
:1040A0000029EBD0F0E7002EEED094F85000012864
:1040B00003D1022003B0BDE8F083012084F8500052
:1040C00094F85100002104281CBF052084F85100F9
:1040D0006165A563E687A6872763E6862068A686CE
:1040E000216461640168490603D4016841F040011C
:1040F00001606168731EE268B1FA81F1B3FA83F37B
:10410000DDF8288049095B09B2F5006F41EA030137
:1041100037D131B137F8021BC1602763E08E013817
:10412000E086012608F10105E08E10B9E08F002835
:104130006CD02068816889070CD5E18E51B1012EC1
:1041400008D1216B002631F8022BC2602163E18E79
:104150000139E1868168C9070AD0E18F41B1C068A1
:10416000A16B012621F8020BA163E08F0138E087E3
:10417000FEF784FB002DD7D0A0EB09004045D3D338
:104180003AE039B139780173206B01302063E08E59
:104190000138E086012608F1010500BFE08E08B96C
:1041A000E08F98B32068816889070DD5E18E59B1F9
:1041B000012E09D1216B002609780173206B013093
:1041C0002063E08E0138E08620688168C9070BD043
:1041D000E18F49B1C068A16B01260870A06B013066
:1041E000A063E08F0138E087FEF748FB002DD5D0B3
:1041F000A0EB09004045D1D3012084F851000020F4
:1042000084F85000032003B0BDE8F083204602216B
:1042100001224346CDF8009004F08AF860B1606D49
:1042200040F02000606520206065002084F8500088
:10423000012003B0BDE8F08340F22400C2F2000088
:10424000006849F68171C1F25E61A0FB0101480D71
:104250004FF47A71484302906068B0F5827F0AD1CA
:104260002046802100224346CDF8009004F060F8FB
:104270000028D4D108E0029830B1029801380290A9
:10428000206880680006F6D4A06838B90020019044
:104290002068C1680191806801900198012084F82C
:1042A0005100002084F85000606D002818BF0120E4
:1042B00003B0BDE8F08300007047000070470000C5
:1042C00090F83C20012A04BF02207047B0B501F1EC
:1042D00008053CCDD1E900CE23F47C5322F4705282
:1042E0001A432EF4F0431A432CF4E0431A4324F407
:1042F000C0431A432A43C96922F480420368114328
:104300005964002180F83C100020B0BD90F83C209A
:10431000012A4FF0020255D010B5012380F83C303D
:1043200080F83D200268D2F804E0D2F808C00C689A
:104330002EF07003234341F2FF74C4F20004A24242
:1043400053600DDC40F2FF73C4F200039A4215DCA7
:10435000B2F1804F29D040F20043C4F2000322E0C2
:1043600040F2FF33C4F201039A4212DC41F600032B
:10437000C4F200039A4218D0002312E040F6000372
:10438000C4F200039A4210D040F60043C4F2000386
:1043900009E044F20003C4F201039A4205D040F25E
:1043A0000043C4F201039A4204D149682CF080030F
:1043B000194391600121002280F83D1080F83C20D3
:1043C000BDE8104010467047002804BF0120704728
:1043D00010B5044690F83D0028B9002084F83C0050
:1043E000204600F01FF8022084F83D002068211DBF
:1043F00004F0A4F8012084F8460084F83E0084F814
:104400003F0084F8400084F8410084F8420084F8BA
:10441000430084F8440084F8450084F83D000020FF
:1044200010BD000080B582B000684FF6FF71C4F285
:104430000001884219DC40F60001C4F20001884204
:104440002CD040F60041C4F2000188424FD1002038
:10445000019043F64000C4F20200016841F00801F7
:104460000160006800F008003FE044F20041C4F23F
:10447000010188422CD00021C4F20101884236D1CA
:104480000020019043F64000C4F20200416841F070
:1044900001014160406800F0010026E00020019029
:1044A00043F64000C4F202000168002241F004011A
:1044B00001600068052100F00400019001981E20B1
:1044C000FEF7ACFB1E2002B0BDE88040FEF794BBB7
:1044D0000020019043F64000C4F20200416841F41C
:1044E00000314160406800F400300190019802B052
:1044F00080BD000090F83D1001291CBF01207047CD
:10450000022180F83D10006841F2FF72C168C4F2D8
:104510000002904241F00101C1600DDC40F2FF71E8
:10452000C4F20001884215DCB0F1804F29D040F27E
:104530000041C4F2000122E040F2FF31C4F2010167
:10454000884212DC41F60001C4F20001884218D012
:10455000002112E040F60001C4F20001884210D0B0
:1045600040F60041C4F2000109E044F20001C4F247
:104570000101884205D040F20041C4F201018842A5
:1045800006D1816801F00701062904BF00207047A9
:10459000016841F0010101600020704790F83C2063
:1045A000012A4FF002026ED080B5012380F83C3022
:1045B00080F83D20D0F800C04FF67772DCF8083064
:1045C00023EA0202CCF808200B684F2B28DC1F2BB3
:1045D00044DD202B45D0302B43D0402B40F0AC8025
:1045E000D1F804E0C968DCF82030DCF8202022F0A3
:1045F0000102CCF82020DCF8182022F0F00242EA78
:10460000011123F00A0242EA0E02CCF81810CCF88D
:104610002020DCF8081041F0470121F0300127E0AC
:104620006F2B32DDB3F5005F73D0B3F5805F21D01F
:10463000702B40F08180D1E901E3C968DCF80820E3
:1046400043EA0E0322F47F4243EA01211143CCF8EE
:104650000810DCF8081041F0770109E00BB1102BCD
:104660006AD1DCF8081021F07001194341F007010C
:10467000CCF808100022012180F83D10002180F8BC
:104680003C10BDE8804010467047502B21D0602B75
:1046900052D1D1F804E0C968DCF82030DCF82020E1
:1046A00022F01002CCF82020DCF8182022F470420E
:1046B00042EA013123F0A00242EA0E12CCF81810AF
:1046C000CCF82020DCF8081041F0670121F010013F
:1046D000CEE7D1F804E0C968DCF82030DCF820200F
:1046E00022F00102CCF82020DCF8182022F0F002A1
:1046F00042EA011123F00A0242EA0E02CCF8181035
:10470000CCF82020DCF8081041F0570121F02001FE
:10471000AEE7D1E901E3C968DCF8082043EA0E03FB
:1047200022F47F4243EA01211143CCF80810DCF85F
:10473000081041F480419BE701229CE7704700008C
:1047400070B504460068C5680669B10716D515F04E
:10475000020113D06FF0020101610121217780690C
:10476000800703D02046FFF7E9FF05E0204600F070
:1047700017F9204600F052FA00202077700718D56C
:1047800015F0040015D020686FF0040101610221CA
:104790002177806910F4407F03D02046FFF7CEFFD9
:1047A00005E0204600F0FCF8204600F037FA002033
:1047B0002077300717D515F0080014D020686FF067
:1047C0000801016104212177C069800703D02046D8
:1047D000FFF7B4FF05E0204600F0E2F8204600F0C5
:1047E0001DFA00202077F00618D515F0100015D01E
:1047F00020686FF01001016108212177C06910F471
:10480000407F03D02046FFF799FF05E0204600F0E7
:10481000C7F8204600F002FA00202077F00718BF02
:1048200015F0010002D1300609D412E020686FF0C3
:1048300001010161204600F0F3F9300609D515F0B9
:10484000800006D020686FF0800101612046FFF7EC
:1048500033FD700609D515F0400006D020686FF0D2
:1048600040010161204600F0E5F9B00658BF70BD77
:1048700015F0200008D021686FF0200220460A6160
:10488000BDE87040FFF71ABD70BD000070B586B07E
:10489000006840F60041C4F2000100248842CDE9DE
:1048A0000444CDE90244019446D044F20041C4F2EC
:1048B0000101884222D00021C4F2010188426DD159
:1048C0000020009043F63000C4F20200016841F07D
:1048D000100101600068012100F0100000900098B4
:1048E0004FF42060019002200290CDE903100020D7
:1048F000C4F20200059100F580504CE0002043F620
:1049000030010090C4F202010A6842F002020A601B
:10491000096801F00201009100994FF48071019142
:104920000221CDE902100490032005900020C4F27A
:10493000020000F580602EE043F630000094C4F2DF
:1049400002000168002641F0800101600168C4F2A4
:10495000020601F08001009100990094016802258F
:1049600041F001010160006801A900F00100009020
:1049700000984FF48060019006F5E050CDE90254B4
:10498000CDE90445FDF7AAFE06213046CDE9011523
:10499000CDE90344059501A9FDF7A0FE06B070BD61
:1049A0007047000090F83C30012B04BF0220704794
:1049B0004FEAB2020123032A80F83C3000F2F8806B
:1049C0002DE9F043DFE802F002AF3D7D036840F2DD
:1049D00000461C6A1A6A24F0020422F001021A62DC
:1049E0001A46D3F804C052F818EF8F6843F4806574
:1049F000C4F20106B54244EA070405D1CF6824F0A9
:104A00000C0427F004073C430F68B54206D1D1E9F6
:104A100005582CF440762E4346EA080C2EF0730617
:104A20003743C3F804C09F614F6809695F631C6224
:104A30009F6947F008079F619F6927F004079F61FE
:104A4000B0E0036840F200481C6A1A6A24F400745B
:104A500022F480721A621A46D3F804C052F81CEF8E
:104A60008F6843F48065C4F20108454544EA072491
:104A700008D1CF6840F2FF463F0224F4406427EAA1
:104A800006063443D1F80090454506D1D1E90556D4
:104A90002CF440572E4347EA061C2EF0730747EAD2
:104AA0000907C3F804C0DF614F680969DF631C624E
:104AB000DF6947F00807DF61DF6927F00407DF617E
:104AC00070E0036840F20045D3F820C01A6A43F44E
:104AD000806722F480521A621A465C6852F81C8F72
:104AE000D1F800E08E68C4F20105AF4204D14D69EF
:104AF00024F4804444EA85142CF4005747EA06372E
:104B000028F4E64646EA0E265C60DE614E680969D6
:104B10001E641F62DF6947F40067DF61DF6927F405
:104B20008067DF613DE0036840F200481C6A1A6A52
:104B300024F0200422F010021A621A46D3F804C0AE
:104B400052F818EF8F6843F48065C4F201084545B8
:104B500044EA071407D1CF686FF0400624F0C00480
:104B600006EA07163443D1F80090454506D1D1E94D
:104B700005562CF440672E4347EA860C2EF4E64790
:104B800047EA0927C3F804C09F614F6809699F631A
:104B90001C629F6947F400679F619F6927F48067E3
:104BA0009F6109021368194300231160BDE8F043B7
:104BB000002180F83C10184670470000002804BF10
:104BC0000120704710B5044690F83D0028B9002038
:104BD00084F83C00204600F01FF8022084F83D00D5
:104BE0002068211D03F0AAFC012084F8460084F807
:104BF0003E0084F83F0084F8400084F8410084F8C7
:104C0000420084F8430084F8440084F8450084F8A6
:104C10003D00002010BD00007047000070470000FC
:104C2000006841F60001C4F20001884218BF7047D5
:104C3000FDF73CBF70470000704700007047000060
:104C4000B0B582B001680A68CC684B6902F02F05E4
:104C5000202D04F0200505D125B102B0BDE8B040FB
:104C600003F0AABD5FEA027C1EBF03F0010E04F44C
:104C7000907313EB0E0340D1036BD50618D5012BAF
:104C800016D114F0100313D0002201920A68019289
:104C90004A680192019A4969490647D4818DC28DBB
:104CA000C38D002B18BF914240F0108102B0B0BDFF
:104CB00013062AD514F0800327D090F84120212A2A
:104CC000F4D18268B2F5805F03D10269002A00F056
:104CD0003081026A531C036212784A60C28C013A26
:104CE0001304C284E2D1C86820F08000C860C8689C
:104CF00040F04000C86002B0B0BDD10718BF14F446
:104D000080715CD1510760D466E05206CED514F0B4
:104D10004002CBD0CA6822F04002CA60202180F84D
:104D2000411002B0BDE8B04000F06EBBC16B0A6834
:104D3000526893B2002BB9D0858DAB42B6D2C285F2
:104D4000C969B1F5807F33D0016851E8031F02685B
:104D500021F4807142E80313002BF5D1016851E87A
:104D6000051F026821F0010142E80513002BF5D16F
:104D7000016851E8051F026821F0400142E805136F
:104D8000002BF5D1202180F842100021016300BFE3
:104D9000016851E8031F026821F0100142E8031383
:104DA000002BF5D1C16B04460846FDF7EFF920460C
:104DB00002214163818DC28D891A89B2AFE0416CB5
:104DC00041F001014164510706D5BEF1000F03D047
:104DD000416C41F002014164910706D5BEF1000F1C
:104DE00003D0416C41F004014164BCF1000F06D5D1
:104DF0005EEA050103D0416C41F008014164416C59
:104E000000293FF453AF910604D51DB1044603F0C9
:104E1000D3FC204601684969426C01F0400102F070
:104E2000080289184BD000BF016851E8031F0268CF
:104E300021F4907142E80313002BF5D1016851E889
:104E4000051F026821F0010142E80513002BF5D18E
:104E5000016B01290AD100BF016851E8031F0268F4
:104E600021F0100142E80313002BF5D1202180F836
:104E700042100021016301684969490654D500BF09
:104E8000016851E8051F026821F0400142E805135E
:104E9000002BF5D1C16B002946D048F27162C0F6F3
:104EA0000002044608460A65FDF7B0F900283FF401
:104EB000FDAEE06B016D02B0BDE8B04008470446AE
:104EC000FFF7BCFE0020606402B0B0BD891A00BFCD
:104ED000026852E8032F036822F4907243E8032526
:104EE000002DF5D1026852E8052F036822F0010277
:104EF00043E80525002DF5D1202280F8422000222C
:104F0000026300BF026852E8032F036822F0100218
:104F100043E80325002DF5D1022289B2426302B095
:104F2000BDE8B040FFF788BE02B0BDE8B040FFF773
:104F300085BE026A32F8023B6FF35F234B60026268
:104F4000CCE60000002804BF0120704710B50446DD
:104F500090F8410028B9002084F84000204600F075
:104F600021F8242084F841002068C16821F4005110
:104F7000C160204603F080FC2068016921F4904163
:104F80000161416921F02A014161C16841F4005188
:104F9000C16000202021606484F8411084F8421030
:104FA000606310BD2DE9F04F87B00446006844F6F9
:104FB0000001C4F2000100268842CDE90566CDE972
:104FC0000366029600F0FC8041F20041C4F2010148
:104FD000884200F0898041F20001C4F20101884258
:104FE00040F04681002743F630000197C4F20200EA
:104FF0004169002541F0100141614169C4F2020597
:1050000001F01001019101990197016802AE41F090
:1050100002010160016846F2280801F002010191D5
:105020000199019701684FF0020941F00101016007
:1050300000684FF0030A00F0010001900198802001
:1050400002904FF0070B05F580603146C4F202086C
:10505000CDE90397CDF814A0CDF818B0FDF73EFBCD
:105060004FF40070CDE9020904A880E8800C2846BE
:105070003146FDF733FB42F2FC2508F58C60C2F2A5
:1050800000054FF0006B4FF4806A4FF48079C5E95A
:10509000000B4FF400362846C5E90277C5E904A79E
:1050A000C5E90679C5E90867FDF786F9002818BF44
:1050B000FCF710F9E563AC6342F25C3508F59260E9
:1050C000C2F200054021C5E9000B05F1080080E8A7
:1050D00082042846C5E90577C5F81C90C5E908672C
:1050E000FDF76AF9252664E043F630000196C4F224
:1050F0000200416946F2280841F0200141614169FE
:10510000C4F2020801F020010191019901960168A1
:1051100041F040010160006802A900F040000190E8
:1051200001984FF4844002900220CDE90306032049
:105130000590082006900020C4F2020000F5C0503F
:10514000FDF7CCFA42F21C4508F58060C2F200057A
:105150004FF0206A4FF480694FF48071C5E9000A6E
:105160004FF440372846C5E90266C5E90496C5E90B
:105170000661C5E90876FDF71FF9002818BFFCF79E
:10518000A9F8E563AC6342F27C4508F58F60C2F292
:1051900000054021C5E9000A05F1080080E8420247
:1051A0002846C5E90566EE61C5E90876FDF704F90C
:1051B000472600284FF0380750D0FCF78BF84DE019
:1051C00043F630000196C4F20200016941F48021E7
:1051D0000161016901F48021019101990196016841
:1051E00041F004010160006802A900F00400019090
:1051F00001984FF4406002900220CDE9030603209D
:105200000590072006900020C4F2020000F500601F
:10521000FDF764FA42F2BC3546F22800C2F20005FE
:10522000C4F202004FF0006185E843004FF44030C3
:105230004FF480624FF48073C5E908062846C5E93B
:105240000362C5E90566EB61FDF7B6F800284FF08B
:1052500027064FF03C0718BFFCF73CF83046052105
:105260000022E551AC63FDF7D9FC3046FDF7C4FCE4
:1052700007B0BDE8F08F0000B0B582B090F84240B2
:10528000202C51D113460A4600294FF0010118BFC6
:10529000002B4AD000252221056382628385456464
:1052A00080F84210D0F83CC048F2217E48F2A17448
:1052B000C0F6000EC0F600040168CCE90FE448F225
:1052C0007D64C0F60004CCE9134504310446604611
:1052D000FDF712F90195216820460A680192496894
:1052E00001910199216949B1016851E8031F0268E0
:1052F00041F4807142E80313002BF5D1016851E8B5
:10530000051F026841F0010142E80513002BF5D1A9
:10531000016851E8051F026841F0400142E80513A9
:10532000002BF5D1002100E00221084602B0B0BDFB
:1053300090F84230202B07D100294FF0010318BF0D
:10534000002A04D1184670470223184670470023EC
:105350000363816222218285C285436480F8421002
:10536000016921B10168CA6842F48072CA600068AC
:10537000416941F001014161C16841F02001C16012
:1053800018467047B0B588B142F6AC41C2F2000190
:105390000A785AB142F6D464C2F2000421680B685C
:1053A000834204D0013A04F10404F7D1B0BDD1F82E
:1053B0000B227AB105460846904721682846B1F885
:1053C00009224FF6FF75013293B25B1B18BF1346DB
:1053D000A1F80932226892F8081202290AD001299C
:1053E00018BFB0BD02F58271B2F80422BDE8B0402A
:1053F000FFF79EBF02F58271B2F80422BDE8B0400B
:10540000FFF73ABF7047000070470000FEE700005A
:105410008AB0072005F0DEFDFBF794F908B164209F
:10542000F8E741F69468C2F2000808F1140008F1A8
:10543000040108F110020490CDE90221FBF79AF96A
:1054400042F6F840C2F2000090ED016A90ED027A57
:10545000D0ED030A40F2F410C2F20000A0F10803FC
:1054600040F21820C2F20000A0F1080240F2001041
:1054700098ED010A98ED021A98ED032A98ED053A85
:1054800098ED064A98ED075AC2F2000040F22C56F9
:1054900041F65C6940F2145B42F6085740F2385519
:1054A000A0F108010020C2F20006C2F20009C2F217
:1054B000000BC2F20007C2F200050DF1140C8CE8DB
:1054C0000E0000BFD3ED031AD3ED022AD3ED043A48
:1054D00064EE211A63EE222A72EEA11A65EE232AE7
:1054E00072EEA11A3418C4ED001AD1ED031AD1EDF1
:1054F000022AD1ED043A61EE211A60EE222A09EB6C
:10550000000472EEA11A62EE232AD4ED003A72EE84
:10551000A11A73EEA11A0BEB0004C4ED001AD2ED30
:10552000031AD2ED022AD2ED043A67EE211A66EE92
:10553000222A3C1872EEA11A60EEA32AD4ED003A9A
:1055400072EEA11A2C18043073EEA11A0C330C3130
:105550000C320C28C4ED001AB4D142F6B4409FEDD1
:105560009F0ADFED9F0A9FED9F1ADFED9F1A9FEDC7
:105570009F2AC2F2000001F0D1FB40F2445AC2F26D
:10558000000A4FF07E500021CAE900010020CAE95C
:10559000021105F05DFD07F067FA40F25851C2F2C2
:1055A0000001086042F61420C2F200001021C1611F
:1055B000FEF76AFC002818BFFBF78CFE40F2EC10E7
:1055C00041F60571C2F20000C2F20001082202F0A9
:1055D00035FE42F6AF40C2F20000012141F6706391
:1055E0000170C2F2000345F63910CBF68A204CF662
:1055F0009E714EF68E021433C3F6BD21C3F63912E6
:1056000007C341F66860C2F200000230019041F623
:105610003860C2F200009FED769A9FED76AA9FED6A
:1056200076BA9FED76DA9FED76EA9FED768A0230C4
:10563000BFEE00CA0090002008902EE094ED000A12
:1056400094ED011A94ED022A20EE0D0A80EE0E0A66
:1056500021EE0D1A22EE0D2A81EE0E1A82EE0E2A8E
:1056600092ED003A40F20851C2F2000133EE000A16
:1056700030EE0D0A81ED000A31EE0D1A32EE0D2AE0
:1056800081ED011A81ED022A40F25451C2F200016B
:10569000086009A8012106F0E5FB07F051FB09901D
:1056A00001204FF0FF3106F0A3F90128F8D142F6AE
:1056B000AE41C2F200010878097880F001000029AB
:1056C000089951FA80F10BD188B2B0F5FA7F07D969
:1056D00042F6AE410120C2F2000108704FF42F7172
:1056E00041F60D700891C2F20000007840072BD5FA
:1056F00041F60D71C2F20001087800F0FB0008705D
:1057000041F60570C2F2000004990130FAF7F2FF89
:1057100041F67060C2F2000090ED050A90ED061AA5
:1057200090ED072A98ED053A98ED064A98ED075A4C
:1057300033EE400A34EE411A35EE422A88ED050A6E
:1057400088ED061A88ED072A41F66D60C2F2000066
:10575000007840070DD541F66D61C2F2000108786E
:1057600008F1200200F0FB00087000980399FAF796
:105770007FFF41F66C60C2F200000078400765D5FB
:1057800041F66C61C2F20001087800F0FB0008707D
:10579000DDE90101FBF7BEF841F6FF60C2F200004F
:1057A000007898ED040A01282ED142F6B444C2F2E2
:1057B00000042046F0EE480A01F050FA94ED0C0A7D
:1057C000B5EE400AF1EE10FABCBF0020206394ED64
:1057D0000C0ABDEEC00A10EE100A35E00000C84405
:1057E000CDCC4C3E0000000000A08C4500808945D7
:1057F0005D896EBF5AF8F63FD5A9183B00003443C7
:10580000DA0F494000003442B4EE480AF1EE10FAD3
:1058100018DD42F6B042C2F2000210780130C1B287
:10582000C92910700ED341F6FF610120C2F20001B8
:10583000087042F6B44044F20001C2F20000C4F223
:105840001C51816241F2873005F098FB42F6F84026
:10585000C2F2000005AB98ED010A98ED021A98ED2E
:10586000032A98ED053A98ED064A98ED075A90ED0F
:10587000016A90ED027AD0ED030A0ECB002000BF42
:10588000D3ED031AD3ED022AD3ED043A64EE211AC4
:1058900063EE222A72EEA11A65EE232A72EEA11A95
:1058A0003418C4ED001AD1ED031AD1ED022AD1ED5E
:1058B000043A61EE211A60EE222A09EB000472EE2E
:1058C000A11A62EE232AD4ED003A72EEA11A73EE09
:1058D000A11A0BEB0004C4ED001AD2ED031AD2EDAD
:1058E000022AD2ED043A67EE211A66EE222A3C180B
:1058F00072EEA11A60EEA32AD4ED003A72EEA11A5C
:105900002C18043073EEA11A0C330C310C320C2815
:10591000C4ED001AB4D141F6506141F64460C2F2C0
:105920000001C2F2000091ED000A90ED001A80ED36
:10593000000A21EE091A20EE0A0A30EE010A9BED58
:10594000001A41F6486021EE0B1A71EE001AC1ED03
:10595000001A41F65461C2F20001C2F2000091ED5A
:10596000000A90ED001A9BED012A80ED000A21EE5D
:10597000091A20EE0A0A30EE010A22EE0B1A31EE65
:10598000002A81ED002A41F6586141F64C60C2F2CE
:105990000001C2F2000091ED000A90ED001A9BEDAB
:1059A000023A80ED000A21EE091A20EE0A0A30EED2
:1059B000010A23EE0B1A71EE002A96EC030A5046F8
:1059C000C1ED002A00F0EEFC9AED001A9AED012AD2
:1059D0009AED020A9AED033A22EE000A21EE033A0A
:1059E00022EE022A21EE011A31EE021A33EE000AEB
:1059F00031EE011A30EE000A71EE0C0A07F08EFC4F
:105A000040F22054C2F2000484ED000A9AED000A2C
:105A10009AED011A9AED022A9AED033A22EE000A53
:105A200021EE031A30EE410A30EE000A07F0E0FBE7
:105A300084ED010A9AED001A9AED020A9AED032A02
:105A40009AED013A20EE020A21EE033A22EE022AF2
:105A500021EE011A31EE021A33EE000A31EE011A7C
:105A600030EE000A71EE0C0A07F058FC84ED020AD1
:105A7000FCF704FF40F25451C2F20001096847F2FA
:105A8000C4220029C2F200023FF4D8AD40F2C43370
:105A9000C2F20003411A93ED000A01EE101AB8EEAB
:105AA000C11A92ED002A20EE010A30EE020A82EDC0
:105AB000000AC3E510B542F2EC1046F20041C2F212
:105AC0000000C4F20001002403220023C0F20114EC
:105AD00080E80E0000F10C014FF4102C4FF4001E72
