:020000040800F2
:10000000C05A002095020008D573000861660008F8
:10001000E56E00081D070008D59C000800000000E0
:1000200000000000000000000000000081810008C6
:100030006D17000800000000E1770008B581000896
:10004000AF020008AF020008AF020008AF020008CC
:10005000AF020008AF020008711700087D17000802
:10006000AF0200088917000895170008AF020008C2
:10007000B5150008AF020008AF020008AF02000883
:10008000AF020008AF020008AF020008AF0200088C
:1000900021070008AF020008AF020008A1170008FE
:1000A000AF020008C1820008AF020008AF020008DA
:1000B000AF020008AF020008DD820008AF020008AE
:1000C000AF020008AF020008AF020008AF0200084C
:1000D000AF020008A18D0008AF020008B18D000832
:1000E000AF020008AF020008AF020008AF0200082C
:1000F000FD820008AF020008AF020008AF0200084E
:10010000AF020008AF020008AF020008AF0200080B
:10011000AF020008AF020008ED820008AF0200083D
:10012000AF020008C5150008D5150008E515000840
:10013000AF020008AF020008AF020008AF020008DB
:10014000AF02000831070008AF020008457400083C
:10015000F51500080516000815160008C18D0008E1
:10016000AF020008AF020008AF020008AF020008AB
:10017000AF020008AF020008AF0200080000000054
:10018000AF020008AF02000800F002F800F072F8B9
:1001900014A696E8000CB244B344DA4501D100F04D
:1001A00069F8BAE80F000FA696E83000A5EB040541
:1001B00004EB0607AAEB0704A7F101074FEA1515A0
:1001C0004FEA3414A4F10104AC4201D300F052F818
:1001D00013F0010F18BFFB1A43F0010300F001F800
:1001E000DBE71847A0D20000C0D200000A444FF05D
:1001F000000C10F8013B13F0070408BF10F8014B86
:100200001D1108BF10F8015B641E05D010F8016BCA
:10021000641E01F8016BF9D113F0080F1EBF10F82E
:10022000014BAD1C0C1B09D16D1E58BF01F801CB51
:10023000FAD505E014F8016B01F8016B6D1EF9D5D4
:100240009142D6D37047000070470000002300247D
:1002500000250026103A28BF78C1FBD8520728BFD6
:1002600030C148BF0B6070471FB50CF0AAFD1FBD21
:1002700010B510BD00F07DF91146FFF7F5FF0AF04B
:10028000BFF800F09BF903B4FFF7F2FF03BC00F0E6
:100290009FF900000948804709480047FEE7FEE74C
:1002A000FEE7FEE7FEE7FEE7FEE7FEE7FEE7FEE726
:1002B00004480549054A064B70470000AD82000816
:1002C00089010008C0540020C05A0020C0560020F8
:1002D000C056002053EA020C00F069802DE9F04B73
:1002E0004FF00006002B1FBFB3FA83F503FA05F4A5
:1002F00024FA05F65E4012BF1643B2FA82F502FAFE
:1003000005F4C5F120051EBF22FA05FC44EA0C04E1
:10031000203556EA044C4FEA144418BF641C4FF0D1
:1003200000084FF00009904271EB030C39D300290B
:1003300019BFB1FA81F701FA07F6B0FA80F700FAAF
:1003400007F6C7F120071EBF20FA07FC46EA0C0695
:100350002037B6FBF4FCA7EB0507103F07F01F0B97
:10036000CBF120062CFA06F60CFA0BFB44BFB34681
:100370000026202FA4BF5E464FF0000B5BEA060C60
:1003800008BF4FF0010B19EB0B0948EB0608ABFB5C
:10039000027C06FB02CC0BFB03CCC01B71EB0C01F7
:1003A000C1E70B46024641464846BDE8F08B13B50F
:1003B000084318BF4FF0FF300146AFF30080BDE89F
:1003C0001C407047032A40F2308010F0030C00F00C
:1003D000158011F8013BBCF1020F624498BF11F87F
:1003E00001CB00F8013B38BF11F8013BA2F1040238
:1003F00098BF00F801CB38BF00F8013B11F00303B0
:1004000000F07C80083AC0F0088051F8043B083ABC
:1004100051F804CBA0E80810F5E7121D5CBF51F8B5
:10042000043B40F8043BAFF30080D20724BF11F82F
:10043000013B11F801CB48BF11F8012B24BF00F894
:10044000013B00F801CB48BF00F8012B70474FF08B
:1004500000020429C0F0128010F0030C00F01B8091
:10046000CCF1040CBCF1020F18BF00F8012BA8BF9F
:1004700020F8022BA1EB0C0100F00DB85FEAC17C63
:1004800024BF00F8012B00F8012B48BF00F8012B16
:1004900070474FF0000200B5134694469646203947
:1004A00022BFA0E80C50A0E80C50B1F12001BFF42D
:1004B000F7AF090728BFA0E80C5048BF0CC05DF893
:1004C00004EB890028BF40F8042B08BF704748BFE1
:1004D00020F8022B11F0804F18BF00F8012B704755
:1004E00070477047704710B500F03EF8006810BDC7
:1004F00010B5044600F038F8046010BD10B5203A7D
:10050000C0F00B80B1E81850A0E81850B1E81850BE
:10051000A0E81850203ABFF4F5AF5FEA027C24BF90
:10052000B1E81850A0E8185044BF18C918C0BDE879
:1005300010405FEA827C24BF51F8043B40F8043B42
:1005400008BF7047D20728BF31F8023B48BF11F8F7
:10055000012B28BF20F8023B48BF00F8012B704751
:100560000048704710040020004870471004002025
:1005700070477546FFF7F4FFAE46050069465346DF
:1005800020F00700854618B020B5FFF791FEBDE8C2
:1005900020404FF000064FF000074FF000084FF0EA
:1005A000000BAC46ACE8C009ACE8C009ACE8C00937
:1005B000ACE8C00921F007018D46704710B504462C
:1005C000AFF300802046BDE81040FFF75CBE00009E
:1005D00001491820ABBEFEE72600020080B592B0AC
:1005E0001190119801F0E6F88DED100A1198406A0B
:1005F00080F000400CF074FB41EC100B8DED040B0F
:1006000010980CF06DFB41EC100B0BF0EDF98DED3B
:10061000020B1198806A0CF063FB41EC100B8DED1E
:10062000000B10980CF05CFB41EC100B0BF040FA47
:100630009DED001B51EC110B53EC102B0CF058F9F5
:100640009DED021B9DED040B41EC120B8DED062B75
:1006500053EC112B51EC100B0CF04AF99DED060BED
:1006600041EC110B51EC110B53EC102B0CF04AFA2E
:1006700041EC100B51EC100B0BF0AAFE11998861A4
:100680001198406A0CF02CFB41EC100B8DED0A0B1D
:1006900010980CF025FB41EC100B0BF009FA8DEDD6
:1006A0000C0B1198806A0CF01BFB41EC100B8DEDCC
:1006B000080B10980CF014FB41EC100B0BF094F9A4
:1006C0009DED081B51EC110B53EC102B0CF010F9A5
:1006D0009DED0A1B9DED0C0B41EC120B8DED0E2BCD
:1006E00051EC110B53EC102B0CF002F99DED0E0B9D
:1006F00041EC110B51EC110B53EC102B0CF002FAE6
:1007000041EC100B51EC100B0BF062FE1199C8611B
:100710001199C86A086212B080BD0000FFE7FEE7C9
:1007200080B540F6D810C2F2000001F097FB80BD02
:1007300080B540F60020C2F2000001F08FFB80BDC2
:1007400082B08DF803009DF80300012806D1FFE771
:1007500040F6D810C2F2000001900DE09DF80300B1
:10076000022806D1FFE740F60020C2F20000019007
:1007700002E000200190FFE7019802B070470000FE
:1007800080B590B00E9040F6C410C2F20000007820
:10079000B0FA80F0400908900E98406840F6D811F1
:1007A000C2F20001884209D1FFE740F2BC42C2F226
:1007B00000021078411C1170039008E040F2000222
:1007C000C2F200021078411C11700390FFE70398F9
:1007D000099001200A9000210B910E210D910E9994
:1007E000498D490105910C900E98406804A901F0CB
:1007F000F5F8E8B1FFE70E9800684CF6D672C0F63F
:10080000000269464A6008604DF23631C0F60001C8
:100810004CF6DB72C0F600024CF6CD73C0F6000356
:100820000020029007F0C8FA02988DF83F000CE013
:1008300040F6C411C2F200010878B0FA80F0400915
:10084000087001208DF83F00FFE79DF83F0010B0D1
:1008500080BD000080B596B0012014900021129157
:1008600013900C910D910E910F9111911091109088
:10087000FFE740F6D810C2F200000CA901F0AEF874
:10088000B0B1FFE74CF6D670C0F6000069460860CC
:100890004DF2E421C0F600014CF6DB72C0F6000216
:1008A0004CF6CD73C0F60003002007F085FAE0E7B0
:1008B00001210A910020089009910690069102906A
:1008C0000390049005900E2007900B90FFE740F6F0
:1008D0000020C2F2000002A901F080F8B0B1FFE7E9
:1008E0004CF6D670C0F60000694608604DF20D3136
:1008F000C0F600014CF6DB72C0F600024CF6CD7378
:10090000C0F60003002007F057FAE0E716B080BDFC
:1009100080B586B0FFF79EFF4CF6D670C0F600009B
:100920000290694608604DF22741C0F600014CF67E
:10093000E372C0F6000203924CF6D073C0F60003D7
:1009400004930020059007F037FA00F049FA029965
:100950000598039A049BEC46CCF800104DF2DF3169
:10096000C0F6000107F028FA0299039A049B059843
:1009700040F2014CC2F2000C8CF80000EC46CCF8BE
:1009800000104DF20741C0F6000107F015FA06B05D
:1009900080BD000080B58CB00A900A9800F076F80F
:1009A00018B9FFE700200B906CE040F20140C2F262
:1009B00000000078C00718B1FFE7FFF7A9FFFFE7C5
:1009C0003D200AF03BF909900998E0B9FFE70A9841
:1009D00000684CF6D672C0F6000269464A600860AC
:1009E0004DF25341C0F600014CF6DB72C0F6000236
:1009F0004CF6CD73C0F600030020029007F0DCF93E
:100A000002980B903EE009983D21FFF720FD0A98DF
:100A10000068099908600A980079FFF791FE099922
:100A200048600A98B0F805000999088409980830C8
:100A30000A99B1F8051003910021049105910691DE
:100A4000082207928DF8201003A91822FFF7BAFC9C
:100A50000A98B0F80700099948850A98D0F8090063
:100A60000999C1F835000A98D0F80D000999C1F824
:100A700039000998FFF784FE099800F03FF90998BA
:100A80000B90FFE70B980CB080BD000080B58CB0D8
:100A90000A900A98D0B9FFE74CF6D670C0F600006D
:100AA000694608604DF22E01C0F600014CF6DB727B
:100AB000C0F600024CF6CD73C0F60003002008908B
:100AC00007F07AF908988DF82F0013E10A9800686A
:100AD000A0B1FFE70A98B0F8070078B1FFE70A98DD
:100AE000B0F8050050B1FFE70A98007901281FD03F
:100AF000FFE70A98007902281AD0FFE74CF6D67073
:100B0000C0F60000694608604DF2F211C0F600011F
:100B10004CF6DB72C0F600024CF6CD73C0F6000353
:100B20000020079007F048F907988DF82F00E1E0C2
:100B30000A98007901286AD1FFE740F6C510C2F291
:100B40000000007808281DD1FFE70A9800684CF6DD
:100B5000D672C0F6000269464A6008604DF238114C
:100B6000C0F600014CF6DB72C0F600024CF6CD7305
:100B7000C0F600030020069007F01EF906988DF8D5
:100B80002F00B7E000208DF82700FFE79DF8270031
:100B900040F6C511C2F200010978884236DAFFE753
:100BA0009DF8271040F68410C2F2000050F8210092
:100BB000408D0A99B1F80710884220D1FFE70A99C1
:100BC0000868B1F807204CF6D673C0F600036946F2
:100BD0008B604A6008604DF25D31C0F600014CF652
:100BE000DB72C0F600024CF6CD73C0F600030020A5
:100BF000059007F0E1F805988DF82F007AE0FFE7FF
:100C00009DF8270001308DF82700BFE7FFE70A981D
:100C1000007902286AD1FFE740F6C610C2F2000050
:100C2000007808281DD1FFE70A9800684CF6D672B4
:100C3000C0F6000269464A6008604DF27811C0F6BD
:100C400000014CF6DB72C0F600024CF6CD73C0F624
:100C500000030020049007F0AFF804988DF82F00EF
:100C600048E000208DF82600FFE79DF8260040F6BA
:100C7000C611C2F200010978884236DAFFE79DF812
:100C8000261040F6A410C2F2000050F82100408D5A
:100C90000A99B1F80710884220D1FFE70A9908683D
:100CA000B1F807204CF6D673C0F6000369468B6096
:100CB0004A6008604DF29E31C0F600014CF6DB72CE
:100CC000C0F600024CF6CD73C0F60003002003907E
:100CD00007F072F803988DF82F000BE0FFE79DF8FE
:100CE000260001308DF82600BFE7FFE701208DF8D0
:100CF0002F00FFE79DF82F000CB080BD80B586B0B7
:100D000005900598406840F6D811C2F2000188426B
:100D10002DD1FFE7059840F6C511C2F200010B780E
:100D200040F68412C2F2000242F823000878013033
:100D30000870059908680A8C4B8D4CF6D67CC0F675
:100D4000000C6946C1F80CC08B604A6008604DF227
:100D50005E01C0F600014CF6E372C0F600024CF6EC
:100D6000D073C0F60003002007F026F8FFE70598CF
:100D7000406840F60021C2F2000188422DD1FFE711
:100D8000059840F6C611C2F200010B7840F6A41295
:100D9000C2F2000242F82300087801300870059979
:100DA00008680A8C4B8D4CF6D67CC0F6000C694660
:100DB000C1F80CC08B604A6008604DF2A401C0F617
:100DC00000014CF6E372C0F600024CF6D073C0F698
:100DD0000003002006F0F0FFFFE706B080BD000032
:100DE00080B582B0FFE740F6D810C2F2000001F0F3
:100DF000B5FCB0B1FFE74CF6D670C0F6000069460E
:100E000008604DF2B811C0F600014CF6DB72C0F676
:100E100000024CF6CD73C0F60003002006F0CCFFB4
:100E2000E1E7FFE740F60020C2F2000001F096FC87
:100E3000B0B1FFE74CF6D670C0F600006946086016
:100E40004DF2D511C0F600014CF6DB72C0F600027F
:100E50004CF6CD73C0F60003002006F0ADFFE1E7CD
:100E6000FFE740F6D810C2F20000022100F0E0FCDB
:100E7000B0B1FFE74CF6D670C0F6000069460860D6
:100E80004DF22821C0F600014CF6DB72C0F60002DC
:100E90004CF6CD73C0F60003002006F08DFFE0E7AE
:100EA000FFE740F60020C2F20000022100F0C0FC83
:100EB000B0B1FFE74CF6D670C0F600006946086096
:100EC0004DF25721C0F600014CF6DB72C0F600026D
:100ED0004CF6CD73C0F60003002006F06DFFE0E78E
:100EE000FFE740F6D810C2F20000102100F0A0FC8D
:100EF000B0B1FFE74CF6D670C0F600006946086056
:100F00004DF28621C0F600014CF6DB72C0F60002FD
:100F10004CF6CD73C0F60003002006F04DFFE0E76D
:100F2000FFE740F60020C2F20000102100F080FC34
:100F3000B0B1FFE74CF6D670C0F600006946086015
:100F40004DF2B521C0F600014CF6DB72C0F600028E
:100F50004CF6CD73C0F60003002006F02DFFE0E74D
:100F600002B080BD80B584B00290FFE7029840686F
:100F700000F03CFF60B9FFE79DF8070001308DF8F5
:100F800007009DF80700652801DBFFE700E0EDE7BB
:100F9000029A506802F108012232012300F072FC2B
:100FA00020B9FFE701208DF80F0003E000208DF845
:100FB0000F00FFE79DF80F0004B080BD80B582B040
:100FC00001900198FFF70AFB019800F045F8002016
:100FD0008DF80300FFE79DF80300032811DCFFE70D
:100FE00001989DF8031000EB8101486B91ED150A03
:100FF00005F07AFFFFE79DF8030001308DF803004C
:10100000E9E70198406B06F0BDF9019800780228E5
:101010001FD1FFE704208DF80200FFE79DF80200D2
:10102000072811DCFFE701989DF8021000EB810111
:10103000486B91ED150A05F057FFFFE79DF8020098
:1010400001308DF80200E9E70198406C06F09AF94A
:10105000FFE7012002B080BD82B0019001980078C6
:101060000146009120B1FFE7009801287DD0F7E00C
:10107000019890ED011A90ED023A90ED060A90ED7C
:10108000072A9FED7B6A22EE062A9FED7A7A20EEF0
:10109000070A30EE022A90ED080A20EE030A30EE2D
:1010A000020AB3EE0E3A20EE030A9FED702A21EEFB
:1010B000021A80EE010A80ED150A019890ED011ADE
:1010C00090ED025A90ED060A90ED074A24EE074A89
:1010D00020EE070A30EE044A90ED080A20EE050AD9
:1010E00030EE040A20EE030A21EE021A80EE010A15
:1010F00080ED160A019890ED011A90ED025A90EDDC
:10110000060A90ED074A24EE074A20EE060A30EE62
:10111000044A90ED080A20EE050A30EE040A20EE9B
:10112000030A21EE021A80EE010A80ED170A0198E7
:1011300090ED011A90ED025A90ED060A90ED074AE3
:1011400024EE064A20EE060A30EE044A90ED080A24
:1011500020EE050A30EE040A20EE030A21EE021A00
:1011600080EE010A80ED180A7BE0019890ED031AE9
:1011700090ED043A90ED054A90ED062A90ED070AAD
:1011800030EE422A90ED080A33EE043A20EE030ACC
:1011900030EE020A9FED343A20EE030A9FED332A27
:1011A00021EE021A80EE010A80ED150A019890EDF9
:1011B000031A90ED045A90ED056A90ED060AB1EE1F
:1011C000400A90ED074A30EE444A90ED080A35EEA9
:1011D000065A20EE050A30EE040A20EE030A21EE3C
:1011E000021A80EE010A80ED160A019890ED031AAA
:1011F00090ED045A90ED056A90ED060A90ED074ACD
:1012000030EE444A90ED080A35EE065A20EE050A03
:1012100030EE040A20EE030A21EE021A80EE010AE3
:1012200080ED170A019890ED031A90ED045A90EDA5
:10123000056A90ED060A90ED074A30EE044A90EDFB
:10124000080A35EE065A20EE050A30EE040A20EEB2
:10125000030A21EE021A80EE010A80ED180A00E06E
:10126000FFE702B0704700BF00007042C3F548407E
:10127000F4FD343FF4FD34BF80B584B003908DF8A5
:101280000B109DF80B0001460191032827D8019906
:10129000DFE801F01202161D0398016B009100F0C7
:1012A00089FA0098F0EE400A9FED0E0A06F0CCFA9B
:1012B000039880ED0B0A13E003990020C8620FE049
:1012C00003994CF28F20C3F6B570C86208E0039909
:1012D00000204862039988620399C86200E0FFE732
:1012E00004B080BD0000000080B540F2F030C2F2D2
:1012F0000000FFF74FFB40F68011C2F200010860CA
:1013000040F20400C2F2000000F006F840F2C041D2
:10131000C2F20001086080BD80B586B004907C20D8
:10132000009009F08BFC009903900398FFF7B1F847
:1013300004980078039908700498D0F8E40303999E
:101340004867049800F5697006F038FC0399086353
:101350000399049AD2F8D003D2F8D4238A60486063
:101360000399049BD3F8D803D3F8DC23D3F8E033F4
:101370004B610A61C86000200290FFE702980328D1
:1013800012DCFFE7049A0298742100FB012004306C
:1013900005F080FF0399029A01EB82014863FFE7A1
:1013A000029801300290E9E70398007802281AD1E8
:1013B000FFE704200190FFE70198072812DCFFE710
:1013C000049A0198742100FB0120043005F062FFAB
:1013D0000399019A01EB82014863FFE7019801300C
:1013E0000190E9E7FFE7039828B1FFE7049800F0D0
:1013F0000FF830B9FFE7039809F050FE0020059080
:1014000002E003980590FFE7059806B080BD000054
:1014100082B000900098007868B9FFE7009890EDDE
:10142000F50AB5EE400AF1EE10FA04D1FFE700200C
:101430008DF8070023E000980078012805D0FFE729
:1014400000980078022816D1FFE7009890EDF70A7F
:10145000B5EE400AF1EE10FA09D0FFE7009890EDE2
:10146000F80AB5EE400AF1EE10FA04D1FFE70020C9
:101470008DF8070003E001208DF80700FFE79DF8D5
:10148000070002B07047000080B582B0FFF72CFF64
:1014900040F68010C2F2000001900068FFF762FD84
:1014A0000198006808F09AFF40F2C040C2F20000C4
:1014B000026800215162026891620068FFF7DCFE59
:1014C000FFE740F68010C2F2000000900068FFF7CE
:1014D00049FD0098006808F081FF40F6CC10C2F288
:1014E0000000B0F9080048B9FFE740F2C040C2F27E
:1014F000000000680321FFF7BFFE38E040F6CC1083
:10150000C2F20000B0F90800012809D1FFE740F25B
:10151000C040C2F2000000680021FFF7ADFE25E0E8
:1015200040F6CC10C2F20000B0F90800022809D140
:10153000FFE740F2C040C2F2000000680121FFF75F
:101540009BFE12E040F6CC10C2F20000B0F9080099
:10155000032809D1FFE740F2C040C2F20000006852
:101560000221FFF789FEFFE7FFE7FFE7FFE740F60D
:10157000CC11C2F200010A6840F2C040C2F2000081
:1015800003685A6291ED010AB1EE400A026882EDE9
:101590000A0AB1F90A1000EE101AB8EEC00A016882
:1015A00081ED1E0A0068FFF709FD012008F068FFC1
:1015B00087E7000080B540F6B030C2F2000001F0CD
:1015C00007FA80BD80B540F61040C2F2000001F07D
:1015D000FFF980BD80B540F63020C2F2000001F076
:1015E000F7F980BD80B540F69020C2F2000001F00E
:1015F000EFF980BD80B540F6F020C2F2000001F0A6
:10160000E7F980BD80B540F67040C2F2000001F0FD
:10161000DFF980BD80B540F65030C2F2000001F025
:10162000D7F980BD82B001900198007810384AF651
:10163000AB21CAF6AA21A0FB011000090090009975
:101640004CF66070C0F60000405C0199C8650098D7
:10165000042807D3FFE701990868042262F3090010
:10166000886506E00199086840F2FF32904388657A
:10167000FFE70198806D02B07047000086B00590CA
:1016800000208DF813000598806A03900598806902
:1016900010BBFFE70398029003281BD80299DFE8EC
:1016A00001F0020D0218059890F82F00C00720B134
:1016B000FFE701208DF81300FFE70CE00598C06AF2
:1016C000B0F1C07F04D1FFE701208DF81300FFE7E0
:1016D00001E000E0FFE745E005988069B0F5005FB4
:1016E00025D1FFE70398019003281ED80199DFE870
:1016F00001F00206021101208DF8130016E0059892
:1017000090F82F00C00720B1FFE701208DF81300EB
:10171000FFE70BE00598C06AB0F1C07F04D1FFE796
:1017200001208DF81300FFE700E0FFE719E00398C0
:101730000090032804D3FFE70098032804D00EE0AC
:1017400001208DF813000BE0059890F82F00C007DA
:1017500020B1FFE701208DF81300FFE700E0FFE76D
:10176000FFE7FFE79DF8130006B0704770470000E1
:1017700080B5012001F09CFB80BD000080B50220F7
:1017800001F096FB80BD000080B5082001F090FBC1
:1017900080BD000080B5102001F08AFB80BD0000F4
:1017A00080B5202001F084FB80BD000072B6FFE709
:1017B000FEE7000082B00190019890ED1D1A90EDB7
:1017C0001E0A30EE410A8DED000A9DED000A9FEDE4
:1017D000141AB4EE410AF1EE10FA09DDFFE79DEDAF
:1017E000000A9FED121A30EE010A8DED000A13E097
:1017F0009DED000A9FED0B1AB4EE410AF1EE10FACE
:1018000009DAFFE79DED000A9FED071A30EE010AA5
:101810008DED000AFFE7FFE79DED000A02B070477B
:10182000DC0F4940DC0F49C0DC0FC940DC0FC9C0E8
:1018300084B002900191029890F820008DF8030086
:101840009DF80300012805D0FFE79DF8030002285A
:101850000AD1FFE7019A029801684869104348617C
:1018600000208DF80F0008E00299486A40F48020BB
:10187000486201208DF80F00FFE79DF80F0004B0CB
:101880007047000088B00690059104920393069873
:1018900090F820008DF80700069800688068009096
:1018A0000598806808B9FFE700E0FFE79DF80700AA
:1018B000012806D0FFE79DF80700022840F080804D
:1018C000FFE79DF80300400700280CD4FFE79DF8D0
:1018D00003000007002806D4FFE79DF80300C006B8
:1018E000002864D5FFE70098C0F3016002900299D8
:1018F00001208840039908600598806868B9FFE76F
:1019000005980168C06840EA415006990968029A42
:1019100001EB0211C1F880010EE005994A68886860
:10192000C96840EAC200084306990968029A01EBB7
:101930000211C1F88001FFE705980069069909685E
:10194000029A01EB0211C1F884010598007D01287B
:101950000CD1FFE706980068029900EB0111D1F85D
:10196000840140F48070C1F88401FFE70498406866
:1019700006990968029A01EB0211C1F88C010498DA
:10198000006806990968029A01EB0211C1F8880102
:1019900006980068029900EB0111D1F8800140F02F
:1019A0000100C1F8800100208DF81F0011E00699A8
:1019B000486A40F40010486201208DF81F0008E0DA
:1019C0000699486A40F48020486201208DF81F0083
:1019D000FFE79DF81F0008B07047000086B0049034
:1019E0000391049890F820008DF803009DF80300FF
:1019F000012806D0FFE79DF80300022840F0B080E0
:101A0000FFE746F20040C4F2000001900199D1F8CE
:101A1000000240F00100C1F800020199D1F8000273
:101A200020F47C50C1F800020398426A0199D1F871
:101A3000000240EA0220C1F800020398406900F069
:101A40001F01012088400290029A0199D1F81C02DE
:101A50009043C1F81C020398C069F0B9FFE7029AED
:101A60000199D1F80C029043C1F80C02039A9088B6
:101A7000D168526940EA0140019901EBC201C1F805
:101A80004002039A10889168526940EA0140019926
:101A900001EBC201C1F84402FFE70398C0690128C5
:101AA0001ED1FFE7029A0199D1F80C021043C1F848
:101AB0000C02039A90881168526940EA014001992A
:101AC00001EBC201C1F84002039A90899168526902
:101AD00040EA0140019901EBC201C1F84402FFE76D
:101AE0000398806940B9FFE7029A0199D1F804028E
:101AF0009043C1F8040207E0029A0199D1F8040268
:101B00001043C1F80402FFE70398006940B9FFE7FA
:101B1000029A0199D1F814029043C1F8140207E027
:101B2000029A0199D1F814021043C1F81402FFE798
:101B30000398006A012808D1FFE7029A0199D1F8B9
:101B40001C021043C1F81C02FFE70199D1F8000202
:101B500020F00100C1F8000200208DF8170008E015
:101B60000499486A40F48020486201208DF81700EB
:101B7000FFE79DF8170006B07047000081B00090A5
:101B800001B0704784B00390029100200190039847
:101B900090F820008DF803009DF80300012805D07F
:101BA000FFE79DF80300022812D1FFE7029838B939
:101BB000FFE703980068C06800F00300019006E0AA
:101BC00003980068006900F003000190FFE7FFE759
:101BD000019804B07047000086B00490039102920F
:101BE0000193049890F820008DF803009DF80300FD
:101BF000012806D0FFE79DF80300022840F0E880A6
:101C0000FFE7039880B9FFE704980068C068800781
:101C100048B9FFE70499486A40F40010486201207F
:101C20008DF81700DDE00FE0049800680069800778
:101C300048B9FFE70499486A40F40010486201205F
:101C40008DF81700CDE0FFE704980068039900EBDA
:101C50000110D0F8B00100F00400029988600298E9
:101C6000806858B9FFE704980068039900EB0110F9
:101C7000D0F8B001400D029908600AE004980068AD
:101C8000039900EB0110D0F8B001C0080299486038
:101C9000FFE704980068039900EB0110D0F8B00149
:101CA00000F002000299C86004980068039900EBF4
:101CB0000110D0F8B40100F00F00082804D3FFE7AA
:101CC0000299082008610BE004980068039900EB72
:101CD0000110D0F8B40100F00F0002990861FFE78D
:101CE00004980068039900EB0110D0F8B40180B2A9
:101CF000000A0299886104980068039900EB0110BA
:101D0000D0F8B401000C0299486104980068039966
:101D100000EB0110D0F8B801019908700498006830
:101D2000039900EB0110D0F8B801000A019948703E
:101D300004980068039900EB0110D0F8B801000C7A
:101D40000199887004980068039900EB0110D0F89D
:101D5000B801000E0199C87004980068039900EB5F
:101D60000110D0F8BC01019908710498006803992A
:101D700000EB0110D0F8BC01000A019948710498E9
:101D80000068039900EB0110D0F8BC01000C019928
:101D9000887104980068039900EB0110D0F8BC0129
:101DA000000E0199C871039838B9FFE704980168DB
:101DB000C86840F02000C86006E00498016808691F
:101DC00040F020000861FFE700208DF8170008E0D0
:101DD0000499486A40F48020486201208DF8170079
:101DE000FFE79DF8170006B07047000083B002902F
:101DF00000200190029890F820008DF803009DF8D3
:101E00000300012805D0FFE79DF80300022822D136
:101E1000FFE70298006880684001002804D5FFE7CA
:101E2000019801300190FFE7029800688068000186
:101E3000002804D5FFE7019801300190FFE70298E0
:101E400000688068C000002804D5FFE701980130D1
:101E50000190FFE7FFE7019803B0704780B58AB0B3
:101E60000990002008900998006840690790099837
:101E70000068406806900998006880680590099895
:101E80000068C06804900998006800690390099888
:101E90000068806902909DF81C00C007002800F0CF
:101EA0009480FFE79DF81400C00758B3FFE7099836
:101EB0000168012088609DF814008007002804D57F
:101EC000FFE7099800F094FC1BE09DF81400400720
:101ED000002805D5FFE7089840F4006008900FE05F
:101EE0009DF814000007002805D5FFE7089840F486
:101EF0008050089003E0099800F076FCFFE7FFE7C8
:101F0000FFE7FFE79DF81500C00760B3FFE70998FA
:101F100001684FF4807088609DF8150080070028E4
:101F200004D5FFE7099800F06BFC1BE09DF8150055
:101F30004007002805D5FFE7089840F400500890B6
:101F40000FE09DF815000007002805D5FFE7089869
:101F500040F48040089003E0099800F04DFCFFE752
:101F6000FFE7FFE7FFE79DF81600C00760B3FFE754
:101F7000099801684FF4803088609DF8160080074A
:101F8000002804D5FFE7099800F042FC1BE09DF80B
:101F900016004007002805D5FFE7089840F40040E8
:101FA00008900FE09DF816000007002805D5FFE710
:101FB000089840F48030089003E0099800F024FC71
:101FC000FFE7FFE7FFE7FFE7FFE79DF81C000007DB
:101FD000002810D5FFE79DF81000C006002809D59D
:101FE000FFE7089840F400700890099801681020F5
:101FF000C860FFE7FFE79DF81C00400700280FD5E9
:10200000FFE79DF810000007002808D5FFE70998B2
:1020100001680820C860099800F0CCFAFFE7FFE7E4
:102020009DF81C00800700280BD5FFE70998006881
:10203000C068800720B1FFE7099800F0BFFAFFE70A
:10204000FFE79DF81C004006002810D5FFE79DF82B
:102050000C00C006002809D5FFE7089840F480600E
:1020600008900998016810200861FFE7FFE79DF8D4
:102070001C00800600280FD5FFE79DF80C00000724
:10208000002808D5FFE70998016808200861099829
:1020900000F0F8FAFFE7FFE79DF81C00C0060028F3
:1020A0000BD5FFE7099800680069800720B1FFE7BA
:1020B000099800F0EBFAFFE7FFE79DF81E008007A4
:1020C00000280FD5FFE79DF81800C006002808D5A6
:1020D000FFE70998016810204860099800F03AFB72
:1020E000FFE7FFE79DF81E00C00778B1FFE79DF806
:1020F00018000007002808D5FFE7099801680820A4
:102100004860099800F088FBFFE7FFE79DF81D0095
:102110000006002840F18D80FFE79DF81800400779
:10212000002840F18180FFE79DF81D00C00750B1F5
:10213000FFE79DF80800C00728B1FFE7089840F0C6
:1021400001000890FFE79DF81D00800700280BD5CF
:10215000FFE79DF808008007002805D5FFE70898ED
:1021600040F002000890FFE79DF81D00400700289E
:102170000BD5FFE79DF808004007002805D5FFE7CD
:10218000089840F004000890FFE79DF81D00000744
:10219000002848D5FFE79DF8080010F0700F42D0E6
:1021A000FFE7029800F0700001460191102814D05A
:1021B000FFE70198202815D0FFE70198302816D0B6
:1021C000FFE70198402817D0FFE70198502818D062
:1021D000FFE70198602819D01DE0089840F008003A
:1021E000089019E0089840F01000089014E0089852
:1021F00040F0200008900FE0089840F04000089060
:102200000AE0089840F08000089005E0089840F443
:102210008070089000E0FFE709980168886920F065
:1022200070008861FFE7FFE70998016804204860B3
:10223000FFE7089848B1FFE7089A0999486A1043F0
:1022400048620998FFF79AFCFFE70AB080BD0000DA
:1022500080B584B00290029820B9FFE701208DF884
:102260000F00E0E0029890F8200020B9FFE7029804
:1022700000F0DEF8FFE702980168086840F001000E
:10228000086001F025F80190FFE7029800684068B7
:10229000C007A8B9FFE701F01BF80199401A0B2805
:1022A0000DD3FFE70299486A40F400304862029972
:1022B000052081F8200001208DF80F00B3E0E4E74D
:1022C00002980168086820F00200086001F000F838
:1022D0000190FFE70298006840688007002815D544
:1022E000FFE700F0F5FF0199401A0B280DD3FFE737
:1022F0000299486A40F4003048620299052081F84A
:10230000200001208DF80F008DE0E3E70298007EA9
:10231000012807D1FFE702980168086840F08000B3
:10232000086006E002980168086820F080000860F4
:10233000FFE70298407E012807D1FFE70298016875
:10234000086840F04000086006E0029801680868EC
:1023500020F040000860FFE70298807E012807D146
:10236000FFE702980168086840F02000086006E076
:1023700002980168086820F020000860FFE70298D2
:10238000C07E012807D1FFE702980168086820F0A5
:102390001000086006E002980168086840F010002C
:1023A0000860FFE70298007F012807D1FFE7029845
:1023B0000168086840F00800086006E002980168BB
:1023C000086820F008000860FFE70298407F0128B5
:1023D00007D1FFE702980168086840F00400086030
:1023E00006E002980168086820F004000860FFE732
:1023F000029B19685A689868D3F80CC040EA0C0030
:10240000D3F810C040EA0C005B691843013A10434E
:10241000C861029900204862029A012182F82010C6
:102420008DF80F00FFE79DF80F0004B080BD00009D
:1024300080B590B00F9000200E900D900C900B90F6
:102440000A900F98006846F20041C4F200018842E9
:1024500049D1FFE740F2C440C2F2000001680131F7
:1024600001600068012812D1FFE7FFE70020099012
:1024700043F64000C4F20200016841F000710160BF
:10248000006800F0007009900998FFE7FFE7FFE798
:102490000020089043F63000C4F20200016841F0C9
:1024A00008010160006800F0080008900898FFE744
:1024B00003200A9002210B91002103910C910D90B1
:1024C00009200E9040F60040C4F202000AA900F074
:1024D0000BFD039A14200490052101F09DF9049846
:1024E00001F090F964E00F98006846F60001C4F22C
:1024F000000188425BD1FFE7FFE70020079043F629
:102500004000C4F20200016841F08061016000688F
:1025100000F0806007900798FFE740F2C440C2F2E5
:1025200000000168013101600068012812D1FFE755
:10253000FFE70020069043F64000C4F20200016865
:1025400041F000710160006800F00070069006988C
:10255000FFE7FFE7FFE70020059043F63000C4F2F5
:102560000200016841F002010160006800F0020011
:1025700005900598FFE760200A9002200B9000204C
:1025800001900C9003200D9009200E9040F2004025
:10259000C4F202000AA900F0A7FC019A41200290AF
:1025A000052101F039F9029801F02CF9FFE7FFE766
:1025B00010B080BD81B0009001B0704780B584B08C
:1025C000039003980021FFF7DDFA8DF80B009DF8CA
:1025D0000B00072819DBFFE79DF80B004CF6D672BD
:1025E000C0F6000269464A6008604DF2EA01C0F692
:1025F00000014CF6EB72C0F600024CF6D373C0F645
:102600000003002005F0D8FBFFE7039840F270427A
:10261000C2F2000202F11C030021FFF7DDFA039869
:1026200040F6D811C2F20001884210D1FFE740F60F
:10263000C510C2F20000017840F27040C2F2000002
:1026400040F68412C2F2000207F0E8F9FFE70398AF
:1026500040F60021C2F20001884210D1FFE740F6A7
:10266000C610C2F20000017840F27040C2F20000D1
:1026700040F6A412C2F2000207F0D0F9FFE704B05E
:1026800080BD000081B0009001B0704780B584B07B
:10269000039003980121FFF775FA8DF80B009DF860
:1026A0000B00072819DBFFE79DF80B004CF6D672EC
:1026B000C0F6000269464A6008604DF21111C0F68A
:1026C00000014CF6EB72C0F600024CF6D373C0F674
:1026D0000003002005F070FBFFE7039840F29442EE
:1026E000C2F2000202F11C030121FFF775FA039800
:1026F00040F6D811C2F20001884210D1FFE740F63F
:10270000C510C2F20000017840F29440C2F200000D
:1027100040F68412C2F2000207F080F9FFE7039846
:1027200040F60021C2F20001884210D1FFE740F6D6
:10273000C610C2F20000017840F29440C2F20000DC
:1027400040F6A412C2F2000207F068F9FFE704B0F5
:1027500080BD000081B0009001B0704780B584B0AA
:102760000290029890F8200001282FD1FFE70299EB
:10277000022081F8200002980168086820F001001A
:10278000086000F0A5FD0190FFE70298006840682E
:10279000C007A8B1FFE700F09BFD0199401A0B2884
:1027A0000DD3FFE70299486A40F40030486202996D
:1027B000052081F8200001208DF80F000FE0E4E7EC
:1027C0000299002048628DF80F0008E00299486ADB
:1027D00040F40020486201208DF80F00FFE79DF8CB
:1027E0000F0004B080BD000081B0009001B07047C0
:1027F00081B0009001B0704781B0009001B0704787
:1028000081B0009001B0704781B0009001B0704776
:1028100081B0009001B0704781B0009001B0704766
:1028200080B582B00090009820B9FFE701208DF8B4
:10283000070011E00098407938B9FFE700990020BF
:102840000871009800F00CF8FFE70099012048712A
:1028500000208DF80700FFE79DF8070002B080BD5B
:1028600082B001900198006843F20001C4F20201B5
:10287000884212D1FFE7FFE70020009043F63000C6
:10288000C4F20200016841F480510160006800F464
:10289000805000900098FFE7FFE702B0704700000B
:1028A00080B584B002900298806D019000F010FD18
:1028B0000090029890F8350002280DD0FFE70299A9
:1028C00080204865FFE70299002081F83400FFE787
:1028D00001208DF80F0055E002980168086820F08B
:1028E0001600086002980168486920F0800048617D
:1028F0000298006C20B9FFE70298806C38B1FFE7BE
:1029000002980168086820F008000860FFE7029854
:102910000168086820F001000860FFE7029800687D
:102920000068C007C8B1FFE700F0D2FC0099401A68
:10293000062811D3FFE70299202048650299032059
:1029400081F83500FFE70299002081F83400FFE7A5
:1029500003208DF80F0015E0E0E70298C16D3F20DD
:102960008840019988600299012081F83500FFE7CD
:102970000299002081F83400FFE7FFE700208DF87E
:102980000F00FFE79DF80F0004B080BD82B00090FB
:10299000009890F83500022807D0FFE700998020C2
:1029A000486501208DF807000EE00099052081F8A8
:1029B000350000980168086820F001000860FFE712
:1029C00000208DF80700FFE79DF8070002B0704770
:1029D00080B586B005900020039040F2EC30C2F242
:1029E0000000006848F2B511C1F64E31A0FB01109D
:1029F000800A02900598806D01900198006804900B
:102A000004980599C96DC840000700281AD5FFE74A
:102A10000598006800684007002812D5FFE7059870
:102A20000168086820F0040008600598C16D08205E
:102A30008840019988600599486D40F0010048651B
:102A4000FFE7FFE704980599C96DC840C007A0B12A
:102A5000FFE7059800684069000600280CD5FFE7ED
:102A60000598C16D01208840019988600599486DDD
:102A700040F002004865FFE7FFE704980599C96D3B
:102A8000C8404007002814D5FFE705980068006893
:102A9000800700280CD5FFE70598C16D0420884009
:102AA000019988600599486D40F004004865FFE78A
:102AB000FFE704980599C96DC840C006002847D5AE
:102AC000FFE7059800680068000700283FD5FFE78A
:102AD0000598C16D102088400199886005980068AC
:102AE0000068400300281AD5FFE7059800680068D1
:102AF0000003002809D4FFE70598006C20B1FFE728
:102B00000598016C8847FFE708E00598806C20B1C4
:102B1000FFE70598816C8847FFE7FFE716E0059817
:102B200000680068C005002807D4FFE70598016821
:102B3000086820F008000860FFE70598006C20B1E5
:102B4000FFE70598016C8847FFE7FFE7FFE7FFE72E
:102B500004980599C96DC8408006002840F18D8011
:102B6000FFE7059800680068C006002840F18480EF
:102B7000FFE70598C16D202088400199886005987D
:102B800090F83500052834D1FFE7059801680868FA
:102B900020F01600086005980168486920F0800060
:102BA00048610598006C20B9FFE70598806C38B142
:102BB000FFE705980168086820F008000860FFE753
:102BC0000598C16D3F2088400199886005990120D2
:102BD00081F83500FFE70599002081F83400FFE710
:102BE0000598006D20B1FFE70598016D8847FFE764
:102BF0007BE0059800680068400300281AD5FFE7CD
:102C00000598006800680003002809D4FFE70598CC
:102C1000406C20B1FFE70598416C8847FFE708E06A
:102C20000598C06B20B1FFE70598C16B8847FFE7A7
:102C3000FFE720E0059800680068C005002811D46F
:102C4000FFE705980168086820F010000860059902
:102C5000012081F83500FFE70599002081F8340054
:102C6000FFE7FFE70598C06B20B1FFE70598C16B50
:102C70008847FFE7FFE7FFE7FFE70598406DA0B350
:102C8000FFE70598406DC00730B3FFE705990520C1
:102C900081F8350005980168086820F00100086097
:102CA000FFE70398013003900299884201D9FFE7BA
:102CB00007E0FFE7059800680068C0070028F0D12A
:102CC000FFE70599012081F83500FFE7059900200D
:102CD00081F83400FFE7FFE70598C06C20B1FFE7FB
:102CE0000598C16C8847FFE7FFE706B080BD00008C
:102CF00080B586B004900020039000F0E9FA0290BD
:102D0000049820B9FFE701208DF81700A3E004988C
:102D1000406A08B1FFE7FFE70499022081F8350017
:102D2000FFE70499002081F83400FFE70498016868
:102D3000086820F001000860FFE704980068006858
:102D4000C00790B1FFE700F0C3FA0299401A0628C5
:102D50000AD3FFE70499202048650499032081F8ED
:102D600035008DF8170076E0E7E704980068006802
:102D70000390039848F23F01CFF2100108400390FE
:102D8000049900914868D1F808C0CB680A6940EA04
:102D90000C00184310434A6910438A691043CA69FA
:102DA0001043096A01430398084303900498406A5A
:102DB000042808D1FFE70499C86A096B0143039806
:102DC00008430390FFE70398049909680860049892
:102DD000006840690390039820F00700039004986E
:102DE000416A0398084303900498406A04281AD162
:102DF000FFE70498816A0398084303900498C06A27
:102E000080B1FFE70498FEF739FC50B1FFE7049961
:102E1000402048650499012081F835008DF817009D
:102E200019E0FFE7FFE703980499096848610498EF
:102E3000FEF7F8FB01900498C16D3F20884001998E
:102E40008860049900204865049A012182F83510B1
:102E50008DF81700FFE79DF8170006B080BD000051
:102E600080B584B0039000F033FA0290039801908B
:102E70000198013048B1FFE740F20240C2F2000081
:102E80000178019808440190FFE7FFE700F020FA7D
:102E90000299401A0199884201D2FFE7F6E704B08F
:102EA00080BD000081B0ADF8020001B070470000A5
:102EB00080B582B0ADF8060043F61440C4F20100BC
:102EC0000068BDF8061008420CD0FFE7BDF8060008
:102ED00043F61441C4F201010860BDF80600FFF793
:102EE000E1FFFFE702B080BD8EB00D900C91002095
:102EF0000A90099008900B90FFE70B980F2800F2BA
:102F0000CC81FFE70B99012088400A900C9800685B
:102F10000A990840099009980A99884240F0B881B6
:102F2000FFE70C98406800F00300012807D0FFE796
:102F30000C98406800F0030002282FD1FFE70D989D
:102F4000806808900B984100032000FA01F108986E
:102F5000884308900C98C0680B99490000FA01F169
:102F600008980843089008980D9988600D98406863
:102F700008900B99012000FA01F108988843089005
:102F80000C984068C0F300100B9900FA01F1089802
:102F90000843089008980D994860FFE70C9840682E
:102FA00000F00300032818D0FFE70D98C0680890D0
:102FB0000B984100032000FA01F10898884308901B
:102FC0000C9880680B99490000FA01F108980843B1
:102FD000089008980D99C860FFE70C98406800F0C9
:102FE0000300022826D1FFE70D980B996FF003022A
:102FF00002EA51010844006A08900B9800F00700AB
:1030000081000F2000FA01F10898884308900C987D
:1030100000690B9901F00701890000FA01F1089895
:103020000843089008980D990B9B02EA530211443B
:103030000862FFE70D98006808900B984100032094
:1030400000FA01F10898884308900C98406800F055
:1030500003000B99490000FA01F108980843089011
:1030600008980D9908600C9880798007002800F076
:103070000E81FFE7FFE70020079043F64400C4F20B
:103080000200016841F480410160006800F4804062
:1030900007900798FFE70B9820F0030043F608011C
:1030A000C4F20101405808900B9800F00300810021
:1030B0000F2000FA01F10898884308900D9800212C
:1030C000C4F20201884203D1FFE7002006905EE0CF
:1030D0000D9840F20041C4F20201884203D1FFE79B
:1030E0000120059050E00D9840F60001C4F2020165
:1030F000884203D1FFE70220049042E00D9840F699
:103100000041C4F20201884203D1FFE7032003908B
:1031100034E00D9841F20001C4F20201884203D16B
:10312000FFE70420029026E00D9841F20041C4F22E
:103130000201884203D1FFE70520019018E00D98B5
:1031400041F60001C4F20201884203D1FFE70620E4
:1031500000900AE00D9941F60042C4F202020820F4
:10316000914208BF07200090FFE700980190FFE719
:1031700001980290FFE702980390FFE703980490FC
:10318000FFE704980590FFE705980690FFE706988B
:10319000C0B20B9901F00301890000FA01F108980F
:1031A0000843089008980B9921F0030143F60802A0
:1031B000C4F20102885043F60840C4F201000068DE
:1031C000089009990898884308900C988079C0065F
:1031D000002805D5FFE70999089808430890FFE7FC
:1031E000089843F60841C4F20101086043F60C4018
:1031F000C4F2010000680890099908988843089073
:103200000C9880798006002805D5FFE70999089871
:1032100008430890FFE7089843F60C41C4F2010107
:10322000086043F60440C4F2010000680890099960
:103230000898884308900C9880798007002805D565
:10324000FFE70999089808430890FFE7089843F6B4
:103250000441C4F20101086043F60040C4F20100D9
:103260000068089009990898884308900C9880791C
:10327000C00728B1FFE70999089808430890FFE7BD
:10328000089843F60041C4F201010860FFE7FFE738
:10329000FFE70B9801300B902FE60EB0704700004F
:1032A00082B00190ADF802108DF801209DF8010068
:1032B00028B1FFE7BDF802000199886105E0BDF87B
:1032C0000200000401998861FFE702B07047000026
:1032D00045F2B410C2F200000068704780B58EB0AD
:1032E0000C900C9820B9FFE701208DF8370043E1DE
:1032F0000C9890F83D0040B9FFE70C99002081F848
:103300003C000C9800F03CF9FFE70C99242081F870
:103310003D000C980168086820F0010008600C98D6
:103320000168086840F4004008600C98016808686B
:1033300020F40040086001F0F5F90A900C9840680C
:1033400048F2A061C0F2010188420BD8FFE70A9958
:1033500048F28042C0F21E020020914238BF012094
:1033600009900AE00A9940F60012C0F23D020020DE
:10337000914238BF01200990FFE70998012804D144
:10338000FFE701208DF83700F6E00A984DF68361DB
:10339000C4F21B31A0FB0110800C0B900C9800684C
:1033A000406820F03F000B9908430C990968486079
:1033B0000C980068006A20F03F0008900C98406864
:1033C00048F2A061C0F20101884204D8FFE70B98DF
:1033D000013007900EE00B984FF49671484344F685
:1033E000D351C1F26201A0FB0101012000EB911059
:1033F0000790FFE70898079908430C990968086245
:103400000C980068C0694CF6FF71884306900C98D0
:10341000406848F2A061C0F2010188421FD8FFE76E
:103420000A9801380C9949684900B0FBF1F0013065
:103430006FF31F30032803D8FFE7042005900BE04B
:103440000A9801380C9949684900B0FBF1F0013045
:103450006FF31F300590FFE7059804904CE00C983F
:10346000806868B9FFE70A9801380C99496801EB50
:103470004101B0FBF1F001306FF31F3003900DE01C
:103480000A9801380C99496819225143B0FBF1F0B0
:103490000130042161F31F300390FFE7039800051A
:1034A00018B9FFE70120029023E00C98806868B902
:1034B000FFE70A9801380C99496801EB4101B0FB1C
:1034C000F1F001306FF31F3001900DE00A980138E0
:1034D0000C99496819225143B0FBF1F001300421E5
:1034E00061F31F300190FFE7019840F40040029023
:1034F000FFE702980490FFE70698049908430C99A7
:103500000968C8610C980068006820F0C0000C9B36
:103510001968DA691B6A1A43104308600C9800683E
:10352000806848F2FF3188430C9A1168D3681269A9
:103530001A43104388600C980068C06820F0FF00B0
:103540000C9B19685A699B691A431043C8600C9810
:103550000168086840F0010008600C9900200864C8
:103560000C9A202182F83D100C9908630C9981F87F
:103570003E008DF83700FFE79DF837000EB080BDA4
:1035800080B58EB00D9000200C900B900A900990A1
:1035900008900D98006845F60041C4F20001884289
:1035A0005FD1FFE7FFE70020079043F63000C4F249
:1035B0000200016841F004010160006800F00400AD
:1035C00007900798FFE7FFE70020069043F63000DA
:1035D000C4F20200016841F001010160006800F0DE
:1035E000010006900698FFE74FF400700890122043
:1035F00000900990002001900A90032002900B9007
:10360000042003900C9040F60000C4F2020008A9C8
:103610000491FFF769FCDDF800C0019B029A039852
:1036200004994FF4807ECDF820E0CDF824C00A93B1
:103630000B920C900020C4F20200FFF755FCFFE74C
:103640000020059043F64000C4F20200016841F4F6
:1036500000010160006800F4000005900598FFE794
:10366000FFE70EB080BD000040F20240C2F2000051
:10367000027845F2B411C2F20001086810440860F3
:103680007047000080B543F60041C4F202010868AB
:1036900040F400700860086840F4806008600868C2
:1036A00040F480700860032000F0D0F80F2000F094
:1036B00005F800F07BF8002080BD000080B58CB0DC
:1036C0000B90002004900390FFE70020009043F649
:1036D0004000C4F20200016841F01001016000687E
:1036E00000F0100000900098FFE706A802A900F083
:1036F000E9FF09980490049820B9FFE701F012F857
:10370000059004E001F00EF840000590FFE70598F1
:103710004DF68361C4F21B31A0FB01014FF0FF3075
:1037200000EB9140039041F28030C2F2000041F280
:103730000001C4F20001016040F2E731C160039969
:103740004160002101618160816101F03BFE8DF8E3
:1037500007009DF8070028BBFFE741F28030C2F266
:10376000000001F03DFF8DF807009DF80700C0B98B
:10377000FFE7362000F046F80B980F280CD8FFE73B
:103780000B993620002200F047F80B9840F20441D4
:10379000C2F20001086003E001208DF80700FFE796
:1037A000FFE7FFE79DF807000CB080BD80B582B051
:1037B000FFE70020019043F64400C4F202000168D4
:1037C00041F480410160006800F48040019001985C
:1037D000FFE7FFE70020009043F64000C4F202003C
:1037E000016841F080510160006800F08050009055
:1037F0000098FFE76FF001000F21002200F00CF8A5
:1038000002B080BD80B582B08DF807009DF9070039
:1038100006F084FD02B080BD80B586B08DF817003B
:10382000049103920020029006F090FD02909DF911
:103830001700019002980499039A03F0CDFD014608
:10384000019806F08BFD06B080BD000080B582B007
:103850000190019806F0A4FD02B080BD82B00190F5
:103860008DF8031002B0704781B0009001B070472E
:1038700082B001908DF8031002B0704782B00190C1
:103880008DF8031002B0704781B0009001B070470E
:1038900080B584B003908DF80B109DF80B000006E6
:1038A00000280CD5FFE703989DF80B1001F00F01DD
:1038B00001EBC10100EB8100143001900CE0039892
:1038C0009DF80B1001F00F0101EBC10100EB81002D
:1038D00000F515700190FFE703980068019905F065
:1038E000FBFC8DF80A009DF80A0004B080BD0000C2
:1038F00080B58CB00B900B9800680A900A980990DC
:103900000B98006805F014FE002840F00C84FFE7D7
:103910000B98006805F078FE10B9FFE700F003BCD3
:103920000998D0F80808C0F30D200B99C1F8D40409
:103930000B98006805F068FE8007002807D5FFE7B0
:103940000B980168486900F002004861FFE70B9896
:10395000006805F059FEC006002862D5FFE70B9805
:103960000168886920F0100088610A98006A029056
:103970000B98029901F00F0101EBC10100EB8100EE
:1039800000F515700890029800F4F0110220B0EBD9
:10399000514F23D1FFE7BDF8080047F6F071084208
:1039A0001BD0FFE70A980899C968029AC2F30A1265
:1039B00005F038FE029847F6F07100EA0103089A14
:1039C000D06800EB1310D060029800EA0102089959
:1039D000486900EB12104861FFE71BE0029800F411
:1039E000F0110620B0EB514F12D1FFE70A980B9966
:1039F00001F29C41082205F015FE029847F6F0718D
:103A000000EA01020899486900EB1210486100E0E1
:103A1000FFE7FFE70B980168886940F010008861B4
:103A2000FFE70B98006805F0EFFD0003002840F168
:103A3000A680FFE7002004900B98006805F092FD37
:103A40000690FFE70698002800F09880FFE79DF8B1
:103A50001800C007002800F08A80FFE70B98006874
:103A60009DF8101005F0B8FD05909DF81400C007F2
:103A700060B1FFE70998049900EB41110120C1F8FA
:103A8000080B0B98049903F02BFDFFE79DF8140039
:103A9000000700280CD5FFE70998049900EB4111B5
:103AA0000820C1F8080B0B98049903F0D3FCFFE73A
:103AB0009DF81400C006002808D5FFE7099804996E
:103AC00000EB41111020C1F8080BFFE79DF814002E
:103AD000800700282DD5FFE70A98406900060028D6
:103AE00008D5FFE70999D1F8040840F48060C1F8CF
:103AF0000408FFE70B98049901EBC10100EB81007A
:103B000000F5157008900898C078012809D1FFE7E2
:103B100008990020C8700B989DF8101000F00CFB5D
:103B2000FFE70998049900EB41110220C1F8080B46
:103B3000FFE79DF814008006002808D5FFE70998E4
:103B4000049900EB41112020C1F8080BFFE79DF814
:103B500015008006002809D5FFE70998049900EBB5
:103B600041114FF40050C1F8080BFFE7FFE704983C
:103B70000130049006984008069063E7FFE70B9831
:103B8000006805F041FD4003002840F1C680FFE7D2
:103B90000B98006805F0D4FC069000200490FFE725
:103BA0000698002800F0B880FFE79DF81800C007CD
:103BB000002800F0AA80FFE70B9800689DF810101D
:103BC00005F0E2FC05909DF81400C00700283ED0E7
:103BD000FFE7049800F00F01012000FA01F10391C2
:103BE000039B099AD2F834189943C2F834180999FA
:103BF000049A01EB4211C1F808090B988079012859
:103C00001FD1FFE70B98049901EBC10100EB810183
:103C1000CA69086A10440862049888B9FFE70B98DB
:103C2000049901EBC10100EB8100406A40B9FFE754
:103C30000B99086801F29C42012105F0FDFAFFE7AB
:103C4000FFE70B989DF81010FFF712FEFFE79DF8B5
:103C500014000007002808D5FFE70998049900EB35
:103C600041110820C1F80809FFE79DF81400C006BB
:103C7000002808D5FFE70998049900EB41111020AE
:103C8000C1F80809FFE79DF814004006002808D590
:103C9000FFE70998049900EB41114020C1F8080999
:103CA000FFE79DF814008007002822D5FFE70A9857
:103CB000049905F0D9FB0B98049901EBC10100EBC5
:103CC0008100143008900898C078012809D1FFE7D6
:103CD00008990020C8700B989DF8101000F026FA83
:103CE000FFE70998049900EB41110220C1F8080987
:103CF000FFE79DF814000006002805D5FFE70B98A4
:103D0000049903F0D1FCFFE7FFE704980130049029
:103D100006984008069043E7FFE70B98006805F017
:103D200073FCC00F00B3FFE70999D1F8040820F035
:103D30000100C1F804080B9890F8CC04012808D1C0
:103D4000FFE70B98002180F8CC140B98FFF786FD55
:103D500003E00B9800F074FBFFE70B9801684869DB
:103D600000F000404861FFE70B98006805F04CFC4C
:103D70000005002811D5FFE70998D0F80808C0070A
:103D800020B1FFE70B9800F067FBFFE70B98016895
:103D9000486900F400604861FFE70B98006805F08F
:103DA00033FCC004002840F18680FFE70999D1F870
:103DB000040820F00100C1F804080B9800681021E5
:103DC00005F052FB00200790FFE707980B9909794F
:103DD000884231D2FFE70998079900EB41114FF66D
:103DE0007F30C1F808090999079A01EB4212D2F80D
:103DF000001921F40011C2F800190999079A01EB82
:103E00004211C1F8080B0998079900EB4111D1F84C
:103E1000000B20F40010C1F8000B0998079900EB83
:103E20004111D1F8000B40F00060C1F8000BFFE732
:103E3000079801300790C8E70999D1F81C0840F0AD
:103E40000110C1F81C080B98C07B78B1FFE70999F5
:103E5000D1F8840840F00B00C1F884080999D1F822
:103E6000440840F00B00C1F844080FE00999D1F86C
:103E7000140842F22B021043C1F814080999D1F832
:103E8000100840F00B00C1F81008FFE70999D1F8BD
:103E9000000820F4FE60C1F800080B9A10689179C0
:103EA00002F29C4205F0C8F90B980168486900F4D9
:103EB00080504861FFE70B98006805F0A5FB80047F
:103EC00000281FD5FFE70B98006804F081FF0B98CE
:103ED000006805F007FB0B99C8710B98006801900A
:103EE00000F01AFC014601980B9AD27905F076FC95
:103EF0000B9800F0A1FA0B980168486900F4005093
:103F00004861FFE70B98006805F07EFB000700287A
:103F10000AD5FFE70B9800F097FA0B9801684869FB
:103F200000F008004861FFE70B98006805F06CFBA3
:103F30000006002825D5FFE70A99886920F080004F
:103F4000886101200490FFE704980B990979884261
:103F500016D2FFE70B98049901EBC10100EB810039
:103F600090F85702012806D1FFE70B989DF8101032
:103F7000FFF78EFCFFE7FFE7049801300490E3E7CA
:103F8000FFE70B98006805F03FFBC00200283CD516
:103F9000FFE701200490FFE704980B990979884214
:103FA0002CD2FFE70998049900EB4110D0F80009E2
:103FB00002900B98049901EBC10100EB8100007E97
:103FC000012816D1FFE79DF80B000006002810D548
:103FD000FFE70B98049901EBC10100EB810101207F
:103FE000C8750B989DF8101041F08001FFF750FC48
:103FF000FFE7FFE7049801300490CDE70B980168D4
:10400000486900F480104861FFE70B98006805F0EC
:10401000FBFA8002002856D5FFE701200490FFE755
:1040200004980B990979884246D2FFE709980499C8
:1040300000EB4110D0F8000B02900B98049901EBB3
:10404000C10100EB810090F8580201282FD1FFE751
:104050009DF80B000006002829D5FFE7029800F420
:1040600080310B98D0F8D40400F00100B0EB114F70
:104070001DD1FFE70B98049901EBC10100EB810111
:10408000012081F857020A99886940F08000886110
:104090000A9840690006002808D4FFE70999D1F87A
:1040A000040840F40070C1F8040805E0FFE7FFE7EA
:1040B000049801300490B3E70B980168486900F454
:1040C00000104861FFE70B98006805F09DFA40007A
:1040D00000280AD5FFE70B98FFF7C6FB0B9801688D
:1040E000486900F080404861FFE70B98006805F0E0
:1040F0008BFA4007002815D5FFE70B980068406849
:1041000002909DF808004007002804D5FFE70B98AF
:10411000FFF7BAFBFFE7029A0B9801684868104363
:104120004860FFE7FFE70CB080BD000082B001905F
:104130008DF8031002B0704782B001908DF8031023
:1041400002B0704780B58EB00C900C9820B9FFE794
:1041500001208DF8370012E10C9800680B900C9844
:1041600090F8950440B9FFE70C99002081F8940479
:104170000C9800F009F9FFE70C99032081F89504E9
:104180000B98B0F1A04F04D1FFE70C990020887183
:10419000FFE70C98006805F045F80C9B1868197C3F
:1041A0008DF8241059689A68DB6808930792069185
:1041B0000699079A089BDDF824C0EE46CEF800C0A9
:1041C00004F01CFE40B1FFE70C99022081F8950431
:1041D00001208DF83700D2E00C980068002105F02E
:1041E0007BFA40B1FFE70C99022081F89504012089
:1041F0008DF83700C3E000208DF82B00FFE79DF815
:104200002B000C990979884241DAFFE70C989DF858
:104210002B1001EBC10100EB8101012048759DF8D5
:104220002B000C9900EBC00201EB820108759DF890
:104230002B000C9900EBC00201EB8201C8850C98A1
:104240009DF82B1001EBC10100EB810100200876E5
:104250000C999DF82B2002EBC20201EB8201C86190
:104260000C999DF82B2002EBC20201EB820108623F
:104270000C999DF82B2002EBC20201EB82014862EF
:10428000FFE79DF82B0001308DF82B00B7E70020E9
:104290008DF82B00FFE79DF82B000C9909798842D7
:1042A0003EDAFFE70C989DF82B1001EBC10100EB03
:1042B0008101002081F855029DF82B100C9A01EB2A
:1042C000C10302EB830282F854120C999DF82B2053
:1042D00002EBC20201EB820181F858020C999DF8B1
:1042E0002B2002EBC20201EB8201C1F85C020C99A7
:1042F0009DF82B2002EBC20201EB8201C1F86002A3
:104300000C999DF82B2002EBC20201EB8201C1F84F
:104310006402FFE79DF82B0001308DF82B00BAE70F
:104320000C9B1868197C8DF8141059689A68DB6822
:104330000493039202910299039A049BDDF814C03E
:10434000EE46CEF800C004F01FFE40B1FFE70C9926
:10435000022081F8950401208DF837000FE00C99B8
:104360000020019048740C99012081F895040C9864
:10437000006804F0F3FD01988DF83700FFE79DF821
:1043800037000EB080BD000080B58AB009900020D3
:104390000890079006900590049009980068B0F185
:1043A000A04F47D1FFE7FFE70020039043F630001E
:1043B000C4F20200016841F001010160006800F0F0
:1043C000010003900398FFE74FF4C05004900220CF
:1043D000059000200690032007900A2008900020F6
:1043E000C4F2020004A9FEF77FFDFFE743F63401A3
:1043F000C4F20201086840F080000860FFE7002076
:10440000029043F64400C4F20200016841F4804186
:104410000160006800F4804002900298FFE7FFE727
:104420004320019005210022FFF7F6F90198FFF7DC
:10443000E9F9FFE70AB080BD81B0009001B0704794
:1044400081B0009001B0704781B0009001B070471A
:1044500081B0009001B0704781B0009001B070470A
:1044600080B584B002900191029820B9FFE7012045
:104470008DF80F0021E1019843F60041C4F20201DA
:10448000096801F00701884212D9FFE7019943F654
:104490000040C4F202000170006800F007000199BA
:1044A000884204D0FFE701208DF80F0005E1FFE707
:1044B00002980078800700282AD5FFE70298007844
:1044C0004007002809D5FFE743F60801C4F20201BE
:1044D000086840F4E0500860FFE7029800780007A1
:1044E000002809D5FFE743F60801C4F20201086875
:1044F00040F460400860FFE743F60801C4F202019F
:10450000086820F0F000029A926810430860FFE704
:1045100002980078C00700286ED0FFE70298406834
:10452000012811D1FFE743F60000C4F20200006841
:1045300000F400310020B0EB514F04D1FFE701201F
:104540008DF80F00B9E02CE002984068022805D0F1
:10455000FFE702984068032811D1FFE743F6000007
:10456000C4F20200006800F000710020B0EB516F4F
:1045700004D1FFE701208DF80F009EE010E043F624
:104580000000C4F20200006800F002010020B0EB5D
:10459000510F04D1FFE701208DF80F008DE0FFE7F8
:1045A000FFE743F60801C4F20201086820F00300A7
:1045B000029A526810430860FEF78AFE0090FFE7F7
:1045C00043F60800C4F20200006800F00C000299F3
:1045D0004968B0EB810F0ED0FFE7FEF779FE009936
:1045E000401A41F28931884204D3FFE703208DF855
:1045F0000F0062E0E4E7FFE7019843F60041C4F2F0
:104600000201096801F00701884212D2FFE701990F
:1046100043F60040C4F202000170006800F0070099
:104620000199884204D0FFE701208DF80F0044E093
:10463000FFE702980078400700280CD5FFE743F613
:104640000801C4F20201086820F4E050029AD2681E
:1046500010430860FFE702980078000700280DD596
:10466000FFE743F60801C4F20201086820F4604045
:10467000029A126940EAC2000860FFE700F076F88B
:1046800043F60801C4F202010968C9B20A094CF6EE
:104690004871C0F60001895CC84040F2EC31C2F2BA
:1046A0000001086040F20440C2F200000068FFF719
:1046B00005F800208DF80F00FFE79DF80F0004B00B
:1046C00080BD000082B00190009101990F20086028
:1046D00043F60800C4F20200016801F00301019AE8
:1046E0005160016801F0F001019A9160016801F4E4
:1046F000E051019AD160006800F46040C00801995F
:10470000086143F60040C4F20200006800F00700B0
:104710000099086002B0704740F2EC30C2F200002D
:104720000068704780B5FFF7F7FF43F60801C4F251
:1047300002010968C1F382224CF65871C0F60001EB
:10474000895CC84080BD000080B5FFF7E5FF43F6F7
:104750000801C4F20201096889B24A0B4CF658718B
:10476000C0F60001895CC84080BD000080B586B0FD
:104770000020059004900390029043F60800C4F2D4
:104780000200006800F00C000146019140B1FFE713
:10479000019804280AD0FFE7019808280CD04FE0C0
:1047A00042F20040C0F2F40002904FE041F60030C7
:1047B000C0F2B700029049E043F60400C4F20200E0
:1047C000016801F03F01059100684002002813D5FF
:1047D000FFE743F60400C4F202000068C0F388104B
:1047E00041F60031C0F2B701A0FB0101059A002398
:1047F000FBF770FD049012E043F60400C4F20200DF
:104800000068C0F3881042F20041C0F2F401A0FB3E
:104810000101059A0023FBF75DFD0490FFE743F6D5
:104820000400C4F20200006800F44031022000EBF2
:10483000D130039004980399B0FBF1F0029005E0A9
:1048400042F20040C0F2F4000290FFE7029806B086
:1048500080BD000080B586B00490049820B9FFE7C1
:1048600001208DF8170050E304980078C007002855
:1048700000F0A580FFE743F60800C4F202000068DC
:1048800000F00C00042813D0FFE743F60800C4F240
:104890000200006800F00C0008281ED1FFE743F674
:1048A0000400C4F2020000684002002815D5FFE7AA
:1048B00043F60000C4F20200006800F4003100205A
:1048C000B0EB514F08D0FFE70498406820B9FFE7EC
:1048D00001208DF8170018E370E0FFE704984068A6
:1048E000B0F5803F09D1FFE743F60001C4F20201B1
:1048F000086840F48030086020E004984068B0F513
:10490000A02F0DD1FFE743F60001C4F202010868B1
:1049100040F480200860086840F4803008600CE0B3
:1049200043F60001C4F20201086820F480300860F8
:10493000086820F480200860FFE7FFE7FFE704989D
:104940004068E8B1FFE7FEF7C3FC0390FFE743F6DA
:104950000000C4F20200006800F400310020B0EB57
:10496000514F0CD1FFE7FEF7B3FC0399401A6528BD
:1049700004D3FFE703208DF81700C6E2E7E71CE049
:10498000FEF7A6FC0390FFE743F60000C4F2020026
:10499000006800F400310020B0EB514F0CD0FFE76D
:1049A000FEF796FC0399401A652804D3FFE703201D
:1049B0008DF81700A9E2E7E7FFE7FFE7FFE70498B4
:1049C00000788007002840F19680FFE743F6080052
:1049D000C4F20200006810F00C0F13D0FFE743F69A
:1049E0000800C4F20200006800F00C0008282CD176
:1049F000FFE743F60400C4F202000068400200280A
:104A000023D4FFE743F60000C4F20200006800F080
:104A100002010020B0EB510F09D0FFE70498C068F5
:104A2000012804D0FFE701208DF817006DE243F65E
:104A30000001C4F20201086820F0F800049A12692B
:104A400040EAC2000860FFE754E00498C06870B311
:104A5000FFE70021C4F2472101200860FEF738FC7F
:104A60000390FFE743F60000C4F20200006800F084
:104A700002010020B0EB510F0CD1FFE7FEF728FC3C
:104A80000399401A032804D3FFE703208DF8170089
:104A90003BE2E7E743F60001C4F20201086820F0B8
:104AA000F800049A126940EAC200086021E000217F
:104AB000C4F2472100200860FEF70AFC0390FFE7DC
:104AC00043F60000C4F20200006800F0020100207A
:104AD000B0EB510F0CD0FFE7FEF7FAFB0399401A39
:104AE000032804D3FFE703208DF817000DE2E7E762
:104AF000FFE7FFE7FFE704980078000700284BD5A1
:104B0000FFE70498406918B3FFE740F68061C4F2FC
:104B1000472101200860FEF7DBFB0390FFE743F627
:104B20007400C4F20200006800F002010020B0EB43
:104B3000510F0CD1FFE7FEF7CBFB0399401A032876
:104B400004D3FFE703208DF81700DEE1E7E722E05A
:104B500040F68061C4F2472100200860FEF7B8FBF0
:104B60000390FFE743F67400C4F20200006800F00F
:104B700002010020B0EB510F0CD0FFE7FEF7A8FBBD
:104B80000399401A032804D3FFE703208DF8170088
:104B9000BBE1E7E7FFE7FFE704980078400700285C
:104BA00040F1CE80FFE700208DF8070043F640007B
:104BB000C4F202000068C000002815D4FFE7FFE738
:104BC0000020009043F64000C4F20200016841F06A
:104BD00080510160006800F0805000900098FFE76D
:104BE00001208DF80700FFE747F20000C4F2000043
:104BF0000068C005002822D4FFE747F20001C4F294
:104C00000001086840F480700860FEF761FB0390C3
:104C1000FFE747F20000C4F200000068C00500286A
:104C20000CD4FFE7FEF754FB0399401A032804D382
:104C3000FFE703208DF8170067E1EAE7FFE7FFE7EA
:104C400004988068012809D1FFE743F67001C4F297
:104C50000201086840F0010008601FE004988068C5
:104C600005280DD1FFE743F67001C4F20201086880
:104C700040F004000860086840F0010008600CE0A3
:104C800043F67001C4F20201086820F001000860D8
:104C9000086820F004000860FFE7FFE7FFE70498DA
:104CA0008068F8B1FFE7FEF713FB0390FFE743F6D8
:104CB0007000C4F20200006800F002010020B0EBB6
:104CC000510F0ED1FFE7FEF703FB0399401A41F2A3
:104CD0008931884204D3FFE703208DF8170014E1DF
:104CE000E5E71EE0FEF7F4FA0390FFE743F67000F5
:104CF000C4F20200006800F002010020B0EB510F86
:104D00000ED0FFE7FEF7E4FA0399401A41F2893129
:104D1000884204D3FFE703208DF81700F5E0E5E7AC
:104D2000FFE79DF80700012809D1FFE743F640019E
:104D3000C4F20201086820F080500860FFE7FFE736
:104D400004988069002800F0DC80FFE743F6080043
:104D5000C4F20200006800F00C00082800F0858012
:104D6000FFE70498806902285CD1FFE76021C4F264
:104D7000472100200860FEF7ABFA0390FFE743F6F7
:104D80000000C4F20200006800F000710020B0EBE7
:104D9000516F0CD0FFE7FEF79BFA0399401A0328E6
:104DA00004D3FFE703208DF81700AEE0E7E704998E
:104DB000C869D1F820C04B6A8A6A40EA0C0040EA10
:104DC0008310D2034FF6FF739A43A2F5803210434B
:104DD000C96A40EA016043F60401C4F202010860B6
:104DE0006021C4F2472101200860FEF771FA0390A8
:104DF000FFE743F60000C4F20200006800F0007113
:104E00000020B0EB516F0CD1FFE7FEF761FA039978
:104E1000401A032804D3FFE703208DF8170074E03D
:104E2000E7E721E06021C4F2472100200860FEF797
:104E30004FFA0390FFE743F60000C4F20200006857
:104E400000F000710020B0EB516F0CD0FFE7FEF7CF
:104E50003FFA0399401A032804D3FFE703208DF893
:104E6000170052E0E7E7FFE74AE00498806901286D
:104E700004D1FFE701208DF8170046E043F6040057
:104E8000C4F202000068029004988069012831D0C1
:104E9000FFE7029800F480000499C969884229D18B
:104EA000FFE7029800F03F000499096A884221D187
:104EB000FFE7029847F6C07108400499496AB0EBD1
:104EC000811F17D1FFE7029800F440300499896AE6
:104ED000C9034FF6FF729143A1F58031884209D191
:104EE000FFE7029800F070600499C96AB0EB016FA7
:104EF00004D0FFE701208DF8170006E0FFE7FFE789
:104F0000FFE700208DF81700FFE79DF8170006B0B7
:104F100080BD000080B584B00290029820B9FFE700
:104F200001208DF80F0072E00298406A60B9FFE737
:104F300002984068B0F5827F01D1FFE703E0029953
:104F40000020C861FFE705E002990020086102998E
:104F50004861FFE7029900208862029890F85100AA
:104F600040B9FFE70299002081F85000029800F054
:104F700053F8FFE70299022081F851000298016876
:104F8000086820F040000860029A01921168506899
:104F9000D2F808C0D36800F482700CF4044C60446A
:104FA00003F400631844136903F0020318445369BF
:104FB00003F001031844936903F400731844D369A0
:104FC00003F038031844136A03F080031843926A0D
:104FD00002F4005210430860029801688369426A33
:104FE000042000EA134002F01002104448600298C6
:104FF0000168C86920F40060C86102990020486512
:10500000029A012182F851108DF80F00FFE79DF8F8
:105010000F0004B080BD000080B592B01190002058
:1050200010900F900E900D900C901198006843F224
:105030000001C4F20101884240F0CD80FFE7FFE7A4
:1050400000200B9043F64400C4F20200016841F4D2
:1050500080510160006800F480500B900B98FFE7CE
:10506000FFE700200A9043F63000C4F20200016816
:1050700041F002010160006800F002000A900A9805
:10508000FFE7FFE70020099043F63000C4F202007A
:10509000016841F001010160006800F00100099021
:1050A0000998FFE710200C90022002900D9001203B
:1050B00003900E90032004900F900520059010900F
:1050C00040F20040C4F2020001900CA90691FDF7E5
:1050D0000BFF0198DDF808C0049B059A06994FF074
:1050E000080ECDF830E0CDF834C04FF0000CCDF80C
:1050F0001CC0CDF838C00F931092FDF7F5FEDDF817
:1051000008C0039B049A059806994FF0800ECDF8CD
:1051100030E0CDF834C00E930F9210900020C4F20E
:105120000200FDF7E1FE079940F63020C2F20000D0
:10513000089046F24042C4F2020202604FF0C062A0
:1051400042608160C1604FF48062026141618161AF
:10515000C1614FF4403202624162FDF7C9FD18B1EE
:10516000FFE7FCF723FBFFE7FFE7119840F630214C
:10517000C2F20001C16411988863FFE740F69020F5
:10518000C2F20000009046F25841C4F202010160F0
:105190004FF0C0614160402181600021C1604FF447
:1051A0008062026141618161C1614FF4003202623B
:1051B0004162FDF79DFD18B1FFE7FCF7F7FAFFE745
:1051C000FFE7119840F69021C2F200018164119826
:1051D0008863FFE7FFE712B080BD000081B0009058
:1051E00001B0704781B0009001B0704784B0029068
:1051F000019100200090FFE7029890F83C00012800
:1052000004D1FFE702208DF80F0044E0029901204D
:1052100081F83C00FFE7FFE7009820F0FF000199CC
:10522000C96808430090009820F44070019989688B
:1052300008430090009820F4806001994968084371
:105240000090009820F400600199096808430090DC
:10525000009820F480500199096908430090009853
:1052600020F400500199496908430090009820F407
:1052700080400199C9690843009000980299096823
:105280004864FFE70299002081F83C00FFE7002016
:105290008DF80F00FFE79DF80F0004B07047000085
:1052A00085B003900291FFE7039890F83C00012835
:1052B00004D1FFE702208DF813007EE0039901205E
:1052C00081F83C00FFE7FFE70399022081F83D00E9
:1052D0000398006840680190039800688068009017
:1052E000019820F07000019002980168019808432D
:1052F00001900198039909684860039800680021AB
:10530000C4F2010188423CD0FFE703980068B0F185
:10531000804F36D0FFE70398006840F20041C4F2A6
:10532000000188422DD0FFE70398006840F6000195
:10533000C4F20001884224D0FFE70398006840F6D9
:105340000041C4F2000188421BD0FFE703980068C7
:1053500040F20041C4F20101884212D0FFE70398F5
:10536000006844F20001C4F20101884209D0FFE75D
:105370000398006841F60001C4F2000188420ED192
:10538000FFE7009820F080000090029841680098A4
:10539000084300900098039909688860FFE7039923
:1053A000012081F83D00FFE70399002081F83C00CF
:1053B000FFE700208DF81300FFE79DF8130005B00C
:1053C0007047000080B582B00090009820B9FFE7D8
:1053D00001208DF807003FE0009890F83D0040B9AB
:1053E000FFE70099002081F83C00009800F038F8B1
:1053F000FFE70099022081F83D00009951F8040B65
:1054000002F084FF0099012081F84600FFE700992F
:10541000012081F83E00009981F83F00009981F851
:105420004000009981F84100FFE7FFE70099012063
:1054300081F84200009981F84300009981F8440006
:10544000009981F84500FFE70099012081F83D00AF
:1054500000208DF80700FFE79DF8070002B080BD2F
:1054600080B590B00F9000200E900D900C900B9096
:105470000A900F9800680021C4F2010188421BD1F4
:10548000FFE7FFE70020099043F64400C4F2020062
:10549000016841F001010160006800F0010009901D
:1054A0000998FFE71920049005210022FEF7B4F9BE
:1054B0000498FEF7A7F990E00F98006840F6000105
:1054C000C4F2000188421BD1FFE7FFE700200890EB
:1054D00043F64000C4F20200016841F0040101609B
:1054E000006800F0040008900898FFE71E20039071
:1054F00005210022FEF790F90398FEF783F96BE08F
:105500000F98006844F20041C4F2010188423DD185
:10551000FFE7FFE70020079043F64400C4F20200D3
:10552000016841F400310160006800F40030079028
:105530000798FFE7FFE70020069043F63000C4F22B
:105540000200016841F020010160006800F02000C5
:1055500006900698FFE740200A9002200B9000205A
:1055600001900C900D9003200E9041F20040C4F287
:1055700002000AA9FDF7B8FC019A19200290052142
:10558000FEF74AF90298FEF73DF924E00F9800680B
:1055900041F60041C4F2000188421BD1FFE7FFE75A
:1055A0000020059043F64000C4F20200016841F07B
:1055B00080010160006800F0800005900598FFE719
:1055C0002C20009005210022FEF726F90098FEF716
:1055D00019F9FFE7FFE7FFE7FFE710B080BD000024
:1055E00083B00190019890F83D00012804D0FFE7B6
:1055F00001208DF80B006AE00199022081F83D003E
:1056000001980168C86840F00100C860019800680E
:105610000021C4F2010188423CD0FFE701980068F4
:10562000B0F1804F36D0FFE70198006840F20041AA
:10563000C4F2000188422DD0FFE70198006840F6CF
:105640000001C4F20001884224D0FFE701980068FD
:1056500040F60041C4F2000188421BD0FFE70198E8
:10566000006840F20041C4F20101884212D0FFE715
:105670000198006844F20001C4F20101884209D097
:10568000FFE70198006841F60001C4F2000188427A
:1056900012D1FFE701980068806800F007000090D1
:1056A0000098062807D0FFE701980168086840F0D5
:1056B00001000860FFE706E001980168086840F013
:1056C00001000860FFE700208DF80B00FFE79DF860
:1056D0000B0003B07047000080B586B004900391C2
:1056E00000208DF80B00FFE7049890F83C0001289B
:1056F00004D1FFE702208DF81700ABE004990120E8
:1057000081F83C00FFE7FFE70499022081F83D00A3
:105710000498006880680190019820F0770001905B
:10572000019820F47F4001900198049909688860ED
:10573000039800680090002872D0FFE700981028B6
:105740006ED0FFE7009820286AD0FFE70098302845
:1057500066D0FFE70098402855D0FFE70098502812
:1057600037D0FFE70098602840D0FFE70098702806
:105770000BD0FFE70098B0F5805F05D0FFE70098F9
:10578000B0F5005F16D052E055E004980068039B26
:105790005A689968DB6802F08BFE0498006880689C
:1057A0000190019840F077000190019804990968F0
:1057B000886040E004980068039B5A689968DB6839
:1057C00002F076FE04980168886840F480408860A2
:1057D00031E004980068039A5168D26803F054F8E5
:1057E00004980068502102F07DFE24E004980068CF
:1057F000039A5168D26803F06FF80498006860213A
:1058000002F070FE17E004980068039A5168D268AD
:1058100003F03AF804980068402102F063FE0AE0C1
:10582000049800680399096802F05CFE03E0012017
:105830008DF80B00FFE70499012081F83D00FFE798
:105840000499002081F83C00FFE79DF80B008DF8DB
:105850001700FFE79DF8170006B080BD81B00090EB
:1058600001B0704780B584B0039003980068C068A9
:10587000029003980068006901909DF80400800779
:10588000002824D5FFE79DF80800800700281DD5D3
:10589000FFE7039801686FF0020008610399012097
:1058A0000877039800688069800720B1FFE70398B4
:1058B000FFF7D4FF06E0039800F018F9039800F012
:1058C0000DFAFFE7039900200877FFE7FFE79DF84F
:1058D00004004007002825D5FFE79DF80800400791
:1058E00000281ED5FFE7039801686FF004000861E7
:1058F00003990220087703980068806910F4407FBC
:1059000004D0FFE70398FFF7A9FF06E0039800F033
:10591000EDF8039800F0E2F9FFE70399002008771B
:10592000FFE7FFE79DF804000007002824D5FFE704
:105930009DF80800000700281DD5FFE703980168BF
:105940006FF0080008610399042008770398006845
:10595000C069800720B1FFE70398FFF77FFF06E0EB
:10596000039800F0C3F8039800F0B8F9FFE7039933
:1059700000200877FFE7FFE79DF80400C006002835
:1059800025D5FFE79DF80800C00600281ED5FFE7D3
:10599000039801686FF010000861039908200877E8
:1059A00003980068C06910F4407F04D0FFE70398B3
:1059B000FFF754FF06E0039800F098F8039800F012
:1059C0008DF9FFE7039900200877FFE7FFE79DF8CF
:1059D0000400C00778B1FFE79DF80800C00748B190
:1059E000FFE7039801686FF001000861039800F079
:1059F00079F9FFE7FFE79DF804000006002810D5BD
:105A0000FFE79DF808000006002809D5FFE7039886
:105A100001686FF0800008610398FFF7DFFBFFE784
:105A2000FFE79DF804004006002810D5FFE79DF829
:105A300008004006002809D5FFE7039801686FF0C9
:105A400040000861039800F05FF9FFE7FFE79DF869
:105A500004008006002810D5FFE79DF808008006A6
:105A6000002809D5FFE7039801686FF0200008615E
:105A70000398FFF7B7FBFFE7FFE704B080BD000026
:105A800080B588B0079000200690059004900390A0
:105A90000290079800680021C4F20101884223D1D6
:105AA000FFE7FFE70020019043F63000C4F2020058
:105AB000016841F010010160006800F010000190E1
:105AC0000198FFE74FF4007002900220039000203D
:105AD000049005900120069041F20000C4F20200FB
