:020000040800F2
:10000000407700209D010008D17C0008B560000801
:10001000E9720008950C000855B7000800000000C0
:100020000000000000000000000000003194000803
:100030003D18000800000000B17D0008559400083C
:10004000B7010008B7010008B7010008B7010008B0
:10005000B7010008B7010008D1190008D919000834
:10006000B7010008E1190008E9190008B701000804
:100070003D130008B7010008B7010008B7010008E8
:10008000B7010008B7010008B7010008B701000870
:10009000990C0008B7010008B7010008F119000821
:1000A000B7010008B7010008B7010008B701000850
:1000B000B7010008B701000845950008B70100081E
:1000C000B7010008B7010008B7010008B701000830
:1000D000B701000879990008B70100088599000860
:1000E000B7010008B7010008B701000851950008E2
:1000F000B7010008B7010008B7010008B701000800
:10010000B7010008B7010008B7010008B7010008EF
:10011000B7010008B7010008B7010008B7010008DF
:10012000B701000849130008551300080D16000810
:10013000B7010008B7010008B7010008B7010008BF
:10014000B7010008A50C0008B7010008D57C00081D
:1001500019160008251600083116000891990008A4
:10016000B7010008B7010008B7010008B70100088F
:10017000B7010008B7010008B7010008000000003F
:10018000B7010008B7010008DFF80CD000F0ACFBA5
:1001900000480047E9C00008407700200648804733
:1001A00006480047FEE7FEE7FEE7FEE7FEE7FEE75C
:1001B000FEE7FEE7FEE7FEE731950008890100084B
:1001C0002DE9F05F0546002092469B46884606468C
:1001D000814640241BE0284641464746224600F01F
:1001E00058FA53465A46C01A914110D31146184640
:1001F000224600F03FFA2D1A67EB01084F462246CF
:100200000120002100F036FA17EB00094E41201EB4
:10021000A4F10104DFDC484631462A464346BDE8E6
:10022000F09F40EA01039B0703D009E008C9121FB1
:1002300008C0042AFAD203E011F8013B00F8013BA0
:10024000521EF9D27047D2B201E000F8012B491ECC
:10025000FBD270470022F6E710B513460A46044663
:100260001946FFF7F0FF204610BD421C10F8011B95
:100270000029FBD1801A70472DE9FE4F804681EAA4
:100280000300C00F0C46009021F0004123F0004510
:10029000B8EB0200A94105D24046214690461C46D3
:1002A0000B46024623F00040104347D0270DC7F30A
:1002B0000A00C3F30A510290401A019040286BDAF9
:1002C000C3F3130040F4801B0098924620B1002332
:1002D000D2EB030A63EB0B0B01985946C0F14002C5
:1002E000504600F0C7F906460D4650465946019A59
:1002F00000F0DFF910EB08006141002487EA115299
:1003000084EAE7731A4340D0009A62B3019A012A43
:100310004FEA075215DC001B61EB02014FF000426F
:1003200002EA0752CDE90042001C41F58011324635
:100330002B4600F016FA03B0BDE8F08F4046214688
:10034000F9E7001B61EB0201001C41F58013001866
:100350005B412018A2F5001747EB030140EAD57076
:10036000B6196D4111E06D084FEA360645EAC075D1
:100370004FEA0752001B61EB0201001C41F580119E
:1003800049084FEA30000019514132462B4603B06C
:10039000BDE8F04F00F0D6B90098012240000023DC
:1003A000D0EB020263EBE073009821464FEAE07461
:1003B000B8EB000061EB0401E9E783F000435BE781
:1003C00081F0004158E72DE9FE4F81EA030404F073
:1003D000004421F0004100944FF0000B23F0004353
:1003E00050EA01045ED052EA03045BD0C3F30A541E
:1003F000C1F30A552C44A4F2F3340194A0FB025437
:10040000C1F3130141F48011C3F3130343F48013C8
:1004100001FB024400FB034E840A970A44EA81541C
:1004200047EA8357A4FB076802958D0A05FB0785F9
:100430004FEA932C04FB0C542705029D4FEA065803
:1004400047EA1637B5EB08056EEB070C870E920EE0
:1004500047EA811742EA8312A7FB0201B6EB0B01C0
:1004600064EB00042B0D43EA0C335E1844EB1C5084
:10047000DA465146E7FB0201C5F313044FEA0B339A
:1004800043EA14534FEA0432019C43EA0603A4F101
:100490000C040294009CCDE900B400F062F903B0B2
:1004A000BDE8F08F00200146F9E72DE9F04D81EA23
:1004B000030404F0004B21F0004514464FF0000AFD
:1004C00023F0004150EA050220D054EA01021DD079
:1004D000C5F30A570246C5F31303C1F31300C1F372
:1004E0000A5640F4801543F48013A7EB0608101B4E
:1004F000D64608F2FD3873EB050002D308F1010877
:1005000001E092185B41B8F1000F03DA00200146C8
:10051000BDE8F08D00204FF48011064684460EE0C1
:10052000171B73EB050705D3121B63EB050306438B
:100530004CEA010C49084FEA300092185B4150EA3E
:100540000107EDD152EA030012D082EA040083EAE7
:100550000501084305D0101BAB4106D20122002340
:1005600006E000224FF0004302E06FF0010253105A
:100570001AEB06004CEB085110EB0A0041EB0B01A3
:10058000BDE8F04D00F0DEB830B5041E71F1000496
:1005900004DB4FF00044404264EB0101141E73F190
:1005A000000405DB1C464FF00043524263EB04039A
:1005B000801A994101D3012030BD002030BD30B5F3
:1005C000041E71F1000404DB4FF00044404264EB70
:1005D0000101141E73F1000405DB1C464FF00043BB
:1005E000524263EB0403101A8B4101D3012030BD4A
:1005F000002030BD0EB5C10F80EAE0700844CA0784
:10060000002140F233438DE80E000A460B4600F00D
:10061000A8F803B000BD00F0004230F000400AD05E
:10062000C10D01F56071C0F3160042EA0151C20824
:1006300040071143704700200146704701F0004316
:1006400030B421F0004150EA010206D00A0DA2F5B3
:100650006072C1F31301002A02DC30BC0020704735
:10066000440F44EAC104C100E01830BC00EBC250A2
:1006700000F031B8202A04DB203A00FA02F1002011
:1006800070479140C2F1200320FA03F319439040D0
:100690007047202A04DB203A21FA02F0002170473B
:1006A00021FA02F3D040C2F12002914008431946DA
:1006B0007047202A06DBCB17203A41FA02F043EAC2
:1006C000E07306E041FA02F3D040C2F1200291400B
:1006D0000843194670470029A8BF7047401C4900CD
:1006E00008BF20F00100704710B4B0FA80FC00FA97
:1006F0000CF050EA010404BF10BC704749B1CCF1C2
:10070000200421FA04F411FA0CF118BF012121434D
:100710000843A3EB0C01CB1D4FEA00614FEA102008
:1007200042BF002010BC704700EBC35010440029AA
:10073000A4BF10BC7047401C490008BF20F0010056
:1007400010BC704710B5141E73F1000408DA401C89
:1007500041F1000192185B411A4301D120F00100E0
:1007600010BD2DE9F04D92469B4611B1B1FA81F2D0
:1007700002E0B0FA80F220329046FFF77BFF044699
:100780000F4640EA0A0041EA0B0153465A46084325
:1007900013D0114653EA010019D0C8F14002504667
:1007A000FFF777FF05460E46504659464246FFF78B
:1007B00061FF084305D0012004E020463946BDE82A
:1007C000F08D0020054346EAE0762C4337430A9833
:1007D0006305E40AA0EB08000022FD0A44EA47543E
:1007E0000A3002D500200146E9E7010510196941E8
:1007F000DDE9084500196941BDE8F04DA2E70000B8
:100800002DE9F041054621F000400C46284309D06F
:10081000C4F30A5040F23341884205DD28462146A0
:10082000BDE8F0812846FBE740F2FE31884210DC4B
:100830000CDB4FEA043040EA155050EA053105D090
:10084000104804F0004101430020E9E70020014680
:10085000E6E7A0F233404642C6F140022846214670
:10086000FFF708FF07468846284621463246FFF72D
:1008700010FF43463A46FFF765FF3246BDE8F041B8
:10088000FFF7F8BE0000F03F30B5041E71F1000420
:1008900004DB4FF00044404264EB0101141E73F18D
:1008A000000405DB1C464FF00043524263EB040397
:1008B0008B4208BF824230BD30B5041E71F1000486
:1008C00004DB4FF00044404264EB0101141E73F15D
:1008D000000405DB1C464FF00043524263EB040367
:1008E000994208BF904230BD1CB5094800900948A4
:1008F00001900546009C06E0E06840F0010394E8A2
:10090000070098471034AC42F6D3FFF741FC0000D3
:1009100004EE000824EE000870B58C1810F8015B96
:1009200015F0070301D110F8013B2A1106D110F888
:10093000012B03E010F8016B01F8016B5B1EF9D18C
:100940002B0705D40023521E0DD401F8013BFAE712
:1009500010F8013BCB1A921C03E013F8015B01F87D
:10096000015B521EF9D5A142D8D3002070BD000012
:100970000020C4F202001021012202F061BD00003B
:100980000020C4F202001021002202F059BD000034
:100990007047000040F20040C4F202000121012231
:1009A00002F04EBD40F20040C4F2020001210022DC
:1009B00002F046BDB0F9003040F2040CC2F2000C67
:1009C00000EE103A9CED001AB8EEC00A21EE000AC3
:1009D00081ED000AB0F902309CED001A00EE103AE9
:1009E000B8EEC00A21EE000A81ED010AB0F9043028
:1009F00000EE103AB8EEC00A21EE000A81ED020ABC
:100A0000C3798179007A1B0243EA0040084400EE72
:100A1000100A9FED041AB8EE400A20EE010A82ED9A
:100A2000000A704700401C42704700000BF080BB7A
:100A300001200BF07DBB0000B0F9002000EE102A71
:100A400040F20802C2F2000292ED001AB8EEC00AAB
:100A500021EE000A81ED000AB0F9023092ED001A91
:100A600000EE103AB8EEC00A21EE000A81ED010A4C
:100A7000B0F9040000EE100AB8EEC00A21EE000A38
:100A800081ED020A7047000010B5FFF781FFFFF704
:100A9000CBFF0AF0C7FF08B1802402E00AF020FF74
:100AA00004460BF0ADF900281CBF44F0400010BD17
:100AB0000BF026F9204310BD2DE9F04383B08146A9
:100AC000002090460E46CDE90000FFF759FF922026
:100AD00000F0AAF8922000F0A7F86846451E062408
:100AE0002F4600BF552000F09FF8013C210607F873
:100AF000010FF7D1FFF73CFFBDF90000BDF902106F
:100B000000EE100A40F20400C2F2000090ED001A5C
:100B1000B8EEC00ABDF9042021EE000A86ED000AF5
:100B200000EE101A90ED001A02EE102AB8EEC00A7C
:100B3000B8EEC22A21EE000A21EE021A86ED010A61
:100B400086ED021AFFF72EFF802000F06DF80824D2
:100B50002E4600BF552000F067F8013C210606F83C
:100B6000010FF7D1FFF716FF9DF800000F2825D1E0
:100B7000BDF90200BDF9041000EE100A40F20800B1
:100B8000C2F2000090ED001AB8EEC00ABDF90620CE
:100B900021EE000A89ED000A00EE101A90ED001A0D
:100BA00002EE102AB8EEC00AB8EEC22A21EE000A00
:100BB00021EE021A89ED010A89ED021AFFF7E0FE23
:100BC000A22000F031F8A22000F02EF8022400BF8D
:100BD000552000F029F8013C210605F8010FF7D156
:100BE000FFF7C6FE9DF800009DF80110C00040EA26
:100BF00051114FF600020023CFF6FF72B3EB902F96
:100C000018BF114300EE101AB8EEC00AB4EE001A75
:100C100020EE010AB3EE071A30EE010A88ED000A51
:100C200003B0BDE8F083000080B582B08DF8070006
:100C300042F620204FF47A7CC2F200000DF1070149
:100C40000DF106020123CDF800C003F0F1FF9DF87D
:100C5000060002B080BD000002784078D20042EA6F
:100C600050104FF6000C0023CFF6FF7CB3EB922F11
:100C700018BF40EA0C0000EE100AB8EEC00AB4EE4D
:100C8000001A20EE010AB3EE071A30EE010A81EDD8
:100C9000000A7047FEE7000042F2F810C2F20000BE
:100CA00001F08CBC42F22020C2F2000001F086BCB0
:100CB000002070470020704710B541F61C74C2F246
:100CC000000441F27411C2F200012046002209F032
:100CD00029F840F67411C2F20001204609F014F818
:100CE000002010BD10B5096831B146F63C32C2F2A1
:100CF0000002126802B1904741F61C74C2F200046F
:100D000040F67411C2F20001204608F0FDFF2046B3
:100D100008F0D4FF002010BD0020704741F61C727F
:100D2000C2F20002D2F8BC22D2F81432002B1CBF4F
:100D30000120704710B541F61C74C2F200040A4647
:100D40000146204608F0EEFF2046BDE8104009F0BD
:100D500061B800002DE9F04F99B048B30168E9B1DE
:100D6000B0F80720D2B1B0F80530BBB103795F1EEF
:100D7000022F13D2012B6DD141F6F063C2F20003B2
:100D80001B78082B2DD14EF6BA10C0F60000CDE925
:100D900000104EF69321C0F6000112E04EF6BA1094
:100DA000C0F600004EF60D310090C0F6000108E0DC
:100DB0004EF6BA10C0F600004EF6D7110090C0F6FD
:100DC00000014EF6BF124EF6B113C0F60002C0F697
:100DD00000030020002407F047FA204619B0BDE8C0
:100DE000F08F002B1D4618BF012533D041F6B06CA3
:100DF000C2F2000CDCF80060768D964210D05E1EC8
:100E0000F6B20025AE4225D00CEB85046468678DF0
:100E10006C1C97422546F5D100259C4238BF012520
:100E20004EF6BA13C0F600038DE80E004EF6CA3136
:100E30004EF6BF124EF6B113C0F60001C0F6000226
:100E4000C0F6000306460020002407F00DFA3046E5
:100E5000002DC2D10179022956D141F6F161C2F2C9
:100E600000010D78002D4FD0082D09D100684EF6F5
:100E7000BA11C0F60001CDE900010FF22841A0E748
:100E800041F6D062C2F200021368B0F807105B8D21
:100E90008B420BD100684EF6BA12C0F600028DE804
:100EA00007004EF60B41C0F600018AE72B46012DE4
:100EB00098BF0123013BDBB20026B34224D002EBF2
:100EC00086077F687C8D771C8C423E46F5D1026890
:100ED0004EF6BA13C0F60003CDE9002102934EF698
:100EE0000B414EF6BF124EF6B113C0F60001C0F62C
:100EF0000002C0F6000306460020002407F0B4F903
:100F00003046AF42FFF469AF049041F6F260C2F29E
:100F100000000078002840F0358142F2F8104FF0D0
:100F200001094FF0000AC2F200000FA9CDF85C9051
:100F3000CDE915A9CDE90FAACDE911AACDE913AAEA
:100F400001F018FA4EF6BA1BC0F6000BE0B14EF6EF
:100F5000BF154EF6B11642F2F8170FF28838C0F6F8
:100F60000005C0F60006C2F200070FAC00204146A3
:100F70002A463346CDF800B007F076F938462146C8
:100F800001F0F8F90028F1D10E200A900E9042F2FB
:100F90002020C2F2000005A9CDF83490CDE90BA9BC
:100FA000CDF82490CDE905AACDE907AA01F0E2F930
:100FB000F0B14EF6A1384EF6BF154EF6B11642F21C
:100FC0002027C0F60008C0F60005C0F60006C2F2F1
:100FD000000705AC002041462A463346CDF800B054
:100FE00007F042F93846214601F0C4F90028F1D152
:100FF0004EF694414EF6C7124EF6B413C0F60001F9
:10100000C0F60002C0F600030020CDF800B007F0E3
:101010002BF942F2F810C2F2000001F063FEE0B1D9
:101020004EF6D3244EF6BF154EF6B11642F2F8171F
:10103000C0F60004C0F60005C0F60006C2F20007C4
:10104000002021462A463346CDF800B007F00CF9BF
:10105000384601F047FE0028F2D142F22020C2F2C9
:10106000000001F03FFEE0B14EF6F0244EF6BF1551
:101070004EF6B11642F22027C0F60004C0F6000575
:10108000C0F60006C2F20007002021462A46334679
:10109000CDF800B007F0E8F8384601F023FE00284C
:1010A000F2D142F2F810C2F20000022101F004F97C
:1010B000F0B14EF643344EF6BF154EF6B11642F27D
:1010C000F817C0F60004C0F60005C0F60006C2F22C
:1010D000000700BF002021462A463346CDF800B065
:1010E00007F0C2F83846022101F0E6F80028F1D1F5
:1010F00042F22020C2F20000102101F0DDF8E8B138
:101100004EF672344EF6BF154EF6B11642F2202757
:10111000C0F60004C0F60005C0F60006C2F20007E3
:10112000002021462A463346CDF800B007F09CF84F
:101130003846102101F0C0F80028F1D14EF6C7144E
:101140004EF6B4154EF64C41C0F60004C0F600054C
:10115000C0F60001002022462B46CDF800B007F073
:1011600083F841F6F2610120C2F2000108704EF6E8
:101170007441C0F60001002022462B46CDF800B095
:1011800007F072F83F200BF0C9FB00287DD042F237
:10119000202542F2F8163F210446C2F20005C2F2B1
:1011A0000006FFF757F8049A0027106813792060AB
:1011B000022B08BF2F46012B08BF3746B2F80500A7
:1011C000002167600827A060E16021616161A7617B
:1011D0002177B2F80710D2F80970D2F80D20012B50
:1011E00020846185C4F83770C4F83B2024D141F6CF
:1011F000F062C2F20002137841F6B067C2F2000753
:1012000047F823400133276813704EF6BA1602914F
:101210004EF607214EF6C7124EF6B413C0F600067E
:10122000CDE90070C0F60001C0F60002C0F6000370
:101230000020039607F018F86068A8427FF4CDAD4F
:1012400041F6F160C2F20000017841F6D062C2F2CC
:10125000000242F8214022680131238C4EF6BA1672
:10126000678D0170C0F600068DE88C004EF64D21AA
:101270004EF6C7124EF6B413C0F60001C0F60002D7
:10128000C0F6000300200396A5E504984EF6BA11B7
:101290000068C0F60001CDE900014EF6C041C0F67D
:1012A00000018EE52020257325732573203A204305
:1012B000616E322052656769737465722046616998
:1012C0006C65642C204D6178205265676973746584
:1012D0007220436F756E7420526561636865640D9A
:1012E0000A25730020202573257343414E31204683
:1012F00049464F302046696C74657220436F6E66B4
:101300006967204572726F720D0A25730000000034
:10131000B0B50446606801F03DF918B90135E8B28E
:101320006528F7D3606804F1080104F12202012363
:1013300000F0D6FFB0FA80F04009B0BD42F2C830EC
:10134000C2F2000001F05CBD42F22840C2F200008F
:1013500001F056BDB0B542F62020C2F20000C16CCB
:1013600046F2A040C4F202000968A0F1480246F229
:101370009F059142C4F2020502D950F89C3C11E04D
:1013800046F25803C4F2020303F16004A14202D9F9
:10139000D3F8A83306E0994202D953F8543C01E04F
:1013A00053F8583CA9424FF0200414DD46F23F4563
:1013B000C4F20205A94223DC46F2A005C4F20205EC
:1013C000A9422CD046F21045C4F20205A94237D0FA
:1013D00046F228452EE046F23F05C4F20205A94236
:1013E00020DD46F24005C4F20205A94217D046F2BC
:1013F0007005C4F20205A94222D046F2880519E020
:1014000046F24045C4F20205A94208D046F27045B2
:10141000C4F20205A94213D046F288450AE04FF40F
:1014200000140DE046F21005C4F20205A94207D0EF
:1014300046F22805C4F20205A94261D14FF40064C6
:101440002340002B00F0E080914210D946F2704218
:10145000C4F20202914246D046F28842C4F202022D
:10146000914244D14FF4006240F8942C7EE046F261
:101470005802C4F2020202F16003994218D946F2FE
:101480001042C4F2020291425DD046F22842C4F2F8
:101490000202914252D046F24042C4F2020291420C
:1014A0000CBF4FF400114FF0006140F8981C5DE054
:1014B00091422CD946F27000C4F2020081424ED013
:1014C00046F28800C4F20200814240D046F2A000F9
:1014D000C4F2020081420CBF4FF400104FF00060D4
:1014E00042F84C0C42E0202240F8942C3EE04FF0B1
:1014F0000062814208BF4FF4001240F8942C35E09E
:101500004FF00064814208BF4FF4001498E746F2A0
:101510001000C4F20200814225D046F22800C4F235
:101520000200814218D046F24000C4F2020081421B
:101530000CBF4FF400104FF0006015E04FF4006155
:1015400040F8981C12E0202140F8981C0EE04FF45F
:10155000006042F84C0C09E04FF4006004E02020E9
:1015600042F84C0C02E0202042F8500C41F619756C
:10157000C2F20005287800248007C4F202040DD5C9
:101580002878012100F0FD0028702878012240F021
:101590000400287004F5806001F052FF41F661609C
:1015A000C2F20000017889070CD50178012201F010
:1015B000FD010170017841F0040101702046102105
:1015C00001F03EFF41F66060C2F200000178890739
:1015D0000CD50178012201F0FD010170017841F084
:1015E000040101702046102101F02AFF0AF0C0FC1E
:1015F0002878400758BFB0BD43F61040C4F2010040
:10160000016841F001010160B0BD000042F2A82074
:10161000C2F2000001F0F4BB42F20830C2F2000056
:1016200001F0EEBB42F28840C2F2000001F0E8BBDC
:1016300042F26830C2F2000001F0E2BB2DE9F04F47
:1016400083B046F6403540F2F14640F2F04740F2B2
:10165000D0444EF6BA1942F630584FF0000BC2F2A1
:101660000005C2F20006C2F20007C2F20004C0F692
:101670000009C2F200084FF0000A11E04EF6CF1246
:101680004EF6B713002052A1C0F60002C0F60003C8
:10169000CDF8009006F0E8FD86F800B087F800B0BD
:1016A000A88C40B1698C15F801A0013101F01F012F
:1016B0006984411EA984002800F0868030780028C3
:1016C00052D038781F28D9D8411C1F2804F800A010
:1016D0003970E5D1E77F4EF60D514EF605524EF6C4
:1016E000F7430020C0F60001C0F60002C0F6000378
:1016F000CDE9007906F0B8FDE77F42F68850652F06
:10170000C2F20000046040D160784EF64F51CDE93E
:1017100000090020C0F6000145A247A34FF00009D0
:1017200006F0A2FD40F2FA00C2F2000067780678E7
:1017300008E000BF80F826B009F101095FFA89F0DE
:10174000864230D35FFA89F058F820000028F3D0A1
:101750004178B942EED1012180F8261006302146A9
:101760002022FEF75EFDE7E7BAF1730F98D17320F0
:10177000C4E900BB20700120C4E902BBC4E904BB7A
:10178000C4E906BB387030708AE74EF6CF124EF6C9
:10179000B71300201AA1C0F60002C0F60003CDE97D
:1017A000007906F061FD40F2F14640F2F047C2F2E6
:1017B0000006C2F200074EF6BA1986F800B087F8A4
:1017C00000B0C0F600096BE703B0BDE8F08F00BFC2
:1017D0002020257325735061636B6574206C656EE2
:1017E000677468206572726F722C207265736574FD
:1017F00074696E672073746174650D0A2573000047
:10180000202025732573496E76616C6964207061B0
:10181000636B65743A2077726F6E6720656E642023
:1018200062797465203078253032580D0A257300AE
:101830001B5B313B33326D00503A000070470000B3
:101840002DE9F04F8FB090F8061190F813810A91AE
:1018500090F8071190F80991099190F80811D0F8C3
:101860000F520B9190F80D1190F804610D9190F8C2
:101870000E1190F805B190F80AC190F80B2190F87C
:101880000CE10E9190F80F4190F8101190F8117141
:1018900090F812A1CDF8308090F8143190F81581AD
:1018A000B9F13F0F0793CDF8208022D8069129681F
:1018B0000294096800F582740197574682460846EB
:1018C000CDF814C0CDE9032E03F0A0FFBAF804123E
:1018D0002046FEF7BFFCDAF80000BAF80422BA4648
:1018E000019F2146029C04F01BFBDDE9032EDDE98C
:1018F00005C16BF30A26A6F580600A9EE8814FEACF
:10190000DB0066F34A10A0F58060288209982973ED
:10191000800040EA96100B9E6F7366F38A20A0F554
:1019200080606882700869F3CA10A0F58060A882A0
:101930004FEA9910A875C9F30110E875DDE9073081
:1019400043EA0020A0F5806028834CEA0220E8806A
:101950000D984EEA002028810E9840EA0420688104
:101960000C984AEA0020A8800FB0BDE8F08F000074
:1019700010B584B004461A200AF0D0FF4FF00001E1
:1019800018B30222C1608160416001608DF80420BB
:101990001222018341610161ADF8052041F6410247
:1019A000016069460094C0F60002CDF80B000446C1
:1019B0000846CDF8072009F061FE01462046216067
:1019C00009B104B010BD0BF075F9002004B010BDD2
:1019D000012001F05FBC0000022001F05BBC0000B0
:1019E000082001F057BC0000102001F053BC00009B
:1019F000202001F04FBC000072B600BFFEE70000DF
:101A000010B584B042F62840C2F20000FFF7B0FFE4
:101A100042F60471C2F20001086040F22C10C2F2DA
:101A20000000FFF797F941F6AC61C2F200010860CF
:101A300040F2F820C2F2000005F0FEFE42F60C7102
:101A4000C2F20001086040F26C30C2F2000005F002
:101A5000F3FE42F61071C2F20001086040F2F83065
:101A6000C2F2000005F030FE47F23834C2F2000442
:101A70000121206005F07AFF206806F021F940F28C
:101A80006010C2F2000005F01FFE41F60C74C2F2B5
:101A900000040121206005F069FF206806F010F9BC
:101AA00040F26820C2F2000005F00EFE42F6FC642F
:101AB000C2F200040121206005F058FF206806F002
:101AC000FFF840F24020C2F2000005F02BFC42F685
:101AD0002C51C2F20001086042F6BC41C2F2000182
:101AE00000240A1D0023CDE90044029405F0FEFB0A
:101AF00004B010BD00000000FFF782FF42F68450E2
:101B00004FF00009C2F20000C0F8009040F2FC4023
:101B1000C2F20000D0E9000147F2343247F2383B0C
:101B2000C2F20002C2F2000B106042F68C52DBF8E7
:101B30000000C2F2000241F6F4681160C06C41F688
:101B4000FC6141F6AC6A9FEDCC9A9FEDCCAA9FED6B
:101B5000CCBA41F60C759FEDCB8A9FEDCBDB9FEDA8
:101B6000CCEBDFEDCD9ADFEDCDAADFEDCDBADFED29
:101B7000CDCA9FEDCDFBC2F20008C2F20001C2F255
:101B8000000AC2F20005B6EE00CAF0EE088AC8F8F4
:101B90000090C860C1F80090A1F80890C2E000BFB2
:101BA00042F60C70C2F20000006842F60071C2F208
:101BB0000001B0EE480AC1F8009005F0C3FD42F6FE
:101BC0001070C2F200000068B0EE480A05F0BAFDDD
:101BD00042F60C70C2F20000006805F07BFE42F68F
:101BE0001070C2F20000006805F074FE2C6842F626
:101BF0008C51206BC2F2000190ED0F0AB0EEC00ACA
:101C0000B4EE4C0AF1EE10FAC8BFC0F8489091ED5E
:101C1000000A40F2FC41C2F20001E06AD1ED010A83
:101C200006F0F8F8B1EE400A204605F0BBFE286841
:101C3000F0EE480A016B91ED0F0AB0EEC00AB4EE67
:101C40004C0AF1EE10FAC8BFC1F8489090ED1C0A9A
:101C5000B1EE401AB0EE480A05F0B8FF286806F069
:101C60002FF8DBF80060376BF86B20F00040FEF7D0
:101C7000D2FC54EC1D5B2A462346FEF785FC47F256
:101C80003431002808BFC7F84890C2F2000191ED36
:101C9000000A40F2FC41C2F20001F06AD1ED000AF4
:101CA00006F0B8F8304605F07DFEDBF80060376BD3
:101CB000F86B20F00040FEF7AEFC2A462346FEF704
:101CC00063FC002808BFC7F8489096ED1C1A304600
:101CD000B0EE480AF0EE480A05F078FFDBF80000A5
:101CE00005F0EEFF42F6FC6442F6F861C2F2000431
:101CF000C2F20001206891ED000A05F053FE206851
:101D0000B0EE480A90ED1C1AF0EE480A05F05EFFAE
:101D1000206805F0D5FF01200AF00AFA41F60C759B
:101D2000C2F20005DBF8000041F6FC61C06CC2F2B3
:101D30000001C86005F0A4FB0AF0D0F8DAF8000052
:101D4000FFF7E6FA40F2FC40C2F2000090ED001A04
:101D500090ED010A31EE092A30EE093A22EE0A2A04
:101D600023EE0A3A82EE0B2A83EE0B3A42F6047017
:101D7000C2F20000006842F6BC42817DC2F200025D
:101D8000002982ED002A82ED013A00F091800129BC
:101D900006D1002900F08C80C17D012900F08880E7
:101DA000C07D002800F08480D8F8000098BB42F67F
:101DB0008450C2F20000C0F8009047F2343042F67E
:101DC000FC64C2F20000C2F2000442F68C5180EDC5
:101DD000001A2068C2F2000181ED000A002105F01E
:101DE000C5FD206805F06CFF2868002105F0BEFDE8
:101DF000286805F065FFDBF80000002105F0B6FD5E
:101E0000DBF8000005F05CFF206842F6F861C06C6A
:101E1000C2F20001086042F68450C2F2000000687D
:101E200001210028C8F8001000F04181012840F08D
:101E3000B88142F62C50C2F20000006850F8091F29
:101E400000EE101A20EE0B0A80EE0A0A47F2343137
:101E5000C2F2000130EE0B0A81ED000A406800EE8C
:101E6000100A20EE0B0A80EE0A0A42F68C50C2F2EB
:101E7000000030EE0B0A92E1000034C3DB0F494052
:101E80000000344300000000333333333333D33F97
:101E900065732D3852C1F03F00003E4300001643E9
:101EA0000000B4C30000B4430000000000806040A4
:101EB000D8F80000012826D142F6087042F6FC64EA
:101EC000C2F20000C2F2000441F6FC61C0F80090CA
:101ED0002068C2F20001A1F80890012105F046FD3A
:101EE000206805F0EDFE2868012105F03FFD286817
:101EF00005F0E6FEDBF80000012105F037FDDBF818
:101F0000000005F0DDFEC8F8009042F60870C2F24D
:101F10000000006800283FF443AE01287FF458AE6B
:101F200040F2E034C2F2000442F60C7094ED000A74
:101F3000C2F200000068B8EEC00A05F003FC216898
:101F400042F61070C2F200004942006800EE101A1A
:101F5000B8EEC00A05F0F6FB42F60470C2F20000CB
:101F60000068B0F9187042F61470C2F20000006800
:101F7000B7F5A57F39DD012837D142F6F860C2F206
:101F8000000090ED000A20EE280A10EE100AFEF77D
:101F900042FB9FEDBD0B53EC102BFEF786FA41EC94
:101FA000100B0CF01DFC54EC1E5B51EC100B2A4680
:101FB0002346FEF708FAFEF741FBFEF72CFB2A4604
:101FC0002346FEF759F9FEF739FB0446FEF723FBDB
:101FD0009FEDB50B054653EC102B0E46FEF7D4FAD9
:101FE000002848D19FEDB20B3AE017F5A57F54DAEF
:101FF000012852D142F6F860C2F2000090ED000ACA
:1020000020EE280A10EE100AFEF705FB9FED9E0B4E
:1020100053EC102BFEF749FA41EC100B0CF054FB7B
:1020200051EC100B53EC1E2BFEF7CDF9FEF706FB1F
:10203000FEF7F1FA9FED960B53EC102BFEF71CF90F
:10204000FEF7FCFA0446FEF7E6FA9FED930B054611
:1020500053EC102B0E46FEF7B2FA60B99FED900BD1
:1020600053EC102B28463146FEF706F9FEF7E6FA48
:1020700000EE100A01E000EE104A42F6F860C2F2EB
:10208000000080ED000A42F6147041F60C75C2F2B1
:102090000000C2F20005C0F80090002F7FF498AD58
:1020A00042F614710120C2F20001086090E542F688
:1020B0000470C2F200000068B0F90E80B0F91000A0
:1020C000FEF798FA074642F68C50C2F2000000680C
:1020D0000E46FEF7A0FA9FED6A0B044659EC10ABD2
:1020E0000D463846314652464B46FEF76CF90246DD
:1020F0000B4620462946FEF760F9FEF79FFA00EEF0
:10210000100AB4EE690A42F68C50F1EE10FAC8BF1C
:10211000B0EE690AB4EE6A0AC2F20000F1EE10FAFB
:10212000B8BFB0EE6A0A80ED000A404641F6F46896
:10213000C2F20008FEF75EFA044647F23430C2F2FB
:10214000000000680D46FEF766FA06460F46204678
:10215000294652464B464FF00009FEF734F9024635
:102160000B4630463946FEF728F9FEF767FA00EECF
:10217000100AB4EE6C0A30EE2B1AF1EE10FAC8BF5A
:10218000B0EE410AB5EE400A47F23430F1EE10FAF3
:10219000C2F2000080ED000A03DA30EE2C0A80ED76
:1021A000000A42F60470C2F200000768B7F9120094
:1021B000B7F91460FEF71EFA54EC1F5B2A4623465B
:1021C000FEF773F9FEF73AFA41F6FC6AC2F2000A2A
:1021D000CAF800003046FEF70DFA2A462346FEF7FD
:1021E00064F9FEF72BFAB97DCAF8040041F6AC6A2F
:1021F00041F60C750329C2F2000AC2F2000515D09F
:1022000002297FF482AEF87D0138C0B202280AD8D4
:102210004EF65612C0F6000232F8100041F6FC628B
:10222000C2F20002108103297FF46FAEF87D03280B
:1022300017D0022809D001287FF467AE42F6087053
:10224000C2F20000C0F8009011E042F60870C2F23D
:1022500000000121016042F68450C2F200000160DA
:1022600053E642F60870C2F200000121016042F616
:102270008450C2F20000C0F8009046E600BF00BFE4
:10228000613255302AA9333F182D4454FB210940AF
:1022900065732D3852C1F0BF38E92F54FB2109C0B6
:1022A00038E92F54FB21194038E92F54FB2109400C
:1022B00038E92F54FB2119C090F82020013A012A57
:1022C00004D8006800F11402002004E000F12402A8
:1022D00001204FF4802113681943116070470000FA
:1022E00010B590F820E0D0F800C0AEF1010EBEF1BC
:1022F000010FDCF808E011D81EF0E05F14D0CEF337
:1023000001640120A04018608B689BB1D1F804E003
:10231000C86840EACE0040EA030E0FE000F1240353
:1023200001204FF4802121E000F1240301204FF42B
:1023300000111BE00868CB6843EA405E0CF5C070F2
:1023400000EB0413240140F804E00C69184640F83F
:10235000044F097D012903D1016841F480710160B6
:1023600050680121D8601068986000201A681143F5
:10237000196010BD90F82020013A012A30D8B0B57C
:1023800046F20060C4F20000026842F001020260FE
:10239000026822F47C520260D1F814E0CC694A6AE7
:1023A0000368012C43EA022202600EF01F024FF084
:1023B000010303FA02F2C3696FEA020C23EA020383
:1023C000C36113D02CBBC36803EA0C03C360CB68A2
:1023D0008C8844EA034300EBCE0423640B4611E0EF
:1023E000416A41F48021416201207047C368134370
:1023F000C3600B688C8844EA034300EBCE0423647B
:1024000001F10C038C681B8843EA044300EBCE0403
:10241000636443688D6943EA0204D1F810E0096AF5
:10242000002D08BF03EA0C0444604369BEF1000FAD
:1024300043EA020408BF03EA0C040129446102D103
:10244000C1691143C161016821F0010101600020EF
:10245000B0BD00007047000090F82020013A012A2A
:1024600084BF0020704700681022002908BF0C229A
:10247000805800F003007047B0B590F82040013C50
:10248000012C78D8046800290CBFE4682469A407EB
:1024900077D004684FEA011C04F5D87555F80C4054
:1024A00014F00404946055F80CE005EB011C19BF0E
:1024B0004FEADE0555604FEA5E551560DCF80050C6
:1024C000E64605F00205D5605EF8044F24075ABFC2
:1024D000DEF8004004F00F0408241461DEF8004028
:1024E0000029C4F307249461DEF800504FEA154533
:1024F0005561DCF808201A70026802EB0112D2F86C
:10250000B8214FEA12225A70026802EB0112D2F887
:10251000B8214FEA12429A70026802EB0112D2F817
:10252000B8214FEA1262DA70026802EB0112D2F8A7
:10253000BC211A71026802EB0112D2F8BC214FEAE9
:1025400012225A71026802EB0112D2F8BC214FEA42
:1025500012429A71026802EB0112D2F8BC214FEAD2
:102560001262DA7100680CBF00F10C0100F1100179
:10257000002020220AE000F1240101204FF48022F3
:1025800004E000F1240101204FF400120B681A430B
:102590000A60B0BD90F820100139012984BF0020E5
:1025A00070470068816882688068C1F38061C2F307
:1025B000C0621144C0F30070084470472DE9F04F29
:1025C00081B0044600684669D0F804908768D0F866
:1025D0000CB0D0F810A0D0F81880F10703D1002576
:1025E00030071CD423E0F90710D00121BA0781601D
:1025F00009D4780700F1AA80380700F1B08020469E
:1026000000F09EFB02E0204600F09CFB0025F80550
:1026100000F18480F80300F1AA80300707D51BF091
:10262000100004D0206845F400751021C1607007C7
:1026300008D51BF0080005D020680821C16020469D
:1026400000F0E6F9B00706D52068C068800702D020
:10265000204600F0DFF9700607D51AF0100004D00C
:10266000206845F4806510210161B00608D51AF094
:10267000080005D0206808210161204600F07CFA9E
:10268000F00606D520680069800702D0204600F0D9
:1026900075FAB00308D519F0100005D02068102194
:1026A0004160204600F01CFBF00308D519F008003B
:1026B00005D0206808214160204600F04DFB300421
:1026C00040F18F805FEA497040F1888006F48070A5
:1026D00008EA102028435FEA8871014648BF41F0AC
:1026E0000201B20558BF01465FEA48700D4648BF77
:1026F00045F00405700558BF0D4630056ED518F03D
:1027000070006BD010380009052862D8DFE800F0AF
:10271000035C5659535F45F008055AE020684FF4B2
:102720008071BA0581600AD4780512D4380519D4AD
:10273000204600F009FBF8037FF56FAF17E0204655
:1027400000F004FBF8037FF568AF10E04FF400657C
:102750005DE705F50055F8037FF55FAF07E04FF43F
:10276000805554E705F58045F8037FF556AF20689E
:102770004FF48031BA0381600AD478030FD4380350
:1027800013D4204600F0E4FA30073FF548AF4EE797
:10279000204600F0DFFA30073FF541AF47E705F587
:1027A000004530073FF53BAF41E705F58035300781
:1027B0003FF535AF3BE745F080050AE045F02005E1
:1027C00007E045F0400504E045F0100501E045F460
:1027D00080752068816921F0700181612068042181
:1027E00041604DB1606A40EA05012046616201B076
:1027F000BDE8F04FFFF72EBE01B0BDE8F08F00003E
:10280000002804BF01207047B0B5044690F82000AE
:1028100010B9204600F06EF82068016841F001010F
:10282000016000F013FE054620684168C90705D124
:1028300000F00CFE401B0B28F6D310E0016821F0DD
:102840000201016000F002FE054600BF20684168F9
:1028500089070DD500F0FAFD401B0B28F6D3606AFE
:10286000052140F400306062012084F82010B0BDE2
:10287000217E0268012922F0800208BF80320260B6
:10288000617E0268012922F0400208BF40320260E6
:10289000A17E0268012922F0200208BF20320260D6
:1028A000E17E0268012922F0100218BF1032026096
:1028B000217F0268012922F0080208BF0832026065
:1028C000617F0268012922F0040208BF043202601D
:1028D000D4E901C2D4E9033561691A432A4311439B
:1028E000ACF101021143C16100200121606284F852
:1028F0002010B0BD10B586B0006846F60002C4F2E4
:10290000000200219042CDE90411CDE902110191AC
:1029100033D046F20041C4F20001884276D140F241
:10292000F841C2F200010A6843F64000C4F2020016
:10293000531C0B6052B900210091016841F00071F5
:102940000160016801F0007100910099002100917F
:1029500050F8101C142441F0080140F8101C50F8E5
:10296000100C032100F008000090009840F2004095
:10297000C4F2020000F5006034E043F64000C4F207
:1029800002000091016841F080610160016801F07E
:1029900080610091009940F2F841C2F200010A689A
:1029A000531C0B6052B900210091016841F0007185
:1029B0000160016801F0007100910099002100910F
:1029C00050F8101C412441F0020140F8101C50F84E
:1029D000100C602100F002000090009840F20040CE
:1029E000C4F202000191022102910021039103210E
:1029F00004910921059101A900F058FC2046052108
:102A0000002200F0F3FE204600F0DEFE06B010BD0E
:102A100070470000F0B583B000210646FFF71CFDAB
:102A2000C7B2072F11D34EF6BA154EF6CF124EF697
:102A3000B713C0F6000546A1C0F60002C0F60003B9
:102A40000020CDE9007505F00FFC40F28845C2F288
:102A5000000505F11C04304600212A462346FFF7F5
:102A60000BFD42F2F810C2F20000864207D042F29B
:102A70002020C2F20000864217D003B0F0BD41F61C
:102A8000F060C2F2000000780028F0D0296841F61A
:102A9000B067C2F2000700BF3B685A8D91421AD05E
:102AA000013807F10407F7D1E1E741F6F160C2F21E
:102AB000000000780028E0D0296841F6D066C2F214
:102AC000000600BF33685A8D914221D0013806F1CB
:102AD0000406F7D1D1E7D3F837000028C7D028691A
:102AE0002146C2B283F8340003F12C00FDF799FBB4
:102AF00038684FF6FF73B0F8351001318AB2D21A38
:102B000018BF0A46D0F83710A0F835208847AEE73E
:102B1000D3F837000028B0D028692146C2B283F824
:102B2000340003F12C00FDF77CFB30684FF6FF7397
:102B3000B0F8351001318AB2D21A18BF0A46D0F85F
:102B40003710A0F8352003B0BDE8F040084700BFBB
:102B50002020257325735258204649464F30204D7A
:102B600065737361676520436F756E7420697320A8
:102B700025640D0A2573000070470000F0B583B08E
:102B800001210646FFF768FCC7B2072F11D34EF6A6
:102B9000BA154EF6CF124EF6B713C0F6000546A191
:102BA000C0F60002C0F600030020CDE9007505F074
:102BB0005BFB40F2AC45C2F2000505F11C04304657
:102BC00001212A462346FFF757FC42F2F810C2F2D1
:102BD0000000864207D042F22020C2F20000864266
:102BE00017D003B0F0BD41F6F060C2F200000078EB
:102BF0000028F0D0296841F6B067C2F2000700BF94
:102C00003B685A8D91421AD0013807F10407F7D179
:102C1000E1E741F6F160C2F2000000780028E0D060
:102C2000296841F6D066C2F2000600BF33685A8DAB
:102C3000914221D0013806F10406F7D1D1E7D3F84B
:102C400037000028C7D028692146C2B283F8340073
:102C500003F12C00FDF7E5FA38684FF6FF73B0F882
:102C6000351001318AB2D21A18BF0A46D0F837108F
:102C7000A0F835208847AEE7D3F837000028B0D059
:102C800028692146C2B283F8340003F12C00FDF715
:102C9000C8FA30684FF6FF73B0F8351001318AB2C8
:102CA000D21A18BF0A46D0F83710A0F8352003B062
:102CB000BDE8F040084700BF202025732573525817
:102CC000204649464F31204D657373616765204347
:102CD0006F756E742069732025640D0A25730000DA
:102CE00070470000B0B5044690F8200001281DD1BF
:102CF000022084F820002068016821F001010160B1
:102D000000F0A4FB054600BF20684068C00713D050
:102D100000F09CFB401B0B28F6D3606A40F40030A7
:102D20006062052084F820000120B0BD606A40F494
:102D3000002060620120B0BD00206062B0BD0000D4
:102D400070470000704700007047000070470000A7
:102D500070470000704700007047000070B5866D36
:102D6000044600F073FB94F83510022925D105467E
:102D70002068216C026822F016020260426922F08B
:102D80008002426109B9A16C19B1016821F0080102
:102D90000160016821F00101016000BF2068006846
:102DA000C0070ED000F052FB401B0628F6D32020AF
:102DB0006065032084F835000CE080206065012008
:102DC00008E0E06D3F2101FA00F0B060012084F8D6
:102DD00035000020002184F8341070BD90F83510C3
:102DE000022909D1052180F835100068016821F019
:102DF000010101600020704780214165012070477A
:102E0000F0B581B00021009140F22801C2F200012A
:102E10000B68D0E9166148F2B51537680822C1F68B
:102E20004E358A403A42A3FB05350CD003681C6836
:102E3000640708D51C6824F004041C60B260426D6D
:102E400042F00102426501228A403A4208D00368FA
:102E50005B691B0604D5B260426D42F00202426516
:102E600004228A403A4208D003681B689B0704D5B5
:102E7000B260426D42F00402426510228A403A423A
:102E800016D001680B681B0712D5B2600B680A6880
:102E90005B0306D4D20506D40A6822F008020A6051
:102EA00001E011033FD4016C11B10446884720466C
:102EB000C26D202101FA02F33B4241D001680F6844
:102EC000FF063DD5B36090F835700B68052F1AD119
:102ED00023F016030B604B6923F080034B61036CF6
:102EE0000BB9836C1BB10B6823F008030B603F2107
:102EF0009140B160012180F83510016D002280F809
:102F00003420D9BB3EE00A685B0310D4D20512D44A
:102F10000A6822F010020A60012180F835100021B1
:102F200080F8341007E0816C0029BED1C0E711039E
:102F300001D4416C00E0C16B11B1044688472046C2
:102F4000416DF9B1416DC90716D0052180F83510E2
:102F50000168AA0A0B6823F001030B60009B013390
:102F60009342009302D80B68DB07F7D1012180F868
:102F70003510002180F83410C16C19B101B0BDE8E2
:102F8000F040084701B0F0BD2DE9F041044600F0E3
:102F90005DFAC4B10546022084F83500002021689E
:102FA00084F83400086820F0010008602068016897
:102FB000C9070BD000F04AFA401B0528F6D90321B7
:102FC000202203207AE00120BDE8F081016848F268
:102FD0003F02CFF21002D4E9013501EA020ED4E932
:102FE000032143EA0E032B43D4E9056C1A43D4E9C9
:102FF00007781143314341EA0702616A42EA080255
:10300000042942EA0C0303D1D4E90B273A431343C2
:1030100003604269042922F0070241EA02012DD12E
:10302000D4E90A5341EA050143B3BCF5005F08D077
:10303000BCF1000F12D1022D16D0012D07D09DB189
:1030400019E0032D17D8DFE805F00B0F0B02A3F1F1
:10305000C072B2FA82F252094AB90FE0032D02D2CD
:10306000012222B90AE006D1C3F3006232B1012184
:103070004022012022E00022002AF8D100F0F802CC
:103080004AF6AB23103ACAF6AA23A2FB03374EF640
:10309000971341613909C0F60003595C40F2FF33D0
:1030A00098435F2A4FF03F0288BF0430C4E91601FD
:1030B00002FA01F18160002201210020626584F89A
:1030C0003510BDE8F081000090F834C0BCF1010F6C
:1030D00004BF0220704770B54FF0010C80F834C077
:1030E000D0F858E090F835C0BCF1010F37D14FF05F
:1030F000020C80F835C04FF0000CC0F854C0D0F876
:1031000000C08468056CC06DDCF80060402C26F4BB
:103110008026CCF80060CCF804300B4604BF134680
:103120000A463F2101FA00F0CCF80830CCF80C2018
:10313000CEF80800DCF8000040F01600CCF80000E3
:103140002DB1DCF8000040F00800CCF80000DCF8FD
:10315000000040F00100CCF80000002070BD00210C
:1031600080F83410022070BDB0B5044600F06EF94E
:10317000054640F2E830C2F200000078611C18BF3A
:10318000044400BF00F062F9401BA042FAD3B0BD76
:1031900010B501381F2800F24D80DFE800F010451F
:1031A0004B4B4B4B4B304B4B4B4B4B4B4B4C4B4B89
:1031B0004B4B4B4B4B4B4B4B4B4B4B4B4B670AF0DF
:1031C00029FE012836D040F24C50C2F2000040F2F5
:1031D000F4440068C2F20004214609F061FF20684F
:1031E000002808BF10BD4EF60450CEF200004FF08C
:1031F00080510160BFF34F8FBFF36F8F10BD42F658
:103200002850C2F20000017841F0010101700178FC
:1032100011F0010101700DD0017801F0FE01017083
:10322000017841F0020104E041F61070C2F20000A2
:103230000121017010BD41F66160C2F20000017809
:1032400041F00101017041F66060C2F200000178B6
:1032500041F00101017042F6C540C2F20000007861
:103260000028E7D0BDE8104008F082BE41F6197092
:10327000C2F20000017841F00101017042F6C54040
:10328000C2F2000000780028D4D0BDE8104008F059
:103290006FBE000043F61441C4F201010A68024205
:1032A00014BF08607047FFF773BF00002DE9F04FAF
:1032B00083B000F1200200F13E4741F60045009244
:1032C00007F1FF77C4F2020508224FEAB726A842A9
:1032D00008BF0722072E38BF4FEAB72200274FF05A
:1032E000000A4FF0000801920AE000BF08F101084F
:1032F0000AF1020AB8F1100F07F1040700F09D80EF
:103300000D68012202FA08FC15EA0C09EED04D689E
:10331000032205F0030BABF10106012E02FA0AFEAF
:1033200010D88668CC6826EA0E0604FA0AF43443FC
:1033300084604468C5F3001524EA0C0605FA08F514
:103340002E434660BBF1030F1BD0C6688D6826EA8A
:103350000E0605FA0AF52E43BBF1020FC66010D126
:103360006FF00302009D02EA580655F806C007F008
:103370001C040F220B69A2402CEA0202A3401A434C
:10338000AA5102684B6822EA0E0203F0030606FA0D
:103390000AF6324313F4403F0260A7D0002243F6FE
:1033A00044030292C4F202031A6843F6004442F452
:1033B00080421A601A68C4F2010402F48042029248
:1033C000029A28F003024FF6084C2244CFF6FF7C05
:1033D00052F80C3007F00C060F25B540AB43019DA9
:1033E00005FA06F6334342F80C30A2684B6842EA0D
:1033F000090643F60C4CDD0258BF22EA0906A66016
:10340000C4F2010CDCF800209D0242EA090658BF14
:1034100022EA0906CCF8006062689D0342EA0906C8
:1034200058BF22EA090666602268DB0342EA090601
:1034300058BF22EA0906266058E703B0BDE8F08FBE
:10344000002A08BF090481617047000046F6683011
:10345000C2F2000000687047002804BF01207047D6
:10346000F0B581B0044690F83D0028B9002084F8FA
:103470003C00204600F0A8F8242084F83D00206895
:10348000016821F001010160016841F4004101601F
:10349000016821F40041016001F0D4F8636848F24A
:1034A000A16CC0F2010C40F60011C0F23D01634571
:1034B0003CBF48F28041C0F21E01884202D2012086
:1034C00001B0F0BD4DF68361C4F21B31A0FB0112C7
:1034D0002168970CD1F804E04FF496762EF03F0562
:1034E00045EA92454D60774348F638160D6AC0F2BA
:1034F0004106A7FB067625F03F07634538BF960CCB
:10350000721C3A430A62CA6948F2A0664CF6FF7719
:10351000C0F20106B34222EA070C0AD801385A0069
:10352000B0FBF2F001306FF31F30042898BF042085
:1035300020E0A2681927002A08BF032701385F434B
:10354000B0FBF7F701373F0509D052B119225A43B2
:10355000B0FBF2F00422013062F31F3008E00120DA
:1035600008E003EB4302B0FBF2F001306FF31F30D1
:1035700040F4004040EA0C00C8610868D4E9072321
:1035800020F0C000104318430860886848F2FF32FA
:1035900004F10C0790438CCF18431043A669886050
:1035A000C86820F0FF0038433043C860086840F026
:1035B0000100086000202021206484F83D10206371
:1035C00084F83E0001B0F0BD2DE9F04786B045F625
:1035D00000460068C4F200060025B0420595CDE91A
:1035E00003550295019502D006B0BDE8F08743F679
:1035F00030070095C4F20207386801AC40F00400BF
:10360000386038684FF0120800F00400009000980D
:10361000009538684FF0030940F0010038603868C1
:103620004FF0040A00F00100009000984FF4007081
:10363000019006F5D6302146CDE90285CDF81090EF
:10364000CDF814A0FFF732FE4FF48070CDE90108E9
:1036500003A880E8200606F5D2302146FFF726FEB3
:103660000095386940F400003861386900F40000C2
:103670000090009806B0BDE8F087000040F2E83006
:1036800046F66831C2F20000C2F2000100780A6812
:10369000104408607047000080B543F60040C4F253
:1036A0000200016841F400710160016841F4806129
:1036B0000160016841F480710160032000F0C2F8EC
:1036C0000F2000F005F800F05DF8002080BD00003C
:1036D00070B586B0002543F640010195C4F20201A1
:1036E0000A68044642F040020A60096801A801F035
:1036F000400101910199694600F07EFF049E002E71
:1037000018BF012600F09EFF4DF68361B040C4F261
:103710001B31A0FB01014FF0FF3000EB914142F65D
:10372000083041F60002C2F20000C4F2000240F28A
:10373000E733C0E90021C0E902530561856101F06A
:103740002BFC08B106B070BD42F60830C2F2000092
:1037500001F0B8FC0028F5D105462B2000F034F824
:103760000F2C0CD82B202146002200F03FF840F20D
:10377000EC30C2F200000460284606B070BD0120A3
:1037800006B070BD82B0002043F640010190C4F243
:1037900002014A6842F480424A604A6802F4804268
:1037A0000192019A00900868002240F08050086061
:1037B00008680F2100F08050009000986FF0010021
:1037C00002B000F013B80000002848BF704700F0B6
:1037D0001F01012202FA01F11C2202EAD0004EF27E
:1037E0000012CEF2000281507047000010B54EF674
:1037F0000C5CCEF2000CDCF80030C3F3022E8EF02D
:103800000704042C28BF0424BEF103034FF0FF3E3D
:103810000EFA04F438BF0023A14399400EFA03F3D3
:103820009A43114300F1604200F00F03090102F5D1
:103830006442043B6344002848BF03F10C0211704A
:1038400010BD00004EF60C51CEF200010A684FF692
:10385000FF031A4060F30A2242F0806040F0FD70DE
:10386000086070477047000002680020516270478E
:10387000B0B5D0F800E0DEF82400D1B1DEF8283091
:10388000B1F1010C00EB13430BD05FFA8CF10EF594
:103890008070002450F8045F01348C4203EB154320
:1038A000F8D343EA02400EEB8C01C1F8040100207A
:1038B000B0BD40EA0240CEF828000020B0BD0000B4
:1038C000D0F8E00406F0F8BC01EBC102D0F8E03417
:1038D00000EB8200026A184606F05ABC01EBC102F6
:1038E000D0F8E03400EB8200D0F86022184606F0F1
:1038F000A9BC0000D0F8E00406F0E0BC10B501F06F
:103900000F0E0A464FFA81FC0EEBCE0100EB81034D
:1039100003F51571BCF1000F48BF03F1140190F8D5
:103920009434D209012B4A7081F800E004BF0220D0
:1039300010BD0268012380F894340446104607F055
:1039400019FA002084F8940410BD0000037901F0F6
:103950000F029A4284BF0120704710B502EBC203E8
:1039600000EB83034FFA81FC8E4603F51571BCF121
:10397000000F48BF03F114014FEADE134B7090F8BB
:1039800094344FF0000C012B81F802C00A7004BF80
:10399000022010BD0268012380F8943404461046CA
:1039A00007F074FB002084F8940410BD01F00F01AF
:1039B00001EBC10100EB8100D0F868027047000004
:1039C000B0B501F00F0E8C464CB20EEBCE0100EB01
:1039D000810505F51571002C48BF05F114015FEA5A
:1039E000DC156FF3DF224D7081F800E08A600B7107
:1039F00018BFA1F81AE0022B04BF00224A7190F808
:103A00009424012A04BF0220B0BD0268012380F87B
:103A100094340446104607F0ABF8002084F8940470
:103A2000B0BD000010B501F00F0E0EEBCE0100EBA3
:103A300081044FF0000CC4F868C284F855C290F8B5
:103A400006C004F51571C4F86022C4F86432BCF1F4
:103A5000010F84F854E208BFCA610068624607F0AB
:103A60005BFB002010BD0000B0B5027901F00F042F
:103A700094424FF001022CD801EBC10300EB830309
:103A80004FFA81FC03F5157304EBC405C90900EB7B
:103A90008505BCF1000F48BF05F11403597090F87B
:103AA00094149A7001291C7004BF0220B0BD0168F3
:103AB000054680F894240846194607F00FFB2CB9F8
:103AC0002868A97905F29C4207F0B2FA002285F82D
:103AD00094241046B0BD000001F00F0C0CEBCC019B
:103AE00000EB810101F814CF4FF0000C0B618379DA
:103AF000C1F814C04FF0010CCA60012B81F801C05D
:103B000008BFCA6180B500681A4607F005FB0020AF
:103B100080BD00002DE9F04F87B005688246284639
:103B200007F072FC10B107B0BDE8F08FDAF80000C2
:103B300007F098FC0028F6D0D5F80808C0F30D214E
:103B4000DAF80000CAF8D41407F08CFC800705D519
:103B5000DAF80000416901F002014161DAF8000081
:103B600005F50061049107F07DFCC006059536D58A
:103B7000DAF80000816921F0100181612C6A04F0FB
:103B80000F0000EBC0000AEB8001C4F3434006289D
:103B900001F5157511D002281AD147F6F07014EA14
:103BA000000615D0E96834090598224607F05EFC46
:103BB000E86800EB1610E86007E005980AF29C41FF
:103BC000082207F053FCC4F30A14686920446861B2
:103BD000DAF80000816941F010018161059DDAF891
:103BE000000007F03FFC000340F1EC80DAF8000031
:103BF00007F016FC002800F0E58006460AF29C401B
:103C00004FF4306800244FF0000B06901AE000BF1C
:103C100005EB080002218160B80642BF05EB0800F1
:103C200020218160B80442BF05EB08004FF4005129
:103C300081600BF1010B760808F1200804F12404DF
:103C400000F0C080F007F4D0DAF800005FFA8BF9DA
:103C5000494607F0FFFB0746C0075FD005EB0800A9
:103C600001218160DAF8000008EB0001036C8A682A
:103C70009AF80650012D25D1150732D4950600F18A
:103C8000998043F20B05C4F65475AB42059D02D3EF
:103C900012F400422FD10AEB0402D2F874320969FF
:103CA0006FF3DF41A3EB0101C2F8681294BBD2F8B5
:103CB0006432002B00F08480D2F860020844C2F81D
:103CC000600227E043F20B05C4F65475FF35AB42A2
:103CD00017D1059D10040ED4900644BF20208860A3
:103CE00018E043F20B00C4F65470059D834215D3CF
:103CF00012F4004012D04FF40040886038070FD40F
:103D000038E0059D34B9DAF8641219B90021069A31
:103D100007F08EF950464946FFF7E0FD380729D5F0
:103D200005EB080008218160DAF8000043F20B027D
:103D3000056C40448168C4F65472954205D311F471
:103D400000411CBF4FF400418160504600F062FB0F
:103D500043F20B00C4F654708542059D0AD39AF8CD
:103D60000600012806D1DAF80000069A012107F0C2
:103D70005FF900BFF80642BF05EB08001021816023
:103D8000B8077FF549AF6869000604D5049948680B
:103D900040F4806048600AEB040090F85712012953
:103DA0007FF436AF002180F857125046494600F0A4
:103DB0004DFA2DE720208860059D3807B0D4D9E75B
:103DC0000121A4E7DAF80000CDF818A007F04AFBBB
:103DD000400340F1D1800698006807F019FB0028E5
:103DE00000F0CA80064605984FF0010B00F51067F9
:103DF0000698002500F1140900F29C400190CDE9DD
:103E0000029704E0760805F1010500F0B580F0079F
:103E1000F8D006985FFA85FA0068514607F008FB6B
:103E20000446C00726D0049A05F00F00516B0BFA28
:103E300000F021EA0000506307EB4510C0F808B01D
:103E400006988079012811D105EBC50009EB8000A7
:103E5000D0E902121144C16045B9006930B9069831
:103E6000019A0068012107F0E3F800BF0698514667
:103E7000FFF72AFD200742BF07EB451008218160AC
:103E8000E00642BF07EB451010218160600642BF8B
:103E900007EB451040218160A00715D505982946FC
:103EA00007F080FA05EBC50009EB800010F8031F4E
:103EB000012905D1002101700698514600F0C2F990
:103EC00007EB45100221816020069BD505EBC5005C
:103ED00009EB8008D8E90410814293D3069A081AA6
:103EE0001468D8F80820904238BF024604EB451009
:103EF000D0F81819033289B2B1EB920F28D300F52C
:103F0000106900BFD8E90420824221D9101A069A0C
:103F1000D8E902B19779584538BF83461FFA8BF329
:103F200020465246009707F095FBD8F80C00D8F8C9
:103F300014105844C8F80C0001EB0B00C8F814002A
:103F4000D9F818000BF1030180B2B0EB910FD9D270
:103F5000D8E90401DDE9029788424FF0010B3FF6F2
:103F600051AF05F00F00D4F834180BFA00F021EA35
:103F70000000C4F8340845E7069C206807F072FA90
:103F8000059DB0F1FF3F18DC0499486820F001005E
:103F9000486094F8CC04012807D1002084F8CC04B0
:103FA00020460021FFF75EFC02E0204600F016FAF2
:103FB0002068416901F000414161206807F052FA30
:103FC00000050BD504988068C00702D0204600F099
:103FD00049FA2068416901F400614161206807F0F5
:103FE00041FAC0044DD50499486820F001004860AA
:103FF0002068102107F0D6F92079D0B105F51061BD
:104000004FF67F328A600B68013823F400130B608F
:10401000C1F80822D1F8003223F40013C1F80032AD
:10402000D1F8003243F00063C1F8003201F1200101
:10403000E8D1049F8421F869442240F00110F8611E
:10404000E07B00284FF00B0008BF142108BF42F2AC
:104050002B007B5808BF102218437850B85840F006
:104060000B00B850386804F29C4220F4FE603860BF
:104070002068A17906F0DCFF2068416901F48051D5
:104080004161206807F0EEF9800416D5206806F03B
:10409000AFFD206807F0AAF92568E07100F0CCFABE
:1040A000E2790146284607F04DFA204600F082F9F1
:1040B0002068416901F400514161206807F0D2F99C
:1040C000000707D5204600F08DF92068416901F00E
:1040D00008014161206807F0C5F9000627D5059958
:1040E000886920F080008861207902281FD304F5B8
:1040F000157804F11405012640F27B2706E000BF85
:1041000020790136864207F1240710D2E05D0128AC
:10411000F6D106F00F0000EBC0023006206805EB78
:10412000820158BF08EB820107F0EEF8E8E720684B
:1041300007F098F9C0022CD52079022824D30598DD
:1041400004F1140900F5126504F13B064FF0010873
:10415000012706E0207901372035874206F1240641
:1041600012D2286871780129F4D1B0F1FF3FF1DC57
:1041700007F00F0000EBC001206809EB810186F811
:10418000008007F0C1F8E5E72068416901F480117B
:104190004161206807F066F9800232D52179059DDA
:1041A000022929D305F53260013904F51F72012374
:1041B00005E000BF2030013902F124021CD007685D
:1041C0001678012EF6D1B7F1FF3FF3DCD4F8D464B2
:1041D00007F4803706F00106B742EBD102F8013C44
:1041E000AF6947F08007AF616F693F06E2D4049979
:1041F000486840F4007048602068416901F400118B
:104200004161206807F02EF9400007D52046FFF7EE
:1042100057FB2068416901F080414161206807F047
:1042200021F940077FF57FAC20684568680702D513
:104230002046FFF75FFB206841682943416007B0D3
:10424000BDE8F08FD0F8E00406F09CB8D0F8E004A8
:1042500006F0AEB8002804BF01207047B0B582B0A8
:104260000446056890F8950428B9002084F8940461
:10427000204600F05BF80320B5F1A04F84F89504C8
:1042800004BF0020A071206806F0CAFE94E80F0069
:10429000257C009506F0BCFCB8BB2068002107F027
:1042A0000DF990BB207948B300EBC00080000021DD
:1042B0004FF0010C00230022E51824332A75EA850B
:1042C000984202F1010285F815C02976C5E9071167
:1042D0006962F1D100210022002300BFA518243219
:1042E00085F85432904203F1010385F8551285F8A0
:1042F0005812C5E99711C5F86412EFD194E80F0080
:10430000257C009506F096FD28B1022084F89504DE
:10431000012002B0B0BD00206074012084F8950433
:10432000206806F077FD002002B0B0BDB0B586B0C1
:1043300000680024B0F1A04F0594CDE90344029435
:10434000019401D006B0B0BD43F630050094C4F22C
:104350000205286801A940F001002860286800F0E3
:104360000100009000984FF4C05001900220CDE968
:104370000204032004900A2005900020C4F20200E9
:10438000FEF794FF6868052140F0800068600094A3
:104390006869002240F480406861686900F48040E8
:1043A000009000984320FFF721FA4320FFF70CFA12
:1043B00006B0B0BD10B5C179044621B1022901D0C3
:1043C000FDF71AFB0121D4F8E00406F077F8D4F8E1
:1043D000E004BDE8104006F027B80000D0F8E00483
:1043E00006F052B8D0F8E00406F058B890F89424DB
:1043F000012A04BF0220704710B5012280F89424DE
:10440000417402680446104607F08AF8002084F8D8
:10441000940410BDD0F8E02400F29C41104606F050
:1044200063B8000010B5044690F89404012804BF56
:10443000022010BD2068012184F89414C168490647
:1044400006D5617B012903D1816B41F48031816301
:1044500006F0A0FF206806F0CDFC002084F894044C
:1044600010BD000010B50446D0F8E00406F090F846
:104470002068D0F8001E41F00101C0F8001EE07A6B
:10448000002808BF10BD4EF61050CEF200000168A3
:1044900041F00601016010BD002804BF01207047F3
:1044A0002DE9F04143F60808C4F202080446D8F8A2
:1044B000F8030D4600F00700884207D288F8F85349
:1044C000D8F8F80300F00700A84276D120688107E9
:1044D00017D5410705D5D8F8001041F4E051C8F8C8
:1044E0000010010705D5D8F8001041F46041C8F864
:1044F0000010D8F80010A26821F0F0011143C8F8AC
:104500000010C0073FD1D8F8F80300F00700A84218
:1045100007D988F8F853D8F8F80300F00700A84244
:104520004BD12068410707D5D8F80010E26821F484
:10453000E0511143C8F80010000708D5D8F8000072
:10454000216920F4604040EAC100C8F8000000F092
:10455000A1F8D8F800104EF65C12C1F30311C0F6B2
:104560000002515C40F2280220FA01F140F2EC30E6
:10457000C2F200000068C2F200021160FFF7A8F862
:104580000020BDE8F0816068811E022907D258F83A
:10459000081C89015CBF0120BDE8F08110E0012802
:1045A00007D158F8081C89035CBF0120BDE8F081E1
:1045B00006E058F8081C890702D40120BDE8F08104
:1045C000D8F8001021F003010843C8F80000FEF7F6
:1045D0003DFF064641F28837D8F80000616800F0D8
:1045E0000C00B0EB810F8ED0FEF730FF801BB8427D
:1045F000F2D90320BDE8F0810F22026043F60802E1
:10460000C4F20202136803F003034360136803F06B
:10461000F0038360136803F4E053C360D2F800C072
:104620004FF4E05303EADC030361D2F8F80300F02F
:10463000070008607047000040F22800C2F2000046
:104640000068704740F2280043F60801C2F20000FB
:10465000C4F20201006809684EF66C12C1F38221AF
:10466000C0F60002515CC8407047000040F22800CC
:1046700043F60801C2F20000C4F2020100680968B2
:104680004EF66C12C1F34231C0F60002515CC840D4
:104690007047000010B543F60404C4F202046068D9
:1046A00000F00C0008280AD0042819BF42F200408C
:1046B000C0F2F40041F60030C0F2B70010BD20682F
:1046C00021682368490241F60031C0F2B70100F0C9
:1046D0003F02C3F388105CBF42F20041C0F2F40114
:1046E000A1FB00010023FBF76BFD21680222C1F34F
:1046F000014102EB4101B0FBF1F010BD002804BF05
:10470000012070472DE9F04182B00446007843F65D
:104710000006C007C4F2020649D0B06800F00C00E1
:10472000042809D13068800341D5606800283ED153
:10473000012002B0BDE8F081B06800F00C0008284C
:1047400002D170684002EDD465683068B5F5A02FDD
:1047500005D0B5F5803F09D140F480300CE040F43D
:1047600080203060306840F4803005E020F48030F4
:104770003060306820F480203060FEF767FE002D46
:10478000054611D03068800311D4FEF75FFE401B50
:104790006428F7D928E100BFFEF758FE401B6428C3
:1047A0004FF0030000F2E08030688003F4D42078FA
:1047B00080071BD5B06810F00C0F09D0B06800F06E
:1047C0000C00082840F085807068400200F181806C
:1047D0003068800703D5E068012840F09A8030688F
:1047E000216920F0F80040EAC1003060207800071D
:1047F00034D42078400746D4A5695DB3B06800F092
:104800000C00082840F09C80012D00F08280706828
:10481000E16900F480028A427BD1216A00F03F0204
:104820008A4276D147F6C071626A0140B1EB821FBD
:104830006FD1A16A4FF6FF73C903994300F4403268
:10484000A1F580318A4264D1E16A00F07060B0EB7A
:10485000016F5ED1002002B0BDE8F08160690028E0
:104860005BD00020C4F247200121C0F8801EFEF773
:10487000EDFD0546706F8007BBD4FEF7E7FD401BDA
:104880000228F7D9B0E0306C5FEAC0080AD40020F3
:104890000190306C40F080503064306C00F08050FB
:1048A0000190019847F20007C4F200073868C0057C
:1048B00026D4386840F480703860FEF7C7FD05469E
:1048C0003868C0051CD4FEF7C1FD401B0228F7D98B
:1048D0008AE0E068002840F20000C4F2472053D08C
:1048E00001210160FEF7B2FD054600BF3068800778
:1048F0003FF575AFFEF7AAFD401B0228F6D973E01D
:10490000A568306F052D51D0012D56D140F0010022
:1049100059E0012002B0BDE8F0810020C4F2472038
:104920000021C0F8801EFEF791FD0546706F8007DC
:104930007FF55FAFFEF78AFD401B0228F6D953E0F2
:104940000027C4F2472700203866FEF77FFD022DBE
:1049500005460DD1306880015DD5FEF777FD401B1F
:1049600002284FF00300F5D902B0BDE8F08100BF86
:10497000306880017FF56EAFFEF768FD401B0228AE
:104980004FF00300F4D9EFE700210160FEF75EFD70
:10499000054600BF306880077FF528AFFEF756FD5B
:1049A000401B02284FF00300F4D9DDE740F004007B
:1049B0003067306F40F0010005E020F00100306703
:1049C000306F20F004003067FEF740FD002D0546F3
:1049D00041F2883713D000BF306F800712D4FEF742
:1049E00035FD401BB842F7D9032002B0BDE8F08185
:1049F000FEF72CFD401BB8424FF00300B4D8306FD7
:104A00008007F5D4B8F1000F3FF5F6AE306C20F01A
:104A100080503064F0E604F11C052FCD084340EAD5
:104A20008210D9034FF6FF729143A1F5803140EA1D
:104A300005600843706001203866FEF707FD0446F4
:104A4000306880013FF506AFFEF700FD001B02282D
:104A50004FF00300F4D987E770B528B1416A29B156
:104A600000210161142106E0012070BD4168B1F50B
:104A7000827F02D01C21002242500026866290F8DC
:104A8000511029B980F85060054600F03DF82846DD
:104A9000022180F8511090E82E0002F482720C6816
:104AA00003F4044324F040040C601A4405F400634A
:104AB00005691A4405F0020345691A4405F001032B
:104AC0008569C4691A4405F400731A4404F0380374
:104AD000046A1A4404F08003846A1A4304F40053FD
:104AE0001A430A60436A042202EA154203F01003E3
:104AF0001A444A60CA6922F40062CA61012146650B
:104B000080F85110304670BD2DE9F04F87B0044653
:104B100043F200070068C4F201070026B842069677
:104B2000CDE904660396029602D007B0BDE8F08F87
:104B300043F630000196C4F20200416902AD41F42F
:104B400080514161416946F2404801F48051019130
:104B50000199019601684FF0020941F002010160DC
:104B600001684FF0030A01F00201019101990196D9
:104B700001684FF0050B41F0010101600068294612
:104B800000F00100019001981820029007F55440B0
:104B9000C4F20208CDE90396CDF814A0CDF818B000
:104BA000FEF784FB8020CDE9020904A880E8400CD0
:104BB00007F550402946FEF779FB42F24825C2F23C
:104BC00000054FF0C0674FF480692846C5E90087AB
:104BD000C5E90266C5E90496C5E90666C5E9086641
:104BE000FEF7D2F9002818BFFCF706FFE564AC63B6
:104BF00042F2A82508F11800C2F200054021C5E9DB
:104C0000000705F10800002280E806022846C5E9F1
:104C10000522C5E907226A62FEF7B6F9002818BF27
:104C2000FCF7EAFEA564AC6307B0BDE8F08F0000B6
:104C30002DE9F04383B01E4615460F460446FEF7A5
:104C400005FC94F851108146012908D1002F4FF03E
:104C5000010018BF002D0ED103B0BDE8F0836068DD
:104C6000B0F5827F0DD104294FF00200F4D1A16884
:104C70000029EBD0F0E7002EEED094F85000012888
:104C800003D1022003B0BDE8F083012084F8500076
:104C900094F85100002104281CBF052084F851001D
:104CA0006165A563E687A6872763E6862068A686F2
:104CB000216461640168490603D4016841F0400140
:104CC00001606168731EE268B1FA81F1B3FA83F39F
:104CD000DDF8288049095B09B2F5006F41EA03015C
:104CE00037D131B137F8021BC1602763E08E01383C
:104CF000E086012608F10105E08E10B9E08F00285A
:104D00006CD02068816889070CD5E18E51B1012EE5
:104D100008D1216B002631F8022BC2602163E18E9D
:104D20000139E1868168C9070AD0E18F41B1C068C5
:104D3000A16B012621F8020BA163E08F0138E08707
:104D4000FEF784FB002DD7D0A0EB09004045D3D35C
:104D50003AE039B139780173206B01302063E08E7D
:104D60000138E086012608F1010500BFE08E08B990
:104D7000E08F98B32068816889070DD5E18E59B11D
:104D8000012E09D1216B002609780173206B0130B7
:104D90002063E08E0138E08620688168C9070BD067
:104DA000E18F49B1C068A16B01260870A06B01308A
:104DB000A063E08F0138E087FEF748FB002DD5D0D7
:104DC000A0EB09004045D1D3012084F85100002018
:104DD00084F85000032003B0BDE8F0832046022190
:104DE00001224346CDF8009004F0AEFA60B1606D48
:104DF00040F02000606520206065002084F85000AD
:104E0000012003B0BDE8F08340F22800C2F20000A8
:104E1000006849F68171C1F25E61A0FB0101480D95
:104E20004FF47A71484302906068B0F5827F0AD1EE
:104E30002046802100224346CDF8009004F084FAF9
:104E40000028D4D108E0029830B1029801380290CD
:104E5000206880680006F6D4A06838B90020019068
:104E60002068C1680191806801900198012084F850
:104E70005100002084F85000606D002818BF012008
:104E800003B0BDE8F08300007047000070470000E9
:104E900090F83C20012A04BF02207047B0B501F110
:104EA00008053CCDD1E900CE23F47C5322F47052A6
:104EB0001A432EF4F0431A432CF4E0431A4324F42B
:104EC000C0431A432A43C96922F48042036811434C
:104ED0005964002180F83C100020B0BD90F83C20BF
:104EE000012A4FF0020255D010B5012380F83C3062
:104EF00080F83D200268D2F804E0D2F808C00C68BF
:104F00002EF07003234341F2FF74C4F20004A24266
:104F100053600DDC40F2FF73C4F200039A4215DCCB
:104F2000B2F1804F29D040F20043C4F2000322E0E6
:104F300040F2FF33C4F201039A4212DC41F600034F
:104F4000C4F200039A4218D0002312E040F6000396
:104F5000C4F200039A4210D040F60043C4F20003AA
:104F600009E044F20003C4F201039A4205D040F282
:104F70000043C4F201039A4204D149682CF0800333
:104F8000194391600121002280F83D1080F83C20F7
:104F9000BDE8104010467047002804BF012070474C
:104FA00010B5044690F83D0028B9002084F83C0074
:104FB000204600F01FF8022084F83D002068211DE3
:104FC00004F0CCFA012084F8460084F83E0084F80E
:104FD0003F0084F8400084F8410084F8420084F8DF
:104FE000430084F8440084F8450084F83D00002024
:104FF00010BD000080B582B000684FF6FF71C4F2AA
:105000000001884219DC40F60001C4F20001884228
:105010002CD040F60041C4F2000188424FD100205C
:10502000019043F64000C4F20200016841F008011B
:105030000160006800F008003FE044F20041C4F263
:10504000010188422CD00021C4F20101884236D1EE
:105050000020019043F64000C4F20200416841F094
:1050600001014160406800F0010026E0002001904D
:1050700043F64000C4F202000168002241F004013E
:1050800001600068052100F00400019001981E20D5
:10509000FEF7ACFB1E2002B0BDE88040FEF794BBDB
:1050A0000020019043F64000C4F20200416841F440
:1050B00000314160406800F400300190019802B076
:1050C00080BD000090F83D1001291CBF01207047F1
:1050D000022180F83D10006841F2FF72C168C4F2FD
:1050E0000002904241F00101C1600DDC40F2FF710D
:1050F000C4F20001884215DCB0F1804F29D040F2A3
:105100000041C4F2000122E040F2FF31C4F201018B
:10511000884212DC41F60001C4F20001884218D036
:10512000002112E040F60001C4F20001884210D0D4
:1051300040F60041C4F2000109E044F20001C4F26B
:105140000101884205D040F20041C4F201018842C9
:1051500006D1816801F00701062904BF00207047CD
:10516000016841F0010101600020704790F83C2087
:10517000012A4FF002026ED080B5012380F83C3046
:1051800080F83D20D0F800C04FF67772DCF8083088
:1051900023EA0202CCF808200B684F2B28DC1F2BD7
:1051A00044DD202B45D0302B43D0402B40F0AC8049
:1051B000D1F804E0C968DCF82030DCF8202022F0C7
:1051C0000102CCF82020DCF8182022F0F00242EA9C
:1051D000011123F00A0242EA0E02CCF81810CCF8B2
:1051E0002020DCF8081041F0470121F0300127E0D1
:1051F0006F2B32DDB3F5005F73D0B3F5805F21D044
:10520000702B40F08180D1E901E3C968DCF8082007
:1052100043EA0E0322F47F4243EA01211143CCF812
:105220000810DCF8081041F0770109E00BB1102BF1
:105230006AD1DCF8081021F07001194341F0070130
:10524000CCF808100022012180F83D10002180F8E0
:105250003C10BDE8804010467047502B21D0602B99
:1052600052D1D1F804E0C968DCF82030DCF8202005
:1052700022F01002CCF82020DCF8182022F4704232
:1052800042EA013123F0A00242EA0E12CCF81810D3
:10529000CCF82020DCF8081041F0670121F0100163
:1052A000CEE7D1F804E0C968DCF82030DCF8202033
:1052B00022F00102CCF82020DCF8182022F0F002C5
:1052C00042EA011123F00A0242EA0E02CCF8181059
:1052D000CCF82020DCF8081041F0570121F0200123
:1052E000AEE7D1E901E3C968DCF8082043EA0E0320
:1052F00022F47F4243EA01211143CCF80810DCF884
:10530000081041F480419BE701229CE770470000B0
:1053100070B504460068C5680669B10716D515F072
:10532000020113D06FF00201016101212177806930
:10533000800703D02046FFF7E9FF05E0204600F094
:1053400017F9204600F052FA00202077700718D590
:1053500015F0040015D020686FF0040101610221EE
:105360002177806910F4407F03D02046FFF7CEFFFD
:1053700005E0204600F0FCF8204600F037FA002057
:105380002077300717D515F0080014D020686FF08B
:105390000801016104212177C069800703D02046FC
:1053A000FFF7B4FF05E0204600F0E2F8204600F0E9
:1053B0001DFA00202077F00618D515F0100015D042
:1053C00020686FF01001016108212177C06910F495
:1053D000407F03D02046FFF799FF05E0204600F00C
:1053E000C7F8204600F002FA00202077F00718BF27
:1053F00015F0010002D1300609D412E020686FF0E8
:1054000001010161204600F0F3F9300609D515F0DD
:10541000800006D020686FF0800101612046FFF710
:1054200033FD700609D515F0400006D020686FF0F6
:1054300040010161204600F0E5F9B00658BF70BD9B
:1054400015F0200008D021686FF0200220460A6184
:10545000BDE87040FFF71ABD70BD000070B586B0A2
:10546000006840F60041C4F2000100248842CDE902
:105470000444CDE90244019446D044F20041C4F210
:105480000101884222D00021C4F2010188426DD17D
:105490000020009043F63000C4F20200016841F0A1
:1054A000100101600068012100F0100000900098D8
:1054B0004FF42060019002200290CDE903100020FB
:1054C000C4F20200059100F580504CE0002043F644
:1054D00030010090C4F202010A6842F002020A6040
:1054E000096801F00201009100994FF48071019167
:1054F0000221CDE902100490032005900020C4F29F
:10550000020000F580602EE043F630000094C4F203
:1055100002000168002641F0800101600168C4F2C8
:10552000020601F0800100910099009401680225B3
:1055300041F001010160006801A900F00100009044
:1055400000984FF48060019006F5E050CDE90254D8
:10555000CDE90445FDF7AAFE06213046CDE9011547
:10556000CDE90344059501A9FDF7A0FE06B070BD85
:105570007047000090F83C30012B04BF02207047B8
:105580004FEAB2020123032A80F83C3000F2F8808F
:105590002DE9F043DFE802F002AF3D7D036840F201
:1055A00000461C6A1A6A24F0020422F001021A6200
:1055B0001A46D3F804C052F818EF8F6843F4806598
:1055C000C4F20106B54244EA070405D1CF6824F0CD
:1055D0000C0427F004073C430F68B54206D1D1E91B
:1055E00005582CF440762E4346EA080C2EF073063C
:1055F0003743C3F804C09F614F6809695F631C6249
:105600009F6947F008079F619F6927F004079F6122
:10561000B0E0036840F200481C6A1A6A24F400747F
:1056200022F480721A621A46D3F804C052F81CEFB2
:105630008F6843F48065C4F20108454544EA0724B5
:1056400008D1CF6840F2FF463F0224F4406427EAC5
:1056500006063443D1F80090454506D1D1E90556F8
:105660002CF440572E4347EA061C2EF0730747EAF6
:105670000907C3F804C0DF614F680969DF631C6272
:10568000DF6947F00807DF61DF6927F00407DF61A2
:1056900070E0036840F20045D3F820C01A6A43F472
:1056A000806722F480521A621A465C6852F81C8F96
:1056B000D1F800E08E68C4F20105AF4204D14D6913
:1056C00024F4804444EA85142CF4005747EA063752
:1056D00028F4E64646EA0E265C60DE614E680969FB
:1056E0001E641F62DF6947F40067DF61DF6927F42A
:1056F0008067DF613DE0036840F200481C6A1A6A77
:1057000024F0200422F010021A621A46D3F804C0D2
:1057100052F818EF8F6843F48065C4F201084545DC
:1057200044EA071407D1CF686FF0400624F0C004A4
:1057300006EA07163443D1F80090454506D1D1E971
:1057400005562CF440672E4347EA860C2EF4E647B4
:1057500047EA0927C3F804C09F614F6809699F633E
:105760001C629F6947F400679F619F6927F4806707
:105770009F6109021368194300231160BDE8F043DB
:10578000002180F83C10184670470000002804BF34
:105790000120704710B5044690F83D0028B900205C
:1057A00084F83C00204600F01FF8022084F83D00F9
:1057B0002068211D03F0D2FE012084F8460084F801
:1057C0003E0084F83F0084F8400084F8410084F8EB
:1057D000420084F8430084F8440084F8450084F8CB
:1057E0003D00002010BD0000704700007047000021
:1057F000006841F60001C4F20001884218BF7047FA
:10580000FDF73CBF704700007047000010B504462C
:105810000068406994F84110212920D110F08000DF
:105820001DD000BF206850E8050F216820F08000DF
:1058300041E80502002AF5D1A06B002818BFFDF74A
:105840008DFA00BF206850E8030F216820F0C000E7
:1058500041E80302002AF5D1202084F841002068A5
:10586000406994F84210222939D110F0400036D016
:10587000206850E8050F216820F0400041E805024B
:10588000002AF5D1E06B002818BFFDF767FA00BFCA
:10589000206850E8030F216820F4907041E803026B
:1058A000002AF5D1206850E8050F216820F001009A
:1058B00041E80502002AF5D1206B01280AD100BF7A
:1058C000206850E8030F216820F0100041E803022F
:1058D000002AF5D1202084F8420000202063002017
:1058E00010BD000070470000B0B582B001680A68C2
:1058F000CC684B6902F02F05202D04F0200505D15E
:1059000025B102B0BDE8B04003F066BF5FEA027C9B
:105910001EBF03F0010E04F4907313EB0E0340D18D
:10592000036BD50618D5012B16D114F0100313D034
:10593000002201920A6801924A680192019A49691B
:10594000490647D4818DC28DC38D002B18BF91426B
:1059500040F0108102B0B0BD13062AD514F08003C8
:1059600027D090F84120212AF4D18268B2F5805FD7
:1059700003D10269002A00F03081026A531C0362DD
:1059800012784A60C28C013A1304C284E2D1C8681A
:1059900020F08000C860C86840F04000C86002B0D5
:1059A000B0BDD10718BF14F480715CD1510760D429
:1059B00066E05206CED514F04002CBD0CA6822F081
:1059C0004002CA60202180F8411002B0BDE8B0401A
:1059D00000F06EBBC16B0A68526893B2002BB9D05D
:1059E000858DAB42B6D2C285C969B1F5807F33D00F
:1059F000016851E8031F026821F4807142E8031333
:105A0000002BF5D1016851E8051F026821F0010162
:105A100042E80513002BF5D1016851E8051F026823
:105A200021F0400142E80513002BF5D1202180F838
:105A300042100021016300BF016851E8031F0268A2
:105A400021F0100142E80313002BF5D1C16B04468D
:105A50000846FDF783F9204602214163818DC28DFE
:105A6000891A89B2AFE0416C41F0010141645107EC
:105A700006D5BEF1000F03D0416C41F00201416434
:105A8000910706D5BEF1000F03D0416C41F004012F
:105A90004164BCF1000F06D55EEA050103D0416CFC
:105AA00041F008014164416C00293FF453AF910675
:105AB00004D51DB1044603F08FFE204601684969F4
:105AC000426C01F0400102F0080289184BD000BF7F
:105AD000016851E8031F026821F4907142E8031342
